{
	"contracts/WalletMappingsStructAndMapping.sol": {
		"WalletMappingsStructAndMapping": {
			"abi": [
				{
					"inputs": [
						{
							"internalType": "address",
							"name": "",
							"type": "address"
						}
					],
					"name": "balanceReceived",
					"outputs": [
						{
							"internalType": "uint256",
							"name": "totalBalance",
							"type": "uint256"
						},
						{
							"internalType": "uint256",
							"name": "numDeposits",
							"type": "uint256"
						},
						{
							"internalType": "uint256",
							"name": "numWithdrawals",
							"type": "uint256"
						}
					],
					"stateMutability": "view",
					"type": "function"
				},
				{
					"inputs": [],
					"name": "depositMoney",
					"outputs": [],
					"stateMutability": "payable",
					"type": "function"
				},
				{
					"inputs": [
						{
							"internalType": "address",
							"name": "_addr",
							"type": "address"
						}
					],
					"name": "getBalance",
					"outputs": [
						{
							"internalType": "uint256",
							"name": "",
							"type": "uint256"
						}
					],
					"stateMutability": "view",
					"type": "function"
				},
				{
					"inputs": [
						{
							"internalType": "address",
							"name": "_from",
							"type": "address"
						},
						{
							"internalType": "uint256",
							"name": "_numDeposit",
							"type": "uint256"
						}
					],
					"name": "getDepositNum",
					"outputs": [
						{
							"components": [
								{
									"internalType": "uint256",
									"name": "amount",
									"type": "uint256"
								},
								{
									"internalType": "uint256",
									"name": "timestamp",
									"type": "uint256"
								}
							],
							"internalType": "struct WalletMappingsStructAndMapping.Transaction",
							"name": "",
							"type": "tuple"
						}
					],
					"stateMutability": "view",
					"type": "function"
				},
				{
					"inputs": [
						{
							"internalType": "address payable",
							"name": "_to",
							"type": "address"
						},
						{
							"internalType": "uint256",
							"name": "_amount",
							"type": "uint256"
						}
					],
					"name": "withdrawMoney",
					"outputs": [],
					"stateMutability": "nonpayable",
					"type": "function"
				}
			],
			"devdoc": {
				"kind": "dev",
				"methods": {},
				"version": 1
			},
			"evm": {
				"assembly": "    /* \"contracts/WalletMappingsStructAndMapping.sol\":60:1537  contract WalletMappingsStructAndMapping {... */\n  mstore(0x40, 0x80)\n  callvalue\n  dup1\n  iszero\n  tag_1\n  jumpi\n  0x00\n  dup1\n  revert\ntag_1:\n  pop\n  dataSize(sub_0)\n  dup1\n  dataOffset(sub_0)\n  0x00\n  codecopy\n  0x00\n  return\nstop\n\nsub_0: assembly {\n        /* \"contracts/WalletMappingsStructAndMapping.sol\":60:1537  contract WalletMappingsStructAndMapping {... */\n      mstore(0x40, 0x80)\n      jumpi(tag_1, lt(calldatasize, 0x04))\n      shr(0xe0, calldataload(0x00))\n      dup1\n      0x16c05aa2\n      eq\n      tag_2\n      jumpi\n      dup1\n      0x55e14fe6\n      eq\n      tag_3\n      jumpi\n      dup1\n      0xd18a42e1\n      eq\n      tag_4\n      jumpi\n      dup1\n      0xf274c897\n      eq\n      tag_5\n      jumpi\n      dup1\n      0xf8b2cb4f\n      eq\n      tag_6\n      jumpi\n    tag_1:\n      0x00\n      dup1\n      revert\n        /* \"contracts/WalletMappingsStructAndMapping.sol\":769:1113  function depositMoney() public payable {... */\n    tag_2:\n      tag_7\n      tag_8\n      jump\t// in\n    tag_7:\n      stop\n        /* \"contracts/WalletMappingsStructAndMapping.sol\":465:631  function getDepositNum(address _from, uint _numDeposit) public view returns(Transaction memory) {... */\n    tag_3:\n      callvalue\n      dup1\n      iszero\n      tag_9\n      jumpi\n      0x00\n      dup1\n      revert\n    tag_9:\n      pop\n      tag_10\n      0x04\n      dup1\n      calldatasize\n      sub\n      dup2\n      add\n      swap1\n      tag_11\n      swap2\n      swap1\n      tag_12\n      jump\t// in\n    tag_11:\n      tag_13\n      jump\t// in\n    tag_10:\n      mload(0x40)\n      tag_14\n      swap2\n      swap1\n      tag_15\n      jump\t// in\n    tag_14:\n      mload(0x40)\n      dup1\n      swap2\n      sub\n      swap1\n      return\n        /* \"contracts/WalletMappingsStructAndMapping.sol\":406:456  mapping(address => Balance) public balanceReceived */\n    tag_4:\n      callvalue\n      dup1\n      iszero\n      tag_16\n      jumpi\n      0x00\n      dup1\n      revert\n    tag_16:\n      pop\n      tag_17\n      0x04\n      dup1\n      calldatasize\n      sub\n      dup2\n      add\n      swap1\n      tag_18\n      swap2\n      swap1\n      tag_19\n      jump\t// in\n    tag_18:\n      tag_20\n      jump\t// in\n    tag_17:\n      mload(0x40)\n      tag_21\n      swap4\n      swap3\n      swap2\n      swap1\n      tag_22\n      jump\t// in\n    tag_21:\n      mload(0x40)\n      dup1\n      swap2\n      sub\n      swap1\n      return\n        /* \"contracts/WalletMappingsStructAndMapping.sol\":1121:1534  function withdrawMoney(address payable _to, uint _amount) public {... */\n    tag_5:\n      callvalue\n      dup1\n      iszero\n      tag_23\n      jumpi\n      0x00\n      dup1\n      revert\n    tag_23:\n      pop\n      tag_24\n      0x04\n      dup1\n      calldatasize\n      sub\n      dup2\n      add\n      swap1\n      tag_25\n      swap2\n      swap1\n      tag_26\n      jump\t// in\n    tag_25:\n      tag_27\n      jump\t// in\n    tag_24:\n      stop\n        /* \"contracts/WalletMappingsStructAndMapping.sol\":639:761  function getBalance(address _addr) public view returns(uint) {... */\n    tag_6:\n      callvalue\n      dup1\n      iszero\n      tag_28\n      jumpi\n      0x00\n      dup1\n      revert\n    tag_28:\n      pop\n      tag_29\n      0x04\n      dup1\n      calldatasize\n      sub\n      dup2\n      add\n      swap1\n      tag_30\n      swap2\n      swap1\n      tag_19\n      jump\t// in\n    tag_30:\n      tag_31\n      jump\t// in\n    tag_29:\n      mload(0x40)\n      tag_32\n      swap2\n      swap1\n      tag_33\n      jump\t// in\n    tag_32:\n      mload(0x40)\n      dup1\n      swap2\n      sub\n      swap1\n      return\n        /* \"contracts/WalletMappingsStructAndMapping.sol\":769:1113  function depositMoney() public payable {... */\n    tag_8:\n        /* \"contracts/WalletMappingsStructAndMapping.sol\":865:874  msg.value */\n      callvalue\n        /* \"contracts/WalletMappingsStructAndMapping.sol\":821:836  balanceReceived */\n      0x00\n        /* \"contracts/WalletMappingsStructAndMapping.sol\":821:848  balanceReceived[msg.sender] */\n      dup1\n        /* \"contracts/WalletMappingsStructAndMapping.sol\":837:847  msg.sender */\n      caller\n        /* \"contracts/WalletMappingsStructAndMapping.sol\":821:848  balanceReceived[msg.sender] */\n      0xffffffffffffffffffffffffffffffffffffffff\n      and\n      0xffffffffffffffffffffffffffffffffffffffff\n      and\n      dup2\n      mstore\n      0x20\n      add\n      swap1\n      dup2\n      mstore\n      0x20\n      add\n      0x00\n      keccak256\n        /* \"contracts/WalletMappingsStructAndMapping.sol\":821:861  balanceReceived[msg.sender].totalBalance */\n      0x00\n      add\n      0x00\n        /* \"contracts/WalletMappingsStructAndMapping.sol\":821:874  balanceReceived[msg.sender].totalBalance += msg.value */\n      dup3\n      dup3\n      sload\n      tag_35\n      swap2\n      swap1\n      tag_36\n      jump\t// in\n    tag_35:\n      swap3\n      pop\n      pop\n      dup2\n      swap1\n      sstore\n      pop\n        /* \"contracts/WalletMappingsStructAndMapping.sol\":885:911  Transaction memory deposit */\n      0x00\n        /* \"contracts/WalletMappingsStructAndMapping.sol\":914:953  Transaction(msg.value, block.timestamp) */\n      mload(0x40)\n      dup1\n      0x40\n      add\n      0x40\n      mstore\n      dup1\n        /* \"contracts/WalletMappingsStructAndMapping.sol\":926:935  msg.value */\n      callvalue\n        /* \"contracts/WalletMappingsStructAndMapping.sol\":914:953  Transaction(msg.value, block.timestamp) */\n      dup2\n      mstore\n      0x20\n      add\n        /* \"contracts/WalletMappingsStructAndMapping.sol\":937:952  block.timestamp */\n      timestamp\n        /* \"contracts/WalletMappingsStructAndMapping.sol\":914:953  Transaction(msg.value, block.timestamp) */\n      dup2\n      mstore\n      pop\n        /* \"contracts/WalletMappingsStructAndMapping.sol\":885:953  Transaction memory deposit = Transaction(msg.value, block.timestamp) */\n      swap1\n      pop\n        /* \"contracts/WalletMappingsStructAndMapping.sol\":1044:1051  deposit */\n      dup1\n        /* \"contracts/WalletMappingsStructAndMapping.sol\":964:979  balanceReceived */\n      0x00\n        /* \"contracts/WalletMappingsStructAndMapping.sol\":964:991  balanceReceived[msg.sender] */\n      dup1\n        /* \"contracts/WalletMappingsStructAndMapping.sol\":980:990  msg.sender */\n      caller\n        /* \"contracts/WalletMappingsStructAndMapping.sol\":964:991  balanceReceived[msg.sender] */\n      0xffffffffffffffffffffffffffffffffffffffff\n      and\n      0xffffffffffffffffffffffffffffffffffffffff\n      and\n      dup2\n      mstore\n      0x20\n      add\n      swap1\n      dup2\n      mstore\n      0x20\n      add\n      0x00\n      keccak256\n        /* \"contracts/WalletMappingsStructAndMapping.sol\":964:1000  balanceReceived[msg.sender].deposits */\n      0x02\n      add\n        /* \"contracts/WalletMappingsStructAndMapping.sol\":964:1041  balanceReceived[msg.sender].deposits[balanceReceived[msg.sender].numDeposits] */\n      0x00\n        /* \"contracts/WalletMappingsStructAndMapping.sol\":1001:1016  balanceReceived */\n      dup1\n        /* \"contracts/WalletMappingsStructAndMapping.sol\":1001:1028  balanceReceived[msg.sender] */\n      0x00\n        /* \"contracts/WalletMappingsStructAndMapping.sol\":1017:1027  msg.sender */\n      caller\n        /* \"contracts/WalletMappingsStructAndMapping.sol\":1001:1028  balanceReceived[msg.sender] */\n      0xffffffffffffffffffffffffffffffffffffffff\n      and\n      0xffffffffffffffffffffffffffffffffffffffff\n      and\n      dup2\n      mstore\n      0x20\n      add\n      swap1\n      dup2\n      mstore\n      0x20\n      add\n      0x00\n      keccak256\n        /* \"contracts/WalletMappingsStructAndMapping.sol\":1001:1040  balanceReceived[msg.sender].numDeposits */\n      0x01\n      add\n      sload\n        /* \"contracts/WalletMappingsStructAndMapping.sol\":964:1041  balanceReceived[msg.sender].deposits[balanceReceived[msg.sender].numDeposits] */\n      dup2\n      mstore\n      0x20\n      add\n      swap1\n      dup2\n      mstore\n      0x20\n      add\n      0x00\n      keccak256\n        /* \"contracts/WalletMappingsStructAndMapping.sol\":964:1051  balanceReceived[msg.sender].deposits[balanceReceived[msg.sender].numDeposits] = deposit */\n      0x00\n      dup3\n      add\n      mload\n      dup2\n      0x00\n      add\n      sstore\n      0x20\n      dup3\n      add\n      mload\n      dup2\n      0x01\n      add\n      sstore\n      swap1\n      pop\n      pop\n        /* \"contracts/WalletMappingsStructAndMapping.sol\":1062:1077  balanceReceived */\n      0x00\n        /* \"contracts/WalletMappingsStructAndMapping.sol\":1062:1089  balanceReceived[msg.sender] */\n      dup1\n        /* \"contracts/WalletMappingsStructAndMapping.sol\":1078:1088  msg.sender */\n      caller\n        /* \"contracts/WalletMappingsStructAndMapping.sol\":1062:1089  balanceReceived[msg.sender] */\n      0xffffffffffffffffffffffffffffffffffffffff\n      and\n      0xffffffffffffffffffffffffffffffffffffffff\n      and\n      dup2\n      mstore\n      0x20\n      add\n      swap1\n      dup2\n      mstore\n      0x20\n      add\n      0x00\n      keccak256\n        /* \"contracts/WalletMappingsStructAndMapping.sol\":1062:1101  balanceReceived[msg.sender].numDeposits */\n      0x01\n      add\n      0x00\n        /* \"contracts/WalletMappingsStructAndMapping.sol\":1062:1103  balanceReceived[msg.sender].numDeposits++ */\n      dup2\n      sload\n      dup1\n      swap3\n      swap2\n      swap1\n      tag_37\n      swap1\n      tag_38\n      jump\t// in\n    tag_37:\n      swap2\n      swap1\n      pop\n      sstore\n      pop\n        /* \"contracts/WalletMappingsStructAndMapping.sol\":808:1113  {... */\n      pop\n        /* \"contracts/WalletMappingsStructAndMapping.sol\":769:1113  function depositMoney() public payable {... */\n      jump\t// out\n        /* \"contracts/WalletMappingsStructAndMapping.sol\":465:631  function getDepositNum(address _from, uint _numDeposit) public view returns(Transaction memory) {... */\n    tag_13:\n        /* \"contracts/WalletMappingsStructAndMapping.sol\":541:559  Transaction memory */\n      tag_39\n      tag_40\n      jump\t// in\n    tag_39:\n        /* \"contracts/WalletMappingsStructAndMapping.sol\":579:594  balanceReceived */\n      0x00\n        /* \"contracts/WalletMappingsStructAndMapping.sol\":579:601  balanceReceived[_from] */\n      dup1\n        /* \"contracts/WalletMappingsStructAndMapping.sol\":595:600  _from */\n      dup5\n        /* \"contracts/WalletMappingsStructAndMapping.sol\":579:601  balanceReceived[_from] */\n      0xffffffffffffffffffffffffffffffffffffffff\n      and\n      0xffffffffffffffffffffffffffffffffffffffff\n      and\n      dup2\n      mstore\n      0x20\n      add\n      swap1\n      dup2\n      mstore\n      0x20\n      add\n      0x00\n      keccak256\n        /* \"contracts/WalletMappingsStructAndMapping.sol\":579:610  balanceReceived[_from].deposits */\n      0x02\n      add\n        /* \"contracts/WalletMappingsStructAndMapping.sol\":579:623  balanceReceived[_from].deposits[_numDeposit] */\n      0x00\n        /* \"contracts/WalletMappingsStructAndMapping.sol\":611:622  _numDeposit */\n      dup4\n        /* \"contracts/WalletMappingsStructAndMapping.sol\":579:623  balanceReceived[_from].deposits[_numDeposit] */\n      dup2\n      mstore\n      0x20\n      add\n      swap1\n      dup2\n      mstore\n      0x20\n      add\n      0x00\n      keccak256\n        /* \"contracts/WalletMappingsStructAndMapping.sol\":572:623  return balanceReceived[_from].deposits[_numDeposit] */\n      mload(0x40)\n      dup1\n      0x40\n      add\n      0x40\n      mstore\n      swap1\n      dup2\n      0x00\n      dup3\n      add\n      sload\n      dup2\n      mstore\n      0x20\n      add\n      0x01\n      dup3\n      add\n      sload\n      dup2\n      mstore\n      pop\n      pop\n      swap1\n      pop\n        /* \"contracts/WalletMappingsStructAndMapping.sol\":465:631  function getDepositNum(address _from, uint _numDeposit) public view returns(Transaction memory) {... */\n      swap3\n      swap2\n      pop\n      pop\n      jump\t// out\n        /* \"contracts/WalletMappingsStructAndMapping.sol\":406:456  mapping(address => Balance) public balanceReceived */\n    tag_20:\n      mstore(0x20, 0x00)\n      dup1\n      0x00\n      mstore\n      keccak256(0x00, 0x40)\n      0x00\n      swap2\n      pop\n      swap1\n      pop\n      dup1\n      0x00\n      add\n      sload\n      swap1\n      dup1\n      0x01\n      add\n      sload\n      swap1\n      dup1\n      0x03\n      add\n      sload\n      swap1\n      pop\n      dup4\n      jump\t// out\n        /* \"contracts/WalletMappingsStructAndMapping.sol\":1121:1534  function withdrawMoney(address payable _to, uint _amount) public {... */\n    tag_27:\n        /* \"contracts/WalletMappingsStructAndMapping.sol\":1241:1248  _amount */\n      dup1\n        /* \"contracts/WalletMappingsStructAndMapping.sol\":1197:1212  balanceReceived */\n      0x00\n        /* \"contracts/WalletMappingsStructAndMapping.sol\":1197:1224  balanceReceived[msg.sender] */\n      dup1\n        /* \"contracts/WalletMappingsStructAndMapping.sol\":1213:1223  msg.sender */\n      caller\n        /* \"contracts/WalletMappingsStructAndMapping.sol\":1197:1224  balanceReceived[msg.sender] */\n      0xffffffffffffffffffffffffffffffffffffffff\n      and\n      0xffffffffffffffffffffffffffffffffffffffff\n      and\n      dup2\n      mstore\n      0x20\n      add\n      swap1\n      dup2\n      mstore\n      0x20\n      add\n      0x00\n      keccak256\n        /* \"contracts/WalletMappingsStructAndMapping.sol\":1197:1237  balanceReceived[msg.sender].totalBalance */\n      0x00\n      add\n      0x00\n        /* \"contracts/WalletMappingsStructAndMapping.sol\":1197:1248  balanceReceived[msg.sender].totalBalance -= _amount */\n      dup3\n      dup3\n      sload\n      tag_43\n      swap2\n      swap1\n      tag_44\n      jump\t// in\n    tag_43:\n      swap3\n      pop\n      pop\n      dup2\n      swap1\n      sstore\n      pop\n        /* \"contracts/WalletMappingsStructAndMapping.sol\":1261:1290  Transaction memory withdrawal */\n      0x00\n        /* \"contracts/WalletMappingsStructAndMapping.sol\":1293:1330  Transaction(_amount, block.timestamp) */\n      mload(0x40)\n      dup1\n      0x40\n      add\n      0x40\n      mstore\n      dup1\n        /* \"contracts/WalletMappingsStructAndMapping.sol\":1305:1312  _amount */\n      dup4\n        /* \"contracts/WalletMappingsStructAndMapping.sol\":1293:1330  Transaction(_amount, block.timestamp) */\n      dup2\n      mstore\n      0x20\n      add\n        /* \"contracts/WalletMappingsStructAndMapping.sol\":1314:1329  block.timestamp */\n      timestamp\n        /* \"contracts/WalletMappingsStructAndMapping.sol\":1293:1330  Transaction(_amount, block.timestamp) */\n      dup2\n      mstore\n      pop\n        /* \"contracts/WalletMappingsStructAndMapping.sol\":1261:1330  Transaction memory withdrawal = Transaction(_amount, block.timestamp) */\n      swap1\n      pop\n        /* \"contracts/WalletMappingsStructAndMapping.sol\":1427:1437  withdrawal */\n      dup1\n        /* \"contracts/WalletMappingsStructAndMapping.sol\":1341:1356  balanceReceived */\n      0x00\n        /* \"contracts/WalletMappingsStructAndMapping.sol\":1341:1368  balanceReceived[msg.sender] */\n      dup1\n        /* \"contracts/WalletMappingsStructAndMapping.sol\":1357:1367  msg.sender */\n      caller\n        /* \"contracts/WalletMappingsStructAndMapping.sol\":1341:1368  balanceReceived[msg.sender] */\n      0xffffffffffffffffffffffffffffffffffffffff\n      and\n      0xffffffffffffffffffffffffffffffffffffffff\n      and\n      dup2\n      mstore\n      0x20\n      add\n      swap1\n      dup2\n      mstore\n      0x20\n      add\n      0x00\n      keccak256\n        /* \"contracts/WalletMappingsStructAndMapping.sol\":1341:1380  balanceReceived[msg.sender].withdrawals */\n      0x04\n      add\n        /* \"contracts/WalletMappingsStructAndMapping.sol\":1341:1424  balanceReceived[msg.sender].withdrawals[balanceReceived[msg.sender].numWithdrawals] */\n      0x00\n        /* \"contracts/WalletMappingsStructAndMapping.sol\":1381:1396  balanceReceived */\n      dup1\n        /* \"contracts/WalletMappingsStructAndMapping.sol\":1381:1408  balanceReceived[msg.sender] */\n      0x00\n        /* \"contracts/WalletMappingsStructAndMapping.sol\":1397:1407  msg.sender */\n      caller\n        /* \"contracts/WalletMappingsStructAndMapping.sol\":1381:1408  balanceReceived[msg.sender] */\n      0xffffffffffffffffffffffffffffffffffffffff\n      and\n      0xffffffffffffffffffffffffffffffffffffffff\n      and\n      dup2\n      mstore\n      0x20\n      add\n      swap1\n      dup2\n      mstore\n      0x20\n      add\n      0x00\n      keccak256\n        /* \"contracts/WalletMappingsStructAndMapping.sol\":1381:1423  balanceReceived[msg.sender].numWithdrawals */\n      0x03\n      add\n      sload\n        /* \"contracts/WalletMappingsStructAndMapping.sol\":1341:1424  balanceReceived[msg.sender].withdrawals[balanceReceived[msg.sender].numWithdrawals] */\n      dup2\n      mstore\n      0x20\n      add\n      swap1\n      dup2\n      mstore\n      0x20\n      add\n      0x00\n      keccak256\n        /* \"contracts/WalletMappingsStructAndMapping.sol\":1341:1437  balanceReceived[msg.sender].withdrawals[balanceReceived[msg.sender].numWithdrawals] = withdrawal */\n      0x00\n      dup3\n      add\n      mload\n      dup2\n      0x00\n      add\n      sstore\n      0x20\n      dup3\n      add\n      mload\n      dup2\n      0x01\n      add\n      sstore\n      swap1\n      pop\n      pop\n        /* \"contracts/WalletMappingsStructAndMapping.sol\":1448:1463  balanceReceived */\n      0x00\n        /* \"contracts/WalletMappingsStructAndMapping.sol\":1448:1475  balanceReceived[msg.sender] */\n      dup1\n        /* \"contracts/WalletMappingsStructAndMapping.sol\":1464:1474  msg.sender */\n      caller\n        /* \"contracts/WalletMappingsStructAndMapping.sol\":1448:1475  balanceReceived[msg.sender] */\n      0xffffffffffffffffffffffffffffffffffffffff\n      and\n      0xffffffffffffffffffffffffffffffffffffffff\n      and\n      dup2\n      mstore\n      0x20\n      add\n      swap1\n      dup2\n      mstore\n      0x20\n      add\n      0x00\n      keccak256\n        /* \"contracts/WalletMappingsStructAndMapping.sol\":1448:1490  balanceReceived[msg.sender].numWithdrawals */\n      0x03\n      add\n      0x00\n        /* \"contracts/WalletMappingsStructAndMapping.sol\":1448:1492  balanceReceived[msg.sender].numWithdrawals++ */\n      dup2\n      sload\n      dup1\n      swap3\n      swap2\n      swap1\n      tag_45\n      swap1\n      tag_38\n      jump\t// in\n    tag_45:\n      swap2\n      swap1\n      pop\n      sstore\n      pop\n        /* \"contracts/WalletMappingsStructAndMapping.sol\":1505:1508  _to */\n      dup3\n        /* \"contracts/WalletMappingsStructAndMapping.sol\":1505:1517  _to.transfer */\n      0xffffffffffffffffffffffffffffffffffffffff\n      and\n        /* \"contracts/WalletMappingsStructAndMapping.sol\":1505:1526  _to.transfer(_amount) */\n      0x08fc\n        /* \"contracts/WalletMappingsStructAndMapping.sol\":1518:1525  _amount */\n      dup4\n        /* \"contracts/WalletMappingsStructAndMapping.sol\":1505:1526  _to.transfer(_amount) */\n      swap1\n      dup2\n      iszero\n      mul\n      swap1\n      mload(0x40)\n      0x00\n      mload(0x40)\n      dup1\n      dup4\n      sub\n      dup2\n      dup6\n      dup9\n      dup9\n      call\n      swap4\n      pop\n      pop\n      pop\n      pop\n      iszero\n      dup1\n      iszero\n      tag_47\n      jumpi\n      returndatasize\n      0x00\n      dup1\n      returndatacopy\n      revert(0x00, returndatasize)\n    tag_47:\n      pop\n        /* \"contracts/WalletMappingsStructAndMapping.sol\":1186:1534  {... */\n      pop\n        /* \"contracts/WalletMappingsStructAndMapping.sol\":1121:1534  function withdrawMoney(address payable _to, uint _amount) public {... */\n      pop\n      pop\n      jump\t// out\n        /* \"contracts/WalletMappingsStructAndMapping.sol\":639:761  function getBalance(address _addr) public view returns(uint) {... */\n    tag_31:\n        /* \"contracts/WalletMappingsStructAndMapping.sol\":694:698  uint */\n      0x00\n        /* \"contracts/WalletMappingsStructAndMapping.sol\":718:733  balanceReceived */\n      dup1\n        /* \"contracts/WalletMappingsStructAndMapping.sol\":718:740  balanceReceived[_addr] */\n      0x00\n        /* \"contracts/WalletMappingsStructAndMapping.sol\":734:739  _addr */\n      dup4\n        /* \"contracts/WalletMappingsStructAndMapping.sol\":718:740  balanceReceived[_addr] */\n      0xffffffffffffffffffffffffffffffffffffffff\n      and\n      0xffffffffffffffffffffffffffffffffffffffff\n      and\n      dup2\n      mstore\n      0x20\n      add\n      swap1\n      dup2\n      mstore\n      0x20\n      add\n      0x00\n      keccak256\n        /* \"contracts/WalletMappingsStructAndMapping.sol\":718:753  balanceReceived[_addr].totalBalance */\n      0x00\n      add\n      sload\n        /* \"contracts/WalletMappingsStructAndMapping.sol\":711:753  return balanceReceived[_addr].totalBalance */\n      swap1\n      pop\n        /* \"contracts/WalletMappingsStructAndMapping.sol\":639:761  function getBalance(address _addr) public view returns(uint) {... */\n      swap2\n      swap1\n      pop\n      jump\t// out\n    tag_40:\n      mload(0x40)\n      dup1\n      0x40\n      add\n      0x40\n      mstore\n      dup1\n      0x00\n      dup2\n      mstore\n      0x20\n      add\n      0x00\n      dup2\n      mstore\n      pop\n      swap1\n      jump\t// out\n        /* \"#utility.yul\":88:205   */\n    tag_50:\n        /* \"#utility.yul\":197:198   */\n      0x00\n        /* \"#utility.yul\":194:195   */\n      dup1\n        /* \"#utility.yul\":187:199   */\n      revert\n        /* \"#utility.yul\":334:460   */\n    tag_52:\n        /* \"#utility.yul\":371:378   */\n      0x00\n        /* \"#utility.yul\":411:453   */\n      0xffffffffffffffffffffffffffffffffffffffff\n        /* \"#utility.yul\":404:409   */\n      dup3\n        /* \"#utility.yul\":400:454   */\n      and\n        /* \"#utility.yul\":389:454   */\n      swap1\n      pop\n        /* \"#utility.yul\":334:460   */\n      swap2\n      swap1\n      pop\n      jump\t// out\n        /* \"#utility.yul\":466:562   */\n    tag_53:\n        /* \"#utility.yul\":503:510   */\n      0x00\n        /* \"#utility.yul\":532:556   */\n      tag_72\n        /* \"#utility.yul\":550:555   */\n      dup3\n        /* \"#utility.yul\":532:556   */\n      tag_52\n      jump\t// in\n    tag_72:\n        /* \"#utility.yul\":521:556   */\n      swap1\n      pop\n        /* \"#utility.yul\":466:562   */\n      swap2\n      swap1\n      pop\n      jump\t// out\n        /* \"#utility.yul\":568:690   */\n    tag_54:\n        /* \"#utility.yul\":641:665   */\n      tag_74\n        /* \"#utility.yul\":659:664   */\n      dup2\n        /* \"#utility.yul\":641:665   */\n      tag_53\n      jump\t// in\n    tag_74:\n        /* \"#utility.yul\":634:639   */\n      dup2\n        /* \"#utility.yul\":631:666   */\n      eq\n        /* \"#utility.yul\":621:684   */\n      tag_75\n      jumpi\n        /* \"#utility.yul\":680:681   */\n      0x00\n        /* \"#utility.yul\":677:678   */\n      dup1\n        /* \"#utility.yul\":670:682   */\n      revert\n        /* \"#utility.yul\":621:684   */\n    tag_75:\n        /* \"#utility.yul\":568:690   */\n      pop\n      jump\t// out\n        /* \"#utility.yul\":696:835   */\n    tag_55:\n        /* \"#utility.yul\":742:747   */\n      0x00\n        /* \"#utility.yul\":780:786   */\n      dup2\n        /* \"#utility.yul\":767:787   */\n      calldataload\n        /* \"#utility.yul\":758:787   */\n      swap1\n      pop\n        /* \"#utility.yul\":796:829   */\n      tag_77\n        /* \"#utility.yul\":823:828   */\n      dup2\n        /* \"#utility.yul\":796:829   */\n      tag_54\n      jump\t// in\n    tag_77:\n        /* \"#utility.yul\":696:835   */\n      swap3\n      swap2\n      pop\n      pop\n      jump\t// out\n        /* \"#utility.yul\":841:918   */\n    tag_56:\n        /* \"#utility.yul\":878:885   */\n      0x00\n        /* \"#utility.yul\":907:912   */\n      dup2\n        /* \"#utility.yul\":896:912   */\n      swap1\n      pop\n        /* \"#utility.yul\":841:918   */\n      swap2\n      swap1\n      pop\n      jump\t// out\n        /* \"#utility.yul\":924:1046   */\n    tag_57:\n        /* \"#utility.yul\":997:1021   */\n      tag_80\n        /* \"#utility.yul\":1015:1020   */\n      dup2\n        /* \"#utility.yul\":997:1021   */\n      tag_56\n      jump\t// in\n    tag_80:\n        /* \"#utility.yul\":990:995   */\n      dup2\n        /* \"#utility.yul\":987:1022   */\n      eq\n        /* \"#utility.yul\":977:1040   */\n      tag_81\n      jumpi\n        /* \"#utility.yul\":1036:1037   */\n      0x00\n        /* \"#utility.yul\":1033:1034   */\n      dup1\n        /* \"#utility.yul\":1026:1038   */\n      revert\n        /* \"#utility.yul\":977:1040   */\n    tag_81:\n        /* \"#utility.yul\":924:1046   */\n      pop\n      jump\t// out\n        /* \"#utility.yul\":1052:1191   */\n    tag_58:\n        /* \"#utility.yul\":1098:1103   */\n      0x00\n        /* \"#utility.yul\":1136:1142   */\n      dup2\n        /* \"#utility.yul\":1123:1143   */\n      calldataload\n        /* \"#utility.yul\":1114:1143   */\n      swap1\n      pop\n        /* \"#utility.yul\":1152:1185   */\n      tag_83\n        /* \"#utility.yul\":1179:1184   */\n      dup2\n        /* \"#utility.yul\":1152:1185   */\n      tag_57\n      jump\t// in\n    tag_83:\n        /* \"#utility.yul\":1052:1191   */\n      swap3\n      swap2\n      pop\n      pop\n      jump\t// out\n        /* \"#utility.yul\":1197:1671   */\n    tag_12:\n        /* \"#utility.yul\":1265:1271   */\n      0x00\n        /* \"#utility.yul\":1273:1279   */\n      dup1\n        /* \"#utility.yul\":1322:1324   */\n      0x40\n        /* \"#utility.yul\":1310:1319   */\n      dup4\n        /* \"#utility.yul\":1301:1308   */\n      dup6\n        /* \"#utility.yul\":1297:1320   */\n      sub\n        /* \"#utility.yul\":1293:1325   */\n      slt\n        /* \"#utility.yul\":1290:1409   */\n      iszero\n      tag_85\n      jumpi\n        /* \"#utility.yul\":1328:1407   */\n      tag_86\n      tag_50\n      jump\t// in\n    tag_86:\n        /* \"#utility.yul\":1290:1409   */\n    tag_85:\n        /* \"#utility.yul\":1448:1449   */\n      0x00\n        /* \"#utility.yul\":1473:1526   */\n      tag_87\n        /* \"#utility.yul\":1518:1525   */\n      dup6\n        /* \"#utility.yul\":1509:1515   */\n      dup3\n        /* \"#utility.yul\":1498:1507   */\n      dup7\n        /* \"#utility.yul\":1494:1516   */\n      add\n        /* \"#utility.yul\":1473:1526   */\n      tag_55\n      jump\t// in\n    tag_87:\n        /* \"#utility.yul\":1463:1526   */\n      swap3\n      pop\n        /* \"#utility.yul\":1419:1536   */\n      pop\n        /* \"#utility.yul\":1575:1577   */\n      0x20\n        /* \"#utility.yul\":1601:1654   */\n      tag_88\n        /* \"#utility.yul\":1646:1653   */\n      dup6\n        /* \"#utility.yul\":1637:1643   */\n      dup3\n        /* \"#utility.yul\":1626:1635   */\n      dup7\n        /* \"#utility.yul\":1622:1644   */\n      add\n        /* \"#utility.yul\":1601:1654   */\n      tag_58\n      jump\t// in\n    tag_88:\n        /* \"#utility.yul\":1591:1654   */\n      swap2\n      pop\n        /* \"#utility.yul\":1546:1664   */\n      pop\n        /* \"#utility.yul\":1197:1671   */\n      swap3\n      pop\n      swap3\n      swap1\n      pop\n      jump\t// out\n        /* \"#utility.yul\":1677:1785   */\n    tag_59:\n        /* \"#utility.yul\":1754:1778   */\n      tag_90\n        /* \"#utility.yul\":1772:1777   */\n      dup2\n        /* \"#utility.yul\":1754:1778   */\n      tag_56\n      jump\t// in\n    tag_90:\n        /* \"#utility.yul\":1749:1752   */\n      dup3\n        /* \"#utility.yul\":1742:1779   */\n      mstore\n        /* \"#utility.yul\":1677:1785   */\n      pop\n      pop\n      jump\t// out\n        /* \"#utility.yul\":1901:2417   */\n    tag_60:\n        /* \"#utility.yul\":2050:2054   */\n      0x40\n        /* \"#utility.yul\":2045:2048   */\n      dup3\n        /* \"#utility.yul\":2041:2055   */\n      add\n        /* \"#utility.yul\":2139:2143   */\n      0x00\n        /* \"#utility.yul\":2132:2137   */\n      dup3\n        /* \"#utility.yul\":2128:2144   */\n      add\n        /* \"#utility.yul\":2122:2145   */\n      mload\n        /* \"#utility.yul\":2158:2221   */\n      tag_92\n        /* \"#utility.yul\":2215:2219   */\n      0x00\n        /* \"#utility.yul\":2210:2213   */\n      dup6\n        /* \"#utility.yul\":2206:2220   */\n      add\n        /* \"#utility.yul\":2192:2204   */\n      dup3\n        /* \"#utility.yul\":2158:2221   */\n      tag_59\n      jump\t// in\n    tag_92:\n        /* \"#utility.yul\":2065:2231   */\n      pop\n        /* \"#utility.yul\":2318:2322   */\n      0x20\n        /* \"#utility.yul\":2311:2316   */\n      dup3\n        /* \"#utility.yul\":2307:2323   */\n      add\n        /* \"#utility.yul\":2301:2324   */\n      mload\n        /* \"#utility.yul\":2337:2400   */\n      tag_93\n        /* \"#utility.yul\":2394:2398   */\n      0x20\n        /* \"#utility.yul\":2389:2392   */\n      dup6\n        /* \"#utility.yul\":2385:2399   */\n      add\n        /* \"#utility.yul\":2371:2383   */\n      dup3\n        /* \"#utility.yul\":2337:2400   */\n      tag_59\n      jump\t// in\n    tag_93:\n        /* \"#utility.yul\":2241:2410   */\n      pop\n        /* \"#utility.yul\":2019:2417   */\n      pop\n        /* \"#utility.yul\":1901:2417   */\n      pop\n      pop\n      jump\t// out\n        /* \"#utility.yul\":2423:2749   */\n    tag_15:\n        /* \"#utility.yul\":2568:2572   */\n      0x00\n        /* \"#utility.yul\":2606:2608   */\n      0x40\n        /* \"#utility.yul\":2595:2604   */\n      dup3\n        /* \"#utility.yul\":2591:2609   */\n      add\n        /* \"#utility.yul\":2583:2609   */\n      swap1\n      pop\n        /* \"#utility.yul\":2619:2742   */\n      tag_95\n        /* \"#utility.yul\":2739:2740   */\n      0x00\n        /* \"#utility.yul\":2728:2737   */\n      dup4\n        /* \"#utility.yul\":2724:2741   */\n      add\n        /* \"#utility.yul\":2715:2721   */\n      dup5\n        /* \"#utility.yul\":2619:2742   */\n      tag_60\n      jump\t// in\n    tag_95:\n        /* \"#utility.yul\":2423:2749   */\n      swap3\n      swap2\n      pop\n      pop\n      jump\t// out\n        /* \"#utility.yul\":2755:3084   */\n    tag_19:\n        /* \"#utility.yul\":2814:2820   */\n      0x00\n        /* \"#utility.yul\":2863:2865   */\n      0x20\n        /* \"#utility.yul\":2851:2860   */\n      dup3\n        /* \"#utility.yul\":2842:2849   */\n      dup5\n        /* \"#utility.yul\":2838:2861   */\n      sub\n        /* \"#utility.yul\":2834:2866   */\n      slt\n        /* \"#utility.yul\":2831:2950   */\n      iszero\n      tag_97\n      jumpi\n        /* \"#utility.yul\":2869:2948   */\n      tag_98\n      tag_50\n      jump\t// in\n    tag_98:\n        /* \"#utility.yul\":2831:2950   */\n    tag_97:\n        /* \"#utility.yul\":2989:2990   */\n      0x00\n        /* \"#utility.yul\":3014:3067   */\n      tag_99\n        /* \"#utility.yul\":3059:3066   */\n      dup5\n        /* \"#utility.yul\":3050:3056   */\n      dup3\n        /* \"#utility.yul\":3039:3048   */\n      dup6\n        /* \"#utility.yul\":3035:3057   */\n      add\n        /* \"#utility.yul\":3014:3067   */\n      tag_55\n      jump\t// in\n    tag_99:\n        /* \"#utility.yul\":3004:3067   */\n      swap2\n      pop\n        /* \"#utility.yul\":2960:3077   */\n      pop\n        /* \"#utility.yul\":2755:3084   */\n      swap3\n      swap2\n      pop\n      pop\n      jump\t// out\n        /* \"#utility.yul\":3090:3208   */\n    tag_61:\n        /* \"#utility.yul\":3177:3201   */\n      tag_101\n        /* \"#utility.yul\":3195:3200   */\n      dup2\n        /* \"#utility.yul\":3177:3201   */\n      tag_56\n      jump\t// in\n    tag_101:\n        /* \"#utility.yul\":3172:3175   */\n      dup3\n        /* \"#utility.yul\":3165:3202   */\n      mstore\n        /* \"#utility.yul\":3090:3208   */\n      pop\n      pop\n      jump\t// out\n        /* \"#utility.yul\":3214:3656   */\n    tag_22:\n        /* \"#utility.yul\":3363:3367   */\n      0x00\n        /* \"#utility.yul\":3401:3403   */\n      0x60\n        /* \"#utility.yul\":3390:3399   */\n      dup3\n        /* \"#utility.yul\":3386:3404   */\n      add\n        /* \"#utility.yul\":3378:3404   */\n      swap1\n      pop\n        /* \"#utility.yul\":3414:3485   */\n      tag_103\n        /* \"#utility.yul\":3482:3483   */\n      0x00\n        /* \"#utility.yul\":3471:3480   */\n      dup4\n        /* \"#utility.yul\":3467:3484   */\n      add\n        /* \"#utility.yul\":3458:3464   */\n      dup7\n        /* \"#utility.yul\":3414:3485   */\n      tag_61\n      jump\t// in\n    tag_103:\n        /* \"#utility.yul\":3495:3567   */\n      tag_104\n        /* \"#utility.yul\":3563:3565   */\n      0x20\n        /* \"#utility.yul\":3552:3561   */\n      dup4\n        /* \"#utility.yul\":3548:3566   */\n      add\n        /* \"#utility.yul\":3539:3545   */\n      dup6\n        /* \"#utility.yul\":3495:3567   */\n      tag_61\n      jump\t// in\n    tag_104:\n        /* \"#utility.yul\":3577:3649   */\n      tag_105\n        /* \"#utility.yul\":3645:3647   */\n      0x40\n        /* \"#utility.yul\":3634:3643   */\n      dup4\n        /* \"#utility.yul\":3630:3648   */\n      add\n        /* \"#utility.yul\":3621:3627   */\n      dup5\n        /* \"#utility.yul\":3577:3649   */\n      tag_61\n      jump\t// in\n    tag_105:\n        /* \"#utility.yul\":3214:3656   */\n      swap5\n      swap4\n      pop\n      pop\n      pop\n      pop\n      jump\t// out\n        /* \"#utility.yul\":3662:3766   */\n    tag_62:\n        /* \"#utility.yul\":3707:3714   */\n      0x00\n        /* \"#utility.yul\":3736:3760   */\n      tag_107\n        /* \"#utility.yul\":3754:3759   */\n      dup3\n        /* \"#utility.yul\":3736:3760   */\n      tag_52\n      jump\t// in\n    tag_107:\n        /* \"#utility.yul\":3725:3760   */\n      swap1\n      pop\n        /* \"#utility.yul\":3662:3766   */\n      swap2\n      swap1\n      pop\n      jump\t// out\n        /* \"#utility.yul\":3772:3910   */\n    tag_63:\n        /* \"#utility.yul\":3853:3885   */\n      tag_109\n        /* \"#utility.yul\":3879:3884   */\n      dup2\n        /* \"#utility.yul\":3853:3885   */\n      tag_62\n      jump\t// in\n    tag_109:\n        /* \"#utility.yul\":3846:3851   */\n      dup2\n        /* \"#utility.yul\":3843:3886   */\n      eq\n        /* \"#utility.yul\":3833:3904   */\n      tag_110\n      jumpi\n        /* \"#utility.yul\":3900:3901   */\n      0x00\n        /* \"#utility.yul\":3897:3898   */\n      dup1\n        /* \"#utility.yul\":3890:3902   */\n      revert\n        /* \"#utility.yul\":3833:3904   */\n    tag_110:\n        /* \"#utility.yul\":3772:3910   */\n      pop\n      jump\t// out\n        /* \"#utility.yul\":3916:4071   */\n    tag_64:\n        /* \"#utility.yul\":3970:3975   */\n      0x00\n        /* \"#utility.yul\":4008:4014   */\n      dup2\n        /* \"#utility.yul\":3995:4015   */\n      calldataload\n        /* \"#utility.yul\":3986:4015   */\n      swap1\n      pop\n        /* \"#utility.yul\":4024:4065   */\n      tag_112\n        /* \"#utility.yul\":4059:4064   */\n      dup2\n        /* \"#utility.yul\":4024:4065   */\n      tag_63\n      jump\t// in\n    tag_112:\n        /* \"#utility.yul\":3916:4071   */\n      swap3\n      swap2\n      pop\n      pop\n      jump\t// out\n        /* \"#utility.yul\":4077:4567   */\n    tag_26:\n        /* \"#utility.yul\":4153:4159   */\n      0x00\n        /* \"#utility.yul\":4161:4167   */\n      dup1\n        /* \"#utility.yul\":4210:4212   */\n      0x40\n        /* \"#utility.yul\":4198:4207   */\n      dup4\n        /* \"#utility.yul\":4189:4196   */\n      dup6\n        /* \"#utility.yul\":4185:4208   */\n      sub\n        /* \"#utility.yul\":4181:4213   */\n      slt\n        /* \"#utility.yul\":4178:4297   */\n      iszero\n      tag_114\n      jumpi\n        /* \"#utility.yul\":4216:4295   */\n      tag_115\n      tag_50\n      jump\t// in\n    tag_115:\n        /* \"#utility.yul\":4178:4297   */\n    tag_114:\n        /* \"#utility.yul\":4336:4337   */\n      0x00\n        /* \"#utility.yul\":4361:4422   */\n      tag_116\n        /* \"#utility.yul\":4414:4421   */\n      dup6\n        /* \"#utility.yul\":4405:4411   */\n      dup3\n        /* \"#utility.yul\":4394:4403   */\n      dup7\n        /* \"#utility.yul\":4390:4412   */\n      add\n        /* \"#utility.yul\":4361:4422   */\n      tag_64\n      jump\t// in\n    tag_116:\n        /* \"#utility.yul\":4351:4422   */\n      swap3\n      pop\n        /* \"#utility.yul\":4307:4432   */\n      pop\n        /* \"#utility.yul\":4471:4473   */\n      0x20\n        /* \"#utility.yul\":4497:4550   */\n      tag_117\n        /* \"#utility.yul\":4542:4549   */\n      dup6\n        /* \"#utility.yul\":4533:4539   */\n      dup3\n        /* \"#utility.yul\":4522:4531   */\n      dup7\n        /* \"#utility.yul\":4518:4540   */\n      add\n        /* \"#utility.yul\":4497:4550   */\n      tag_58\n      jump\t// in\n    tag_117:\n        /* \"#utility.yul\":4487:4550   */\n      swap2\n      pop\n        /* \"#utility.yul\":4442:4560   */\n      pop\n        /* \"#utility.yul\":4077:4567   */\n      swap3\n      pop\n      swap3\n      swap1\n      pop\n      jump\t// out\n        /* \"#utility.yul\":4573:4795   */\n    tag_33:\n        /* \"#utility.yul\":4666:4670   */\n      0x00\n        /* \"#utility.yul\":4704:4706   */\n      0x20\n        /* \"#utility.yul\":4693:4702   */\n      dup3\n        /* \"#utility.yul\":4689:4707   */\n      add\n        /* \"#utility.yul\":4681:4707   */\n      swap1\n      pop\n        /* \"#utility.yul\":4717:4788   */\n      tag_119\n        /* \"#utility.yul\":4785:4786   */\n      0x00\n        /* \"#utility.yul\":4774:4783   */\n      dup4\n        /* \"#utility.yul\":4770:4787   */\n      add\n        /* \"#utility.yul\":4761:4767   */\n      dup5\n        /* \"#utility.yul\":4717:4788   */\n      tag_61\n      jump\t// in\n    tag_119:\n        /* \"#utility.yul\":4573:4795   */\n      swap3\n      swap2\n      pop\n      pop\n      jump\t// out\n        /* \"#utility.yul\":4801:4981   */\n    tag_65:\n        /* \"#utility.yul\":4849:4926   */\n      0x4e487b7100000000000000000000000000000000000000000000000000000000\n        /* \"#utility.yul\":4846:4847   */\n      0x00\n        /* \"#utility.yul\":4839:4927   */\n      mstore\n        /* \"#utility.yul\":4946:4950   */\n      0x11\n        /* \"#utility.yul\":4943:4944   */\n      0x04\n        /* \"#utility.yul\":4936:4951   */\n      mstore\n        /* \"#utility.yul\":4970:4974   */\n      0x24\n        /* \"#utility.yul\":4967:4968   */\n      0x00\n        /* \"#utility.yul\":4960:4975   */\n      revert\n        /* \"#utility.yul\":4987:5292   */\n    tag_36:\n        /* \"#utility.yul\":5027:5030   */\n      0x00\n        /* \"#utility.yul\":5046:5066   */\n      tag_122\n        /* \"#utility.yul\":5064:5065   */\n      dup3\n        /* \"#utility.yul\":5046:5066   */\n      tag_56\n      jump\t// in\n    tag_122:\n        /* \"#utility.yul\":5041:5066   */\n      swap2\n      pop\n        /* \"#utility.yul\":5080:5100   */\n      tag_123\n        /* \"#utility.yul\":5098:5099   */\n      dup4\n        /* \"#utility.yul\":5080:5100   */\n      tag_56\n      jump\t// in\n    tag_123:\n        /* \"#utility.yul\":5075:5100   */\n      swap3\n      pop\n        /* \"#utility.yul\":5234:5235   */\n      dup3\n        /* \"#utility.yul\":5166:5232   */\n      0xffffffffffffffffffffffffffffffffffffffffffffffffffffffffffffffff\n        /* \"#utility.yul\":5162:5236   */\n      sub\n        /* \"#utility.yul\":5159:5160   */\n      dup3\n        /* \"#utility.yul\":5156:5237   */\n      gt\n        /* \"#utility.yul\":5153:5260   */\n      iszero\n      tag_124\n      jumpi\n        /* \"#utility.yul\":5240:5258   */\n      tag_125\n      tag_65\n      jump\t// in\n    tag_125:\n        /* \"#utility.yul\":5153:5260   */\n    tag_124:\n        /* \"#utility.yul\":5284:5285   */\n      dup3\n        /* \"#utility.yul\":5281:5282   */\n      dup3\n        /* \"#utility.yul\":5277:5286   */\n      add\n        /* \"#utility.yul\":5270:5286   */\n      swap1\n      pop\n        /* \"#utility.yul\":4987:5292   */\n      swap3\n      swap2\n      pop\n      pop\n      jump\t// out\n        /* \"#utility.yul\":5298:5531   */\n    tag_38:\n        /* \"#utility.yul\":5337:5340   */\n      0x00\n        /* \"#utility.yul\":5360:5384   */\n      tag_127\n        /* \"#utility.yul\":5378:5383   */\n      dup3\n        /* \"#utility.yul\":5360:5384   */\n      tag_56\n      jump\t// in\n    tag_127:\n        /* \"#utility.yul\":5351:5384   */\n      swap2\n      pop\n        /* \"#utility.yul\":5406:5472   */\n      0xffffffffffffffffffffffffffffffffffffffffffffffffffffffffffffffff\n        /* \"#utility.yul\":5399:5404   */\n      dup3\n        /* \"#utility.yul\":5396:5473   */\n      sub\n        /* \"#utility.yul\":5393:5496   */\n      tag_128\n      jumpi\n        /* \"#utility.yul\":5476:5494   */\n      tag_129\n      tag_65\n      jump\t// in\n    tag_129:\n        /* \"#utility.yul\":5393:5496   */\n    tag_128:\n        /* \"#utility.yul\":5523:5524   */\n      0x01\n        /* \"#utility.yul\":5516:5521   */\n      dup3\n        /* \"#utility.yul\":5512:5525   */\n      add\n        /* \"#utility.yul\":5505:5525   */\n      swap1\n      pop\n        /* \"#utility.yul\":5298:5531   */\n      swap2\n      swap1\n      pop\n      jump\t// out\n        /* \"#utility.yul\":5537:5728   */\n    tag_44:\n        /* \"#utility.yul\":5577:5581   */\n      0x00\n        /* \"#utility.yul\":5597:5617   */\n      tag_131\n        /* \"#utility.yul\":5615:5616   */\n      dup3\n        /* \"#utility.yul\":5597:5617   */\n      tag_56\n      jump\t// in\n    tag_131:\n        /* \"#utility.yul\":5592:5617   */\n      swap2\n      pop\n        /* \"#utility.yul\":5631:5651   */\n      tag_132\n        /* \"#utility.yul\":5649:5650   */\n      dup4\n        /* \"#utility.yul\":5631:5651   */\n      tag_56\n      jump\t// in\n    tag_132:\n        /* \"#utility.yul\":5626:5651   */\n      swap3\n      pop\n        /* \"#utility.yul\":5670:5671   */\n      dup3\n        /* \"#utility.yul\":5667:5668   */\n      dup3\n        /* \"#utility.yul\":5664:5672   */\n      lt\n        /* \"#utility.yul\":5661:5695   */\n      iszero\n      tag_133\n      jumpi\n        /* \"#utility.yul\":5675:5693   */\n      tag_134\n      tag_65\n      jump\t// in\n    tag_134:\n        /* \"#utility.yul\":5661:5695   */\n    tag_133:\n        /* \"#utility.yul\":5720:5721   */\n      dup3\n        /* \"#utility.yul\":5717:5718   */\n      dup3\n        /* \"#utility.yul\":5713:5722   */\n      sub\n        /* \"#utility.yul\":5705:5722   */\n      swap1\n      pop\n        /* \"#utility.yul\":5537:5728   */\n      swap3\n      swap2\n      pop\n      pop\n      jump\t// out\n\n    auxdata: 0xa2646970667358221220bb504a7dd354beea2ba02c45603e69cf953199903350d8530f559a7e351787ac64736f6c634300080e0033\n}\n",
				"bytecode": {
					"linkReferences": {},
					"object": "608060405234801561001057600080fd5b506108f5806100206000396000f3fe60806040526004361061004a5760003560e01c806316c05aa21461004f57806355e14fe614610059578063d18a42e114610096578063f274c897146100d5578063f8b2cb4f146100fe575b600080fd5b61005761013b565b005b34801561006557600080fd5b50610080600480360381019061007b9190610619565b6102b1565b60405161008d9190610697565b60405180910390f35b3480156100a257600080fd5b506100bd60048036038101906100b891906106b2565b610332565b6040516100cc939291906106ee565b60405180910390f35b3480156100e157600080fd5b506100fc60048036038101906100f79190610763565b61035c565b005b34801561010a57600080fd5b50610125600480360381019061012091906106b2565b61051b565b60405161013291906107a3565b60405180910390f35b346000803373ffffffffffffffffffffffffffffffffffffffff1673ffffffffffffffffffffffffffffffffffffffff168152602001908152602001600020600001600082825461018c91906107ed565b9250508190555060006040518060400160405280348152602001428152509050806000803373ffffffffffffffffffffffffffffffffffffffff1673ffffffffffffffffffffffffffffffffffffffff16815260200190815260200160002060020160008060003373ffffffffffffffffffffffffffffffffffffffff1673ffffffffffffffffffffffffffffffffffffffff16815260200190815260200160002060010154815260200190815260200160002060008201518160000155602082015181600101559050506000803373ffffffffffffffffffffffffffffffffffffffff1673ffffffffffffffffffffffffffffffffffffffff16815260200190815260200160002060010160008154809291906102a990610843565b919050555050565b6102b9610566565b6000808473ffffffffffffffffffffffffffffffffffffffff1673ffffffffffffffffffffffffffffffffffffffff168152602001908152602001600020600201600083815260200190815260200160002060405180604001604052908160008201548152602001600182015481525050905092915050565b60006020528060005260406000206000915090508060000154908060010154908060030154905083565b806000803373ffffffffffffffffffffffffffffffffffffffff1673ffffffffffffffffffffffffffffffffffffffff16815260200190815260200160002060000160008282546103ad919061088b565b9250508190555060006040518060400160405280838152602001428152509050806000803373ffffffffffffffffffffffffffffffffffffffff1673ffffffffffffffffffffffffffffffffffffffff16815260200190815260200160002060040160008060003373ffffffffffffffffffffffffffffffffffffffff1673ffffffffffffffffffffffffffffffffffffffff16815260200190815260200160002060030154815260200190815260200160002060008201518160000155602082015181600101559050506000803373ffffffffffffffffffffffffffffffffffffffff1673ffffffffffffffffffffffffffffffffffffffff16815260200190815260200160002060030160008154809291906104ca90610843565b91905055508273ffffffffffffffffffffffffffffffffffffffff166108fc839081150290604051600060405180830381858888f19350505050158015610515573d6000803e3d6000fd5b50505050565b60008060008373ffffffffffffffffffffffffffffffffffffffff1673ffffffffffffffffffffffffffffffffffffffff168152602001908152602001600020600001549050919050565b604051806040016040528060008152602001600081525090565b600080fd5b600073ffffffffffffffffffffffffffffffffffffffff82169050919050565b60006105b082610585565b9050919050565b6105c0816105a5565b81146105cb57600080fd5b50565b6000813590506105dd816105b7565b92915050565b6000819050919050565b6105f6816105e3565b811461060157600080fd5b50565b600081359050610613816105ed565b92915050565b600080604083850312156106305761062f610580565b5b600061063e858286016105ce565b925050602061064f85828601610604565b9150509250929050565b610662816105e3565b82525050565b60408201600082015161067e6000850182610659565b5060208201516106916020850182610659565b50505050565b60006040820190506106ac6000830184610668565b92915050565b6000602082840312156106c8576106c7610580565b5b60006106d6848285016105ce565b91505092915050565b6106e8816105e3565b82525050565b600060608201905061070360008301866106df565b61071060208301856106df565b61071d60408301846106df565b949350505050565b600061073082610585565b9050919050565b61074081610725565b811461074b57600080fd5b50565b60008135905061075d81610737565b92915050565b6000806040838503121561077a57610779610580565b5b60006107888582860161074e565b925050602061079985828601610604565b9150509250929050565b60006020820190506107b860008301846106df565b92915050565b7f4e487b7100000000000000000000000000000000000000000000000000000000600052601160045260246000fd5b60006107f8826105e3565b9150610803836105e3565b9250827fffffffffffffffffffffffffffffffffffffffffffffffffffffffffffffffff03821115610838576108376107be565b5b828201905092915050565b600061084e826105e3565b91507fffffffffffffffffffffffffffffffffffffffffffffffffffffffffffffffff82036108805761087f6107be565b5b600182019050919050565b6000610896826105e3565b91506108a1836105e3565b9250828210156108b4576108b36107be565b5b82820390509291505056fea2646970667358221220bb504a7dd354beea2ba02c45603e69cf953199903350d8530f559a7e351787ac64736f6c634300080e0033",
					"opcodes": "PUSH1 0x80 PUSH1 0x40 MSTORE CALLVALUE DUP1 ISZERO PUSH2 0x10 JUMPI PUSH1 0x0 DUP1 REVERT JUMPDEST POP PUSH2 0x8F5 DUP1 PUSH2 0x20 PUSH1 0x0 CODECOPY PUSH1 0x0 RETURN INVALID PUSH1 0x80 PUSH1 0x40 MSTORE PUSH1 0x4 CALLDATASIZE LT PUSH2 0x4A JUMPI PUSH1 0x0 CALLDATALOAD PUSH1 0xE0 SHR DUP1 PUSH4 0x16C05AA2 EQ PUSH2 0x4F JUMPI DUP1 PUSH4 0x55E14FE6 EQ PUSH2 0x59 JUMPI DUP1 PUSH4 0xD18A42E1 EQ PUSH2 0x96 JUMPI DUP1 PUSH4 0xF274C897 EQ PUSH2 0xD5 JUMPI DUP1 PUSH4 0xF8B2CB4F EQ PUSH2 0xFE JUMPI JUMPDEST PUSH1 0x0 DUP1 REVERT JUMPDEST PUSH2 0x57 PUSH2 0x13B JUMP JUMPDEST STOP JUMPDEST CALLVALUE DUP1 ISZERO PUSH2 0x65 JUMPI PUSH1 0x0 DUP1 REVERT JUMPDEST POP PUSH2 0x80 PUSH1 0x4 DUP1 CALLDATASIZE SUB DUP2 ADD SWAP1 PUSH2 0x7B SWAP2 SWAP1 PUSH2 0x619 JUMP JUMPDEST PUSH2 0x2B1 JUMP JUMPDEST PUSH1 0x40 MLOAD PUSH2 0x8D SWAP2 SWAP1 PUSH2 0x697 JUMP JUMPDEST PUSH1 0x40 MLOAD DUP1 SWAP2 SUB SWAP1 RETURN JUMPDEST CALLVALUE DUP1 ISZERO PUSH2 0xA2 JUMPI PUSH1 0x0 DUP1 REVERT JUMPDEST POP PUSH2 0xBD PUSH1 0x4 DUP1 CALLDATASIZE SUB DUP2 ADD SWAP1 PUSH2 0xB8 SWAP2 SWAP1 PUSH2 0x6B2 JUMP JUMPDEST PUSH2 0x332 JUMP JUMPDEST PUSH1 0x40 MLOAD PUSH2 0xCC SWAP4 SWAP3 SWAP2 SWAP1 PUSH2 0x6EE JUMP JUMPDEST PUSH1 0x40 MLOAD DUP1 SWAP2 SUB SWAP1 RETURN JUMPDEST CALLVALUE DUP1 ISZERO PUSH2 0xE1 JUMPI PUSH1 0x0 DUP1 REVERT JUMPDEST POP PUSH2 0xFC PUSH1 0x4 DUP1 CALLDATASIZE SUB DUP2 ADD SWAP1 PUSH2 0xF7 SWAP2 SWAP1 PUSH2 0x763 JUMP JUMPDEST PUSH2 0x35C JUMP JUMPDEST STOP JUMPDEST CALLVALUE DUP1 ISZERO PUSH2 0x10A JUMPI PUSH1 0x0 DUP1 REVERT JUMPDEST POP PUSH2 0x125 PUSH1 0x4 DUP1 CALLDATASIZE SUB DUP2 ADD SWAP1 PUSH2 0x120 SWAP2 SWAP1 PUSH2 0x6B2 JUMP JUMPDEST PUSH2 0x51B JUMP JUMPDEST PUSH1 0x40 MLOAD PUSH2 0x132 SWAP2 SWAP1 PUSH2 0x7A3 JUMP JUMPDEST PUSH1 0x40 MLOAD DUP1 SWAP2 SUB SWAP1 RETURN JUMPDEST CALLVALUE PUSH1 0x0 DUP1 CALLER PUSH20 0xFFFFFFFFFFFFFFFFFFFFFFFFFFFFFFFFFFFFFFFF AND PUSH20 0xFFFFFFFFFFFFFFFFFFFFFFFFFFFFFFFFFFFFFFFF AND DUP2 MSTORE PUSH1 0x20 ADD SWAP1 DUP2 MSTORE PUSH1 0x20 ADD PUSH1 0x0 KECCAK256 PUSH1 0x0 ADD PUSH1 0x0 DUP3 DUP3 SLOAD PUSH2 0x18C SWAP2 SWAP1 PUSH2 0x7ED JUMP JUMPDEST SWAP3 POP POP DUP2 SWAP1 SSTORE POP PUSH1 0x0 PUSH1 0x40 MLOAD DUP1 PUSH1 0x40 ADD PUSH1 0x40 MSTORE DUP1 CALLVALUE DUP2 MSTORE PUSH1 0x20 ADD TIMESTAMP DUP2 MSTORE POP SWAP1 POP DUP1 PUSH1 0x0 DUP1 CALLER PUSH20 0xFFFFFFFFFFFFFFFFFFFFFFFFFFFFFFFFFFFFFFFF AND PUSH20 0xFFFFFFFFFFFFFFFFFFFFFFFFFFFFFFFFFFFFFFFF AND DUP2 MSTORE PUSH1 0x20 ADD SWAP1 DUP2 MSTORE PUSH1 0x20 ADD PUSH1 0x0 KECCAK256 PUSH1 0x2 ADD PUSH1 0x0 DUP1 PUSH1 0x0 CALLER PUSH20 0xFFFFFFFFFFFFFFFFFFFFFFFFFFFFFFFFFFFFFFFF AND PUSH20 0xFFFFFFFFFFFFFFFFFFFFFFFFFFFFFFFFFFFFFFFF AND DUP2 MSTORE PUSH1 0x20 ADD SWAP1 DUP2 MSTORE PUSH1 0x20 ADD PUSH1 0x0 KECCAK256 PUSH1 0x1 ADD SLOAD DUP2 MSTORE PUSH1 0x20 ADD SWAP1 DUP2 MSTORE PUSH1 0x20 ADD PUSH1 0x0 KECCAK256 PUSH1 0x0 DUP3 ADD MLOAD DUP2 PUSH1 0x0 ADD SSTORE PUSH1 0x20 DUP3 ADD MLOAD DUP2 PUSH1 0x1 ADD SSTORE SWAP1 POP POP PUSH1 0x0 DUP1 CALLER PUSH20 0xFFFFFFFFFFFFFFFFFFFFFFFFFFFFFFFFFFFFFFFF AND PUSH20 0xFFFFFFFFFFFFFFFFFFFFFFFFFFFFFFFFFFFFFFFF AND DUP2 MSTORE PUSH1 0x20 ADD SWAP1 DUP2 MSTORE PUSH1 0x20 ADD PUSH1 0x0 KECCAK256 PUSH1 0x1 ADD PUSH1 0x0 DUP2 SLOAD DUP1 SWAP3 SWAP2 SWAP1 PUSH2 0x2A9 SWAP1 PUSH2 0x843 JUMP JUMPDEST SWAP2 SWAP1 POP SSTORE POP POP JUMP JUMPDEST PUSH2 0x2B9 PUSH2 0x566 JUMP JUMPDEST PUSH1 0x0 DUP1 DUP5 PUSH20 0xFFFFFFFFFFFFFFFFFFFFFFFFFFFFFFFFFFFFFFFF AND PUSH20 0xFFFFFFFFFFFFFFFFFFFFFFFFFFFFFFFFFFFFFFFF AND DUP2 MSTORE PUSH1 0x20 ADD SWAP1 DUP2 MSTORE PUSH1 0x20 ADD PUSH1 0x0 KECCAK256 PUSH1 0x2 ADD PUSH1 0x0 DUP4 DUP2 MSTORE PUSH1 0x20 ADD SWAP1 DUP2 MSTORE PUSH1 0x20 ADD PUSH1 0x0 KECCAK256 PUSH1 0x40 MLOAD DUP1 PUSH1 0x40 ADD PUSH1 0x40 MSTORE SWAP1 DUP2 PUSH1 0x0 DUP3 ADD SLOAD DUP2 MSTORE PUSH1 0x20 ADD PUSH1 0x1 DUP3 ADD SLOAD DUP2 MSTORE POP POP SWAP1 POP SWAP3 SWAP2 POP POP JUMP JUMPDEST PUSH1 0x0 PUSH1 0x20 MSTORE DUP1 PUSH1 0x0 MSTORE PUSH1 0x40 PUSH1 0x0 KECCAK256 PUSH1 0x0 SWAP2 POP SWAP1 POP DUP1 PUSH1 0x0 ADD SLOAD SWAP1 DUP1 PUSH1 0x1 ADD SLOAD SWAP1 DUP1 PUSH1 0x3 ADD SLOAD SWAP1 POP DUP4 JUMP JUMPDEST DUP1 PUSH1 0x0 DUP1 CALLER PUSH20 0xFFFFFFFFFFFFFFFFFFFFFFFFFFFFFFFFFFFFFFFF AND PUSH20 0xFFFFFFFFFFFFFFFFFFFFFFFFFFFFFFFFFFFFFFFF AND DUP2 MSTORE PUSH1 0x20 ADD SWAP1 DUP2 MSTORE PUSH1 0x20 ADD PUSH1 0x0 KECCAK256 PUSH1 0x0 ADD PUSH1 0x0 DUP3 DUP3 SLOAD PUSH2 0x3AD SWAP2 SWAP1 PUSH2 0x88B JUMP JUMPDEST SWAP3 POP POP DUP2 SWAP1 SSTORE POP PUSH1 0x0 PUSH1 0x40 MLOAD DUP1 PUSH1 0x40 ADD PUSH1 0x40 MSTORE DUP1 DUP4 DUP2 MSTORE PUSH1 0x20 ADD TIMESTAMP DUP2 MSTORE POP SWAP1 POP DUP1 PUSH1 0x0 DUP1 CALLER PUSH20 0xFFFFFFFFFFFFFFFFFFFFFFFFFFFFFFFFFFFFFFFF AND PUSH20 0xFFFFFFFFFFFFFFFFFFFFFFFFFFFFFFFFFFFFFFFF AND DUP2 MSTORE PUSH1 0x20 ADD SWAP1 DUP2 MSTORE PUSH1 0x20 ADD PUSH1 0x0 KECCAK256 PUSH1 0x4 ADD PUSH1 0x0 DUP1 PUSH1 0x0 CALLER PUSH20 0xFFFFFFFFFFFFFFFFFFFFFFFFFFFFFFFFFFFFFFFF AND PUSH20 0xFFFFFFFFFFFFFFFFFFFFFFFFFFFFFFFFFFFFFFFF AND DUP2 MSTORE PUSH1 0x20 ADD SWAP1 DUP2 MSTORE PUSH1 0x20 ADD PUSH1 0x0 KECCAK256 PUSH1 0x3 ADD SLOAD DUP2 MSTORE PUSH1 0x20 ADD SWAP1 DUP2 MSTORE PUSH1 0x20 ADD PUSH1 0x0 KECCAK256 PUSH1 0x0 DUP3 ADD MLOAD DUP2 PUSH1 0x0 ADD SSTORE PUSH1 0x20 DUP3 ADD MLOAD DUP2 PUSH1 0x1 ADD SSTORE SWAP1 POP POP PUSH1 0x0 DUP1 CALLER PUSH20 0xFFFFFFFFFFFFFFFFFFFFFFFFFFFFFFFFFFFFFFFF AND PUSH20 0xFFFFFFFFFFFFFFFFFFFFFFFFFFFFFFFFFFFFFFFF AND DUP2 MSTORE PUSH1 0x20 ADD SWAP1 DUP2 MSTORE PUSH1 0x20 ADD PUSH1 0x0 KECCAK256 PUSH1 0x3 ADD PUSH1 0x0 DUP2 SLOAD DUP1 SWAP3 SWAP2 SWAP1 PUSH2 0x4CA SWAP1 PUSH2 0x843 JUMP JUMPDEST SWAP2 SWAP1 POP SSTORE POP DUP3 PUSH20 0xFFFFFFFFFFFFFFFFFFFFFFFFFFFFFFFFFFFFFFFF AND PUSH2 0x8FC DUP4 SWAP1 DUP2 ISZERO MUL SWAP1 PUSH1 0x40 MLOAD PUSH1 0x0 PUSH1 0x40 MLOAD DUP1 DUP4 SUB DUP2 DUP6 DUP9 DUP9 CALL SWAP4 POP POP POP POP ISZERO DUP1 ISZERO PUSH2 0x515 JUMPI RETURNDATASIZE PUSH1 0x0 DUP1 RETURNDATACOPY RETURNDATASIZE PUSH1 0x0 REVERT JUMPDEST POP POP POP POP JUMP JUMPDEST PUSH1 0x0 DUP1 PUSH1 0x0 DUP4 PUSH20 0xFFFFFFFFFFFFFFFFFFFFFFFFFFFFFFFFFFFFFFFF AND PUSH20 0xFFFFFFFFFFFFFFFFFFFFFFFFFFFFFFFFFFFFFFFF AND DUP2 MSTORE PUSH1 0x20 ADD SWAP1 DUP2 MSTORE PUSH1 0x20 ADD PUSH1 0x0 KECCAK256 PUSH1 0x0 ADD SLOAD SWAP1 POP SWAP2 SWAP1 POP JUMP JUMPDEST PUSH1 0x40 MLOAD DUP1 PUSH1 0x40 ADD PUSH1 0x40 MSTORE DUP1 PUSH1 0x0 DUP2 MSTORE PUSH1 0x20 ADD PUSH1 0x0 DUP2 MSTORE POP SWAP1 JUMP JUMPDEST PUSH1 0x0 DUP1 REVERT JUMPDEST PUSH1 0x0 PUSH20 0xFFFFFFFFFFFFFFFFFFFFFFFFFFFFFFFFFFFFFFFF DUP3 AND SWAP1 POP SWAP2 SWAP1 POP JUMP JUMPDEST PUSH1 0x0 PUSH2 0x5B0 DUP3 PUSH2 0x585 JUMP JUMPDEST SWAP1 POP SWAP2 SWAP1 POP JUMP JUMPDEST PUSH2 0x5C0 DUP2 PUSH2 0x5A5 JUMP JUMPDEST DUP2 EQ PUSH2 0x5CB JUMPI PUSH1 0x0 DUP1 REVERT JUMPDEST POP JUMP JUMPDEST PUSH1 0x0 DUP2 CALLDATALOAD SWAP1 POP PUSH2 0x5DD DUP2 PUSH2 0x5B7 JUMP JUMPDEST SWAP3 SWAP2 POP POP JUMP JUMPDEST PUSH1 0x0 DUP2 SWAP1 POP SWAP2 SWAP1 POP JUMP JUMPDEST PUSH2 0x5F6 DUP2 PUSH2 0x5E3 JUMP JUMPDEST DUP2 EQ PUSH2 0x601 JUMPI PUSH1 0x0 DUP1 REVERT JUMPDEST POP JUMP JUMPDEST PUSH1 0x0 DUP2 CALLDATALOAD SWAP1 POP PUSH2 0x613 DUP2 PUSH2 0x5ED JUMP JUMPDEST SWAP3 SWAP2 POP POP JUMP JUMPDEST PUSH1 0x0 DUP1 PUSH1 0x40 DUP4 DUP6 SUB SLT ISZERO PUSH2 0x630 JUMPI PUSH2 0x62F PUSH2 0x580 JUMP JUMPDEST JUMPDEST PUSH1 0x0 PUSH2 0x63E DUP6 DUP3 DUP7 ADD PUSH2 0x5CE JUMP JUMPDEST SWAP3 POP POP PUSH1 0x20 PUSH2 0x64F DUP6 DUP3 DUP7 ADD PUSH2 0x604 JUMP JUMPDEST SWAP2 POP POP SWAP3 POP SWAP3 SWAP1 POP JUMP JUMPDEST PUSH2 0x662 DUP2 PUSH2 0x5E3 JUMP JUMPDEST DUP3 MSTORE POP POP JUMP JUMPDEST PUSH1 0x40 DUP3 ADD PUSH1 0x0 DUP3 ADD MLOAD PUSH2 0x67E PUSH1 0x0 DUP6 ADD DUP3 PUSH2 0x659 JUMP JUMPDEST POP PUSH1 0x20 DUP3 ADD MLOAD PUSH2 0x691 PUSH1 0x20 DUP6 ADD DUP3 PUSH2 0x659 JUMP JUMPDEST POP POP POP POP JUMP JUMPDEST PUSH1 0x0 PUSH1 0x40 DUP3 ADD SWAP1 POP PUSH2 0x6AC PUSH1 0x0 DUP4 ADD DUP5 PUSH2 0x668 JUMP JUMPDEST SWAP3 SWAP2 POP POP JUMP JUMPDEST PUSH1 0x0 PUSH1 0x20 DUP3 DUP5 SUB SLT ISZERO PUSH2 0x6C8 JUMPI PUSH2 0x6C7 PUSH2 0x580 JUMP JUMPDEST JUMPDEST PUSH1 0x0 PUSH2 0x6D6 DUP5 DUP3 DUP6 ADD PUSH2 0x5CE JUMP JUMPDEST SWAP2 POP POP SWAP3 SWAP2 POP POP JUMP JUMPDEST PUSH2 0x6E8 DUP2 PUSH2 0x5E3 JUMP JUMPDEST DUP3 MSTORE POP POP JUMP JUMPDEST PUSH1 0x0 PUSH1 0x60 DUP3 ADD SWAP1 POP PUSH2 0x703 PUSH1 0x0 DUP4 ADD DUP7 PUSH2 0x6DF JUMP JUMPDEST PUSH2 0x710 PUSH1 0x20 DUP4 ADD DUP6 PUSH2 0x6DF JUMP JUMPDEST PUSH2 0x71D PUSH1 0x40 DUP4 ADD DUP5 PUSH2 0x6DF JUMP JUMPDEST SWAP5 SWAP4 POP POP POP POP JUMP JUMPDEST PUSH1 0x0 PUSH2 0x730 DUP3 PUSH2 0x585 JUMP JUMPDEST SWAP1 POP SWAP2 SWAP1 POP JUMP JUMPDEST PUSH2 0x740 DUP2 PUSH2 0x725 JUMP JUMPDEST DUP2 EQ PUSH2 0x74B JUMPI PUSH1 0x0 DUP1 REVERT JUMPDEST POP JUMP JUMPDEST PUSH1 0x0 DUP2 CALLDATALOAD SWAP1 POP PUSH2 0x75D DUP2 PUSH2 0x737 JUMP JUMPDEST SWAP3 SWAP2 POP POP JUMP JUMPDEST PUSH1 0x0 DUP1 PUSH1 0x40 DUP4 DUP6 SUB SLT ISZERO PUSH2 0x77A JUMPI PUSH2 0x779 PUSH2 0x580 JUMP JUMPDEST JUMPDEST PUSH1 0x0 PUSH2 0x788 DUP6 DUP3 DUP7 ADD PUSH2 0x74E JUMP JUMPDEST SWAP3 POP POP PUSH1 0x20 PUSH2 0x799 DUP6 DUP3 DUP7 ADD PUSH2 0x604 JUMP JUMPDEST SWAP2 POP POP SWAP3 POP SWAP3 SWAP1 POP JUMP JUMPDEST PUSH1 0x0 PUSH1 0x20 DUP3 ADD SWAP1 POP PUSH2 0x7B8 PUSH1 0x0 DUP4 ADD DUP5 PUSH2 0x6DF JUMP JUMPDEST SWAP3 SWAP2 POP POP JUMP JUMPDEST PUSH32 0x4E487B7100000000000000000000000000000000000000000000000000000000 PUSH1 0x0 MSTORE PUSH1 0x11 PUSH1 0x4 MSTORE PUSH1 0x24 PUSH1 0x0 REVERT JUMPDEST PUSH1 0x0 PUSH2 0x7F8 DUP3 PUSH2 0x5E3 JUMP JUMPDEST SWAP2 POP PUSH2 0x803 DUP4 PUSH2 0x5E3 JUMP JUMPDEST SWAP3 POP DUP3 PUSH32 0xFFFFFFFFFFFFFFFFFFFFFFFFFFFFFFFFFFFFFFFFFFFFFFFFFFFFFFFFFFFFFFFF SUB DUP3 GT ISZERO PUSH2 0x838 JUMPI PUSH2 0x837 PUSH2 0x7BE JUMP JUMPDEST JUMPDEST DUP3 DUP3 ADD SWAP1 POP SWAP3 SWAP2 POP POP JUMP JUMPDEST PUSH1 0x0 PUSH2 0x84E DUP3 PUSH2 0x5E3 JUMP JUMPDEST SWAP2 POP PUSH32 0xFFFFFFFFFFFFFFFFFFFFFFFFFFFFFFFFFFFFFFFFFFFFFFFFFFFFFFFFFFFFFFFF DUP3 SUB PUSH2 0x880 JUMPI PUSH2 0x87F PUSH2 0x7BE JUMP JUMPDEST JUMPDEST PUSH1 0x1 DUP3 ADD SWAP1 POP SWAP2 SWAP1 POP JUMP JUMPDEST PUSH1 0x0 PUSH2 0x896 DUP3 PUSH2 0x5E3 JUMP JUMPDEST SWAP2 POP PUSH2 0x8A1 DUP4 PUSH2 0x5E3 JUMP JUMPDEST SWAP3 POP DUP3 DUP3 LT ISZERO PUSH2 0x8B4 JUMPI PUSH2 0x8B3 PUSH2 0x7BE JUMP JUMPDEST JUMPDEST DUP3 DUP3 SUB SWAP1 POP SWAP3 SWAP2 POP POP JUMP INVALID LOG2 PUSH5 0x6970667358 0x22 SLT KECCAK256 0xBB POP 0x4A PUSH30 0xD354BEEA2BA02C45603E69CF953199903350D8530F559A7E351787AC6473 PUSH16 0x6C634300080E00330000000000000000 "
				},
				"gasEstimates": {
					"creation": {
						"codeDepositCost": "458600",
						"executionCost": "493",
						"totalCost": "459093"
					},
					"external": {
						"balanceReceived(address)": "infinite",
						"depositMoney()": "infinite",
						"getBalance(address)": "2913",
						"getDepositNum(address,uint256)": "infinite",
						"withdrawMoney(address,uint256)": "infinite"
					}
				},
				"methodIdentifiers": {
					"balanceReceived(address)": "d18a42e1",
					"depositMoney()": "16c05aa2",
					"getBalance(address)": "f8b2cb4f",
					"getDepositNum(address,uint256)": "55e14fe6",
					"withdrawMoney(address,uint256)": "f274c897"
				}
			},
			"storageLayout": {
				"storage": [
					{
						"astId": 28,
						"contract": "contracts/WalletMappingsStructAndMapping.sol:WalletMappingsStructAndMapping",
						"label": "balanceReceived",
						"offset": 0,
						"slot": "0",
						"type": "t_mapping(t_address,t_struct(Balance)23_storage)"
					}
				],
				"types": {
					"t_address": {
						"encoding": "inplace",
						"label": "address",
						"numberOfBytes": "20"
					},
					"t_mapping(t_address,t_struct(Balance)23_storage)": {
						"encoding": "mapping",
						"key": "t_address",
						"label": "mapping(address => struct WalletMappingsStructAndMapping.Balance)",
						"numberOfBytes": "32",
						"value": "t_struct(Balance)23_storage"
					},
					"t_mapping(t_uint256,t_struct(Transaction)6_storage)": {
						"encoding": "mapping",
						"key": "t_uint256",
						"label": "mapping(uint256 => struct WalletMappingsStructAndMapping.Transaction)",
						"numberOfBytes": "32",
						"value": "t_struct(Transaction)6_storage"
					},
					"t_struct(Balance)23_storage": {
						"encoding": "inplace",
						"label": "struct WalletMappingsStructAndMapping.Balance",
						"members": [
							{
								"astId": 8,
								"contract": "contracts/WalletMappingsStructAndMapping.sol:WalletMappingsStructAndMapping",
								"label": "totalBalance",
								"offset": 0,
								"slot": "0",
								"type": "t_uint256"
							},
							{
								"astId": 10,
								"contract": "contracts/WalletMappingsStructAndMapping.sol:WalletMappingsStructAndMapping",
								"label": "numDeposits",
								"offset": 0,
								"slot": "1",
								"type": "t_uint256"
							},
							{
								"astId": 15,
								"contract": "contracts/WalletMappingsStructAndMapping.sol:WalletMappingsStructAndMapping",
								"label": "deposits",
								"offset": 0,
								"slot": "2",
								"type": "t_mapping(t_uint256,t_struct(Transaction)6_storage)"
							},
							{
								"astId": 17,
								"contract": "contracts/WalletMappingsStructAndMapping.sol:WalletMappingsStructAndMapping",
								"label": "numWithdrawals",
								"offset": 0,
								"slot": "3",
								"type": "t_uint256"
							},
							{
								"astId": 22,
								"contract": "contracts/WalletMappingsStructAndMapping.sol:WalletMappingsStructAndMapping",
								"label": "withdrawals",
								"offset": 0,
								"slot": "4",
								"type": "t_mapping(t_uint256,t_struct(Transaction)6_storage)"
							}
						],
						"numberOfBytes": "160"
					},
					"t_struct(Transaction)6_storage": {
						"encoding": "inplace",
						"label": "struct WalletMappingsStructAndMapping.Transaction",
						"members": [
							{
								"astId": 3,
								"contract": "contracts/WalletMappingsStructAndMapping.sol:WalletMappingsStructAndMapping",
								"label": "amount",
								"offset": 0,
								"slot": "0",
								"type": "t_uint256"
							},
							{
								"astId": 5,
								"contract": "contracts/WalletMappingsStructAndMapping.sol:WalletMappingsStructAndMapping",
								"label": "timestamp",
								"offset": 0,
								"slot": "1",
								"type": "t_uint256"
							}
						],
						"numberOfBytes": "64"
					},
					"t_uint256": {
						"encoding": "inplace",
						"label": "uint256",
						"numberOfBytes": "32"
					}
				}
			},
			"userdoc": {
				"kind": "user",
				"methods": {},
				"version": 1
			}
		}
	}
}