{
	"contracts/SampleWallet.sol": {
		"SampleWallet": {
			"abi": [
				{
					"inputs": [],
					"stateMutability": "nonpayable",
					"type": "constructor"
				},
				{
					"inputs": [
						{
							"internalType": "address",
							"name": "",
							"type": "address"
						}
					],
					"name": "allowance",
					"outputs": [
						{
							"internalType": "uint256",
							"name": "",
							"type": "uint256"
						}
					],
					"stateMutability": "view",
					"type": "function"
				},
				{
					"inputs": [],
					"name": "confirmationsFromGuardiansForReset",
					"outputs": [
						{
							"internalType": "uint256",
							"name": "",
							"type": "uint256"
						}
					],
					"stateMutability": "view",
					"type": "function"
				},
				{
					"inputs": [
						{
							"internalType": "address",
							"name": "_from",
							"type": "address"
						}
					],
					"name": "denySending",
					"outputs": [],
					"stateMutability": "nonpayable",
					"type": "function"
				},
				{
					"inputs": [
						{
							"internalType": "address",
							"name": "",
							"type": "address"
						}
					],
					"name": "guardian",
					"outputs": [
						{
							"internalType": "bool",
							"name": "",
							"type": "bool"
						}
					],
					"stateMutability": "view",
					"type": "function"
				},
				{
					"inputs": [
						{
							"internalType": "address",
							"name": "",
							"type": "address"
						}
					],
					"name": "isAllowedToSend",
					"outputs": [
						{
							"internalType": "bool",
							"name": "",
							"type": "bool"
						}
					],
					"stateMutability": "view",
					"type": "function"
				},
				{
					"inputs": [],
					"name": "owner",
					"outputs": [
						{
							"internalType": "address payable",
							"name": "",
							"type": "address"
						}
					],
					"stateMutability": "view",
					"type": "function"
				},
				{
					"inputs": [
						{
							"internalType": "address payable",
							"name": "newOwner",
							"type": "address"
						}
					],
					"name": "proposeNewOwner",
					"outputs": [],
					"stateMutability": "nonpayable",
					"type": "function"
				},
				{
					"inputs": [
						{
							"internalType": "address",
							"name": "_from",
							"type": "address"
						},
						{
							"internalType": "uint256",
							"name": "_amount",
							"type": "uint256"
						}
					],
					"name": "setAllowance",
					"outputs": [],
					"stateMutability": "nonpayable",
					"type": "function"
				},
				{
					"inputs": [
						{
							"internalType": "address payable",
							"name": "_to",
							"type": "address"
						},
						{
							"internalType": "uint256",
							"name": "_amount",
							"type": "uint256"
						},
						{
							"internalType": "bytes",
							"name": "payload",
							"type": "bytes"
						}
					],
					"name": "transfer",
					"outputs": [
						{
							"internalType": "bytes",
							"name": "",
							"type": "bytes"
						}
					],
					"stateMutability": "nonpayable",
					"type": "function"
				},
				{
					"stateMutability": "payable",
					"type": "receive"
				}
			],
			"devdoc": {
				"kind": "dev",
				"methods": {},
				"version": 1
			},
			"evm": {
				"assembly": "    /* \"contracts/SampleWallet.sol\":60:2106  contract SampleWallet {... */\n  mstore(0x40, 0x80)\n    /* \"contracts/SampleWallet.sol\":408:468  constructor() {... */\n  callvalue\n  dup1\n  iszero\n  tag_1\n  jumpi\n  0x00\n  dup1\n  revert\ntag_1:\n  pop\n    /* \"contracts/SampleWallet.sol\":449:459  msg.sender */\n  caller\n    /* \"contracts/SampleWallet.sol\":433:438  owner */\n  0x00\n  dup1\n    /* \"contracts/SampleWallet.sol\":433:460  owner = payable(msg.sender) */\n  0x0100\n  exp\n  dup2\n  sload\n  dup2\n  0xffffffffffffffffffffffffffffffffffffffff\n  mul\n  not\n  and\n  swap1\n  dup4\n  0xffffffffffffffffffffffffffffffffffffffff\n  and\n  mul\n  or\n  swap1\n  sstore\n  pop\n    /* \"contracts/SampleWallet.sol\":60:2106  contract SampleWallet {... */\n  dataSize(sub_0)\n  dup1\n  dataOffset(sub_0)\n  0x00\n  codecopy\n  0x00\n  return\nstop\n\nsub_0: assembly {\n        /* \"contracts/SampleWallet.sol\":60:2106  contract SampleWallet {... */\n      mstore(0x40, 0x80)\n      jumpi(tag_1, lt(calldatasize, 0x04))\n      shr(0xe0, calldataload(0x00))\n      dup1\n      0x83012be1\n      gt\n      tag_12\n      jumpi\n      dup1\n      0x83012be1\n      eq\n      tag_7\n      jumpi\n      dup1\n      0x8da5cb5b\n      eq\n      tag_8\n      jumpi\n      dup1\n      0xb1f8100d\n      eq\n      tag_9\n      jumpi\n      dup1\n      0xbe45fd62\n      eq\n      tag_10\n      jumpi\n      dup1\n      0xf29e2236\n      eq\n      tag_11\n      jumpi\n      jump(tag_2)\n    tag_12:\n      dup1\n      0x0bc605ad\n      eq\n      tag_3\n      jumpi\n      dup1\n      0x310ec4a7\n      eq\n      tag_4\n      jumpi\n      dup1\n      0x3e5beab9\n      eq\n      tag_5\n      jumpi\n      dup1\n      0x7673de53\n      eq\n      tag_6\n      jumpi\n      jump(tag_2)\n    tag_1:\n      jumpi(tag_2, calldatasize)\n      stop\n    tag_2:\n      0x00\n      dup1\n      revert\n        /* \"contracts/SampleWallet.sol\":174:221  mapping(address => bool) public isAllowedToSend */\n    tag_3:\n      callvalue\n      dup1\n      iszero\n      tag_15\n      jumpi\n      0x00\n      dup1\n      revert\n    tag_15:\n      pop\n      tag_16\n      0x04\n      dup1\n      calldatasize\n      sub\n      dup2\n      add\n      swap1\n      tag_17\n      swap2\n      swap1\n      tag_18\n      jump\t// in\n    tag_17:\n      tag_19\n      jump\t// in\n    tag_16:\n      mload(0x40)\n      tag_20\n      swap2\n      swap1\n      tag_21\n      jump\t// in\n    tag_20:\n      mload(0x40)\n      dup1\n      swap2\n      sub\n      swap1\n      return\n        /* \"contracts/SampleWallet.sol\":942:1160  function setAllowance(address _from, uint _amount) public {... */\n    tag_4:\n      callvalue\n      dup1\n      iszero\n      tag_22\n      jumpi\n      0x00\n      dup1\n      revert\n    tag_22:\n      pop\n      tag_23\n      0x04\n      dup1\n      calldatasize\n      sub\n      dup2\n      add\n      swap1\n      tag_24\n      swap2\n      swap1\n      tag_25\n      jump\t// in\n    tag_24:\n      tag_26\n      jump\t// in\n    tag_23:\n      stop\n        /* \"contracts/SampleWallet.sol\":126:167  mapping(address => uint) public allowance */\n    tag_5:\n      callvalue\n      dup1\n      iszero\n      tag_27\n      jumpi\n      0x00\n      dup1\n      revert\n    tag_27:\n      pop\n      tag_28\n      0x04\n      dup1\n      calldatasize\n      sub\n      dup2\n      add\n      swap1\n      tag_29\n      swap2\n      swap1\n      tag_18\n      jump\t// in\n    tag_29:\n      tag_30\n      jump\t// in\n    tag_28:\n      mload(0x40)\n      tag_31\n      swap2\n      swap1\n      tag_32\n      jump\t// in\n    tag_31:\n      mload(0x40)\n      dup1\n      swap2\n      sub\n      swap1\n      return\n        /* \"contracts/SampleWallet.sol\":1168:1335  function denySending(address _from) public {... */\n    tag_6:\n      callvalue\n      dup1\n      iszero\n      tag_33\n      jumpi\n      0x00\n      dup1\n      revert\n    tag_33:\n      pop\n      tag_34\n      0x04\n      dup1\n      calldatasize\n      sub\n      dup2\n      add\n      swap1\n      tag_35\n      swap2\n      swap1\n      tag_18\n      jump\t// in\n    tag_35:\n      tag_36\n      jump\t// in\n    tag_34:\n      stop\n        /* \"contracts/SampleWallet.sol\":340:399  uint public constant confirmationsFromGuardiansForReset = 3 */\n    tag_7:\n      callvalue\n      dup1\n      iszero\n      tag_37\n      jumpi\n      0x00\n      dup1\n      revert\n    tag_37:\n      pop\n      tag_38\n      tag_39\n      jump\t// in\n    tag_38:\n      mload(0x40)\n      tag_40\n      swap2\n      swap1\n      tag_32\n      jump\t// in\n    tag_40:\n      mload(0x40)\n      dup1\n      swap2\n      sub\n      swap1\n      return\n        /* \"contracts/SampleWallet.sol\":89:117  address payable public owner */\n    tag_8:\n      callvalue\n      dup1\n      iszero\n      tag_41\n      jumpi\n      0x00\n      dup1\n      revert\n    tag_41:\n      pop\n      tag_42\n      tag_43\n      jump\t// in\n    tag_42:\n      mload(0x40)\n      tag_44\n      swap2\n      swap1\n      tag_45\n      jump\t// in\n    tag_44:\n      mload(0x40)\n      dup1\n      swap2\n      sub\n      swap1\n      return\n        /* \"contracts/SampleWallet.sol\":476:934  function proposeNewOwner(address payable newOwner) public {... */\n    tag_9:\n      callvalue\n      dup1\n      iszero\n      tag_46\n      jumpi\n      0x00\n      dup1\n      revert\n    tag_46:\n      pop\n      tag_47\n      0x04\n      dup1\n      calldatasize\n      sub\n      dup2\n      add\n      swap1\n      tag_48\n      swap2\n      swap1\n      tag_49\n      jump\t// in\n    tag_48:\n      tag_50\n      jump\t// in\n    tag_47:\n      stop\n        /* \"contracts/SampleWallet.sol\":1343:2066  function transfer(address payable _to, uint _amount, bytes memory payload) public returns (bytes memory) {... */\n    tag_10:\n      callvalue\n      dup1\n      iszero\n      tag_51\n      jumpi\n      0x00\n      dup1\n      revert\n    tag_51:\n      pop\n      tag_52\n      0x04\n      dup1\n      calldatasize\n      sub\n      dup2\n      add\n      swap1\n      tag_53\n      swap2\n      swap1\n      tag_54\n      jump\t// in\n    tag_53:\n      tag_55\n      jump\t// in\n    tag_52:\n      mload(0x40)\n      tag_56\n      swap2\n      swap1\n      tag_57\n      jump\t// in\n    tag_56:\n      mload(0x40)\n      dup1\n      swap2\n      sub\n      swap1\n      return\n        /* \"contracts/SampleWallet.sol\":230:270  mapping(address => bool) public guardian */\n    tag_11:\n      callvalue\n      dup1\n      iszero\n      tag_58\n      jumpi\n      0x00\n      dup1\n      revert\n    tag_58:\n      pop\n      tag_59\n      0x04\n      dup1\n      calldatasize\n      sub\n      dup2\n      add\n      swap1\n      tag_60\n      swap2\n      swap1\n      tag_18\n      jump\t// in\n    tag_60:\n      tag_61\n      jump\t// in\n    tag_59:\n      mload(0x40)\n      tag_62\n      swap2\n      swap1\n      tag_21\n      jump\t// in\n    tag_62:\n      mload(0x40)\n      dup1\n      swap2\n      sub\n      swap1\n      return\n        /* \"contracts/SampleWallet.sol\":174:221  mapping(address => bool) public isAllowedToSend */\n    tag_19:\n      mstore(0x20, 0x02)\n      dup1\n      0x00\n      mstore\n      keccak256(0x00, 0x40)\n      0x00\n      swap2\n      pop\n      sload\n      swap1\n      0x0100\n      exp\n      swap1\n      div\n      0xff\n      and\n      dup2\n      jump\t// out\n        /* \"contracts/SampleWallet.sol\":942:1160  function setAllowance(address _from, uint _amount) public {... */\n    tag_26:\n        /* \"contracts/SampleWallet.sol\":1033:1038  owner */\n      0x00\n      dup1\n      sload\n      swap1\n      0x0100\n      exp\n      swap1\n      div\n      0xffffffffffffffffffffffffffffffffffffffff\n      and\n        /* \"contracts/SampleWallet.sol\":1019:1038  msg.sender == owner */\n      0xffffffffffffffffffffffffffffffffffffffff\n      and\n        /* \"contracts/SampleWallet.sol\":1019:1029  msg.sender */\n      caller\n        /* \"contracts/SampleWallet.sol\":1019:1038  msg.sender == owner */\n      0xffffffffffffffffffffffffffffffffffffffff\n      and\n      eq\n        /* \"contracts/SampleWallet.sol\":1011:1075  require(msg.sender == owner, \"You are not the owner, aborting!\") */\n      tag_64\n      jumpi\n      mload(0x40)\n      0x08c379a000000000000000000000000000000000000000000000000000000000\n      dup2\n      mstore\n      0x04\n      add\n      tag_65\n      swap1\n      tag_66\n      jump\t// in\n    tag_65:\n      mload(0x40)\n      dup1\n      swap2\n      sub\n      swap1\n      revert\n    tag_64:\n        /* \"contracts/SampleWallet.sol\":1105:1112  _amount */\n      dup1\n        /* \"contracts/SampleWallet.sol\":1086:1095  allowance */\n      0x01\n        /* \"contracts/SampleWallet.sol\":1086:1102  allowance[_from] */\n      0x00\n        /* \"contracts/SampleWallet.sol\":1096:1101  _from */\n      dup5\n        /* \"contracts/SampleWallet.sol\":1086:1102  allowance[_from] */\n      0xffffffffffffffffffffffffffffffffffffffff\n      and\n      0xffffffffffffffffffffffffffffffffffffffff\n      and\n      dup2\n      mstore\n      0x20\n      add\n      swap1\n      dup2\n      mstore\n      0x20\n      add\n      0x00\n      keccak256\n        /* \"contracts/SampleWallet.sol\":1086:1112  allowance[_from] = _amount */\n      dup2\n      swap1\n      sstore\n      pop\n        /* \"contracts/SampleWallet.sol\":1148:1152  true */\n      0x01\n        /* \"contracts/SampleWallet.sol\":1123:1138  isAllowedToSend */\n      0x02\n        /* \"contracts/SampleWallet.sol\":1123:1145  isAllowedToSend[_from] */\n      0x00\n        /* \"contracts/SampleWallet.sol\":1139:1144  _from */\n      dup5\n        /* \"contracts/SampleWallet.sol\":1123:1145  isAllowedToSend[_from] */\n      0xffffffffffffffffffffffffffffffffffffffff\n      and\n      0xffffffffffffffffffffffffffffffffffffffff\n      and\n      dup2\n      mstore\n      0x20\n      add\n      swap1\n      dup2\n      mstore\n      0x20\n      add\n      0x00\n      keccak256\n      0x00\n        /* \"contracts/SampleWallet.sol\":1123:1152  isAllowedToSend[_from] = true */\n      0x0100\n      exp\n      dup2\n      sload\n      dup2\n      0xff\n      mul\n      not\n      and\n      swap1\n      dup4\n      iszero\n      iszero\n      mul\n      or\n      swap1\n      sstore\n      pop\n        /* \"contracts/SampleWallet.sol\":942:1160  function setAllowance(address _from, uint _amount) public {... */\n      pop\n      pop\n      jump\t// out\n        /* \"contracts/SampleWallet.sol\":126:167  mapping(address => uint) public allowance */\n    tag_30:\n      mstore(0x20, 0x01)\n      dup1\n      0x00\n      mstore\n      keccak256(0x00, 0x40)\n      0x00\n      swap2\n      pop\n      swap1\n      pop\n      sload\n      dup2\n      jump\t// out\n        /* \"contracts/SampleWallet.sol\":1168:1335  function denySending(address _from) public {... */\n    tag_36:\n        /* \"contracts/SampleWallet.sol\":1244:1249  owner */\n      0x00\n      dup1\n      sload\n      swap1\n      0x0100\n      exp\n      swap1\n      div\n      0xffffffffffffffffffffffffffffffffffffffff\n      and\n        /* \"contracts/SampleWallet.sol\":1230:1249  msg.sender == owner */\n      0xffffffffffffffffffffffffffffffffffffffff\n      and\n        /* \"contracts/SampleWallet.sol\":1230:1240  msg.sender */\n      caller\n        /* \"contracts/SampleWallet.sol\":1230:1249  msg.sender == owner */\n      0xffffffffffffffffffffffffffffffffffffffff\n      and\n      eq\n        /* \"contracts/SampleWallet.sol\":1222:1286  require(msg.sender == owner, \"You are not the owner, aborting!\") */\n      tag_68\n      jumpi\n      mload(0x40)\n      0x08c379a000000000000000000000000000000000000000000000000000000000\n      dup2\n      mstore\n      0x04\n      add\n      tag_69\n      swap1\n      tag_66\n      jump\t// in\n    tag_69:\n      mload(0x40)\n      dup1\n      swap2\n      sub\n      swap1\n      revert\n    tag_68:\n        /* \"contracts/SampleWallet.sol\":1322:1327  false */\n      0x00\n        /* \"contracts/SampleWallet.sol\":1297:1312  isAllowedToSend */\n      0x02\n        /* \"contracts/SampleWallet.sol\":1297:1319  isAllowedToSend[_from] */\n      0x00\n        /* \"contracts/SampleWallet.sol\":1313:1318  _from */\n      dup4\n        /* \"contracts/SampleWallet.sol\":1297:1319  isAllowedToSend[_from] */\n      0xffffffffffffffffffffffffffffffffffffffff\n      and\n      0xffffffffffffffffffffffffffffffffffffffff\n      and\n      dup2\n      mstore\n      0x20\n      add\n      swap1\n      dup2\n      mstore\n      0x20\n      add\n      0x00\n      keccak256\n      0x00\n        /* \"contracts/SampleWallet.sol\":1297:1327  isAllowedToSend[_from] = false */\n      0x0100\n      exp\n      dup2\n      sload\n      dup2\n      0xff\n      mul\n      not\n      and\n      swap1\n      dup4\n      iszero\n      iszero\n      mul\n      or\n      swap1\n      sstore\n      pop\n        /* \"contracts/SampleWallet.sol\":1168:1335  function denySending(address _from) public {... */\n      pop\n      jump\t// out\n        /* \"contracts/SampleWallet.sol\":340:399  uint public constant confirmationsFromGuardiansForReset = 3 */\n    tag_39:\n        /* \"contracts/SampleWallet.sol\":398:399  3 */\n      0x03\n        /* \"contracts/SampleWallet.sol\":340:399  uint public constant confirmationsFromGuardiansForReset = 3 */\n      dup2\n      jump\t// out\n        /* \"contracts/SampleWallet.sol\":89:117  address payable public owner */\n    tag_43:\n      0x00\n      dup1\n      sload\n      swap1\n      0x0100\n      exp\n      swap1\n      div\n      0xffffffffffffffffffffffffffffffffffffffff\n      and\n      dup2\n      jump\t// out\n        /* \"contracts/SampleWallet.sol\":476:934  function proposeNewOwner(address payable newOwner) public {... */\n    tag_50:\n        /* \"contracts/SampleWallet.sol\":553:561  guardian */\n      0x03\n        /* \"contracts/SampleWallet.sol\":553:573  guardian[msg.sender] */\n      0x00\n        /* \"contracts/SampleWallet.sol\":562:572  msg.sender */\n      caller\n        /* \"contracts/SampleWallet.sol\":553:573  guardian[msg.sender] */\n      0xffffffffffffffffffffffffffffffffffffffff\n      and\n      0xffffffffffffffffffffffffffffffffffffffff\n      and\n      dup2\n      mstore\n      0x20\n      add\n      swap1\n      dup2\n      mstore\n      0x20\n      add\n      0x00\n      keccak256\n      0x00\n      swap1\n      sload\n      swap1\n      0x0100\n      exp\n      swap1\n      div\n      0xff\n      and\n        /* \"contracts/SampleWallet.sol\":545:607  require(guardian[msg.sender], \"You are no guardian, aborting\") */\n      tag_71\n      jumpi\n      mload(0x40)\n      0x08c379a000000000000000000000000000000000000000000000000000000000\n      dup2\n      mstore\n      0x04\n      add\n      tag_72\n      swap1\n      tag_73\n      jump\t// in\n    tag_72:\n      mload(0x40)\n      dup1\n      swap2\n      sub\n      swap1\n      revert\n    tag_71:\n        /* \"contracts/SampleWallet.sol\":634:642  newOwner */\n      dup1\n        /* \"contracts/SampleWallet.sol\":621:642  nextOwner != newOwner */\n      0xffffffffffffffffffffffffffffffffffffffff\n      and\n        /* \"contracts/SampleWallet.sol\":621:630  nextOwner */\n      0x04\n      0x00\n      swap1\n      sload\n      swap1\n      0x0100\n      exp\n      swap1\n      div\n      0xffffffffffffffffffffffffffffffffffffffff\n      and\n        /* \"contracts/SampleWallet.sol\":621:642  nextOwner != newOwner */\n      0xffffffffffffffffffffffffffffffffffffffff\n      and\n      eq\n        /* \"contracts/SampleWallet.sol\":618:729  if(nextOwner != newOwner) {... */\n      tag_74\n      jumpi\n        /* \"contracts/SampleWallet.sol\":671:679  newOwner */\n      dup1\n        /* \"contracts/SampleWallet.sol\":659:668  nextOwner */\n      0x04\n      0x00\n        /* \"contracts/SampleWallet.sol\":659:679  nextOwner = newOwner */\n      0x0100\n      exp\n      dup2\n      sload\n      dup2\n      0xffffffffffffffffffffffffffffffffffffffff\n      mul\n      not\n      and\n      swap1\n      dup4\n      0xffffffffffffffffffffffffffffffffffffffff\n      and\n      mul\n      or\n      swap1\n      sstore\n      pop\n        /* \"contracts/SampleWallet.sol\":716:717  0 */\n      0x00\n        /* \"contracts/SampleWallet.sol\":694:713  guardiansResetCount */\n      0x05\n        /* \"contracts/SampleWallet.sol\":694:717  guardiansResetCount = 0 */\n      dup2\n      swap1\n      sstore\n      pop\n        /* \"contracts/SampleWallet.sol\":618:729  if(nextOwner != newOwner) {... */\n    tag_74:\n        /* \"contracts/SampleWallet.sol\":741:760  guardiansResetCount */\n      0x05\n      0x00\n        /* \"contracts/SampleWallet.sol\":741:762  guardiansResetCount++ */\n      dup2\n      sload\n      dup1\n      swap3\n      swap2\n      swap1\n      tag_75\n      swap1\n      tag_76\n      jump\t// in\n    tag_75:\n      swap2\n      swap1\n      pop\n      sstore\n      pop\n        /* \"contracts/SampleWallet.sol\":398:399  3 */\n      0x03\n        /* \"contracts/SampleWallet.sol\":778:797  guardiansResetCount */\n      sload(0x05)\n        /* \"contracts/SampleWallet.sol\":778:835  guardiansResetCount >= confirmationsFromGuardiansForReset */\n      lt\n        /* \"contracts/SampleWallet.sol\":775:927  if(guardiansResetCount >= confirmationsFromGuardiansForReset) {... */\n      tag_77\n      jumpi\n        /* \"contracts/SampleWallet.sol\":860:869  nextOwner */\n      0x04\n      0x00\n      swap1\n      sload\n      swap1\n      0x0100\n      exp\n      swap1\n      div\n      0xffffffffffffffffffffffffffffffffffffffff\n      and\n        /* \"contracts/SampleWallet.sol\":852:857  owner */\n      0x00\n      dup1\n        /* \"contracts/SampleWallet.sol\":852:869  owner = nextOwner */\n      0x0100\n      exp\n      dup2\n      sload\n      dup2\n      0xffffffffffffffffffffffffffffffffffffffff\n      mul\n      not\n      and\n      swap1\n      dup4\n      0xffffffffffffffffffffffffffffffffffffffff\n      and\n      mul\n      or\n      swap1\n      sstore\n      pop\n        /* \"contracts/SampleWallet.sol\":912:913  0 */\n      0x00\n        /* \"contracts/SampleWallet.sol\":884:893  nextOwner */\n      0x04\n      0x00\n        /* \"contracts/SampleWallet.sol\":884:915  nextOwner = payable(address(0)) */\n      0x0100\n      exp\n      dup2\n      sload\n      dup2\n      0xffffffffffffffffffffffffffffffffffffffff\n      mul\n      not\n      and\n      swap1\n      dup4\n      0xffffffffffffffffffffffffffffffffffffffff\n      and\n      mul\n      or\n      swap1\n      sstore\n      pop\n        /* \"contracts/SampleWallet.sol\":775:927  if(guardiansResetCount >= confirmationsFromGuardiansForReset) {... */\n    tag_77:\n        /* \"contracts/SampleWallet.sol\":476:934  function proposeNewOwner(address payable newOwner) public {... */\n      pop\n      jump\t// out\n        /* \"contracts/SampleWallet.sol\":1343:2066  function transfer(address payable _to, uint _amount, bytes memory payload) public returns (bytes memory) {... */\n    tag_55:\n        /* \"contracts/SampleWallet.sol\":1434:1446  bytes memory */\n      0x60\n        /* \"contracts/SampleWallet.sol\":1478:1499  address(this).balance */\n      selfbalance\n        /* \"contracts/SampleWallet.sol\":1467:1474  _amount */\n      dup4\n        /* \"contracts/SampleWallet.sol\":1467:1499  _amount <= address(this).balance */\n      gt\n      iszero\n        /* \"contracts/SampleWallet.sol\":1459:1553  require(_amount <= address(this).balance, \"Can't send more than the contract owns, aborting.\") */\n      tag_79\n      jumpi\n      mload(0x40)\n      0x08c379a000000000000000000000000000000000000000000000000000000000\n      dup2\n      mstore\n      0x04\n      add\n      tag_80\n      swap1\n      tag_81\n      jump\t// in\n    tag_80:\n      mload(0x40)\n      dup1\n      swap2\n      sub\n      swap1\n      revert\n    tag_79:\n        /* \"contracts/SampleWallet.sol\":1581:1586  owner */\n      0x00\n      dup1\n      sload\n      swap1\n      0x0100\n      exp\n      swap1\n      div\n      0xffffffffffffffffffffffffffffffffffffffff\n      and\n        /* \"contracts/SampleWallet.sol\":1567:1586  msg.sender != owner */\n      0xffffffffffffffffffffffffffffffffffffffff\n      and\n        /* \"contracts/SampleWallet.sol\":1567:1577  msg.sender */\n      caller\n        /* \"contracts/SampleWallet.sol\":1567:1586  msg.sender != owner */\n      0xffffffffffffffffffffffffffffffffffffffff\n      and\n      eq\n        /* \"contracts/SampleWallet.sol\":1564:1876  if(msg.sender != owner){... */\n      tag_82\n      jumpi\n        /* \"contracts/SampleWallet.sol\":1610:1625  isAllowedToSend */\n      0x02\n        /* \"contracts/SampleWallet.sol\":1610:1637  isAllowedToSend[msg.sender] */\n      0x00\n        /* \"contracts/SampleWallet.sol\":1626:1636  msg.sender */\n      caller\n        /* \"contracts/SampleWallet.sol\":1610:1637  isAllowedToSend[msg.sender] */\n      0xffffffffffffffffffffffffffffffffffffffff\n      and\n      0xffffffffffffffffffffffffffffffffffffffff\n      and\n      dup2\n      mstore\n      0x20\n      add\n      swap1\n      dup2\n      mstore\n      0x20\n      add\n      0x00\n      keccak256\n      0x00\n      swap1\n      sload\n      swap1\n      0x0100\n      exp\n      swap1\n      div\n      0xff\n      and\n        /* \"contracts/SampleWallet.sol\":1602:1696  require(isAllowedToSend[msg.sender], \"You are not allowed to send any transactions, aborting\") */\n      tag_83\n      jumpi\n      mload(0x40)\n      0x08c379a000000000000000000000000000000000000000000000000000000000\n      dup2\n      mstore\n      0x04\n      add\n      tag_84\n      swap1\n      tag_85\n      jump\t// in\n    tag_84:\n      mload(0x40)\n      dup1\n      swap2\n      sub\n      swap1\n      revert\n    tag_83:\n        /* \"contracts/SampleWallet.sol\":1744:1751  _amount */\n      dup3\n        /* \"contracts/SampleWallet.sol\":1719:1728  allowance */\n      0x01\n        /* \"contracts/SampleWallet.sol\":1719:1740  allowance[msg.sender] */\n      0x00\n        /* \"contracts/SampleWallet.sol\":1729:1739  msg.sender */\n      caller\n        /* \"contracts/SampleWallet.sol\":1719:1740  allowance[msg.sender] */\n      0xffffffffffffffffffffffffffffffffffffffff\n      and\n      0xffffffffffffffffffffffffffffffffffffffff\n      and\n      dup2\n      mstore\n      0x20\n      add\n      swap1\n      dup2\n      mstore\n      0x20\n      add\n      0x00\n      keccak256\n      sload\n        /* \"contracts/SampleWallet.sol\":1719:1751  allowance[msg.sender] >= _amount */\n      lt\n      iszero\n        /* \"contracts/SampleWallet.sol\":1711:1817  require(allowance[msg.sender] >= _amount, \"You are trying to send more than you are allowed to, aborting\") */\n      tag_86\n      jumpi\n      mload(0x40)\n      0x08c379a000000000000000000000000000000000000000000000000000000000\n      dup2\n      mstore\n      0x04\n      add\n      tag_87\n      swap1\n      tag_88\n      jump\t// in\n    tag_87:\n      mload(0x40)\n      dup1\n      swap2\n      sub\n      swap1\n      revert\n    tag_86:\n        /* \"contracts/SampleWallet.sol\":1857:1864  _amount */\n      dup3\n        /* \"contracts/SampleWallet.sol\":1832:1841  allowance */\n      0x01\n        /* \"contracts/SampleWallet.sol\":1832:1853  allowance[msg.sender] */\n      0x00\n        /* \"contracts/SampleWallet.sol\":1842:1852  msg.sender */\n      caller\n        /* \"contracts/SampleWallet.sol\":1832:1853  allowance[msg.sender] */\n      0xffffffffffffffffffffffffffffffffffffffff\n      and\n      0xffffffffffffffffffffffffffffffffffffffff\n      and\n      dup2\n      mstore\n      0x20\n      add\n      swap1\n      dup2\n      mstore\n      0x20\n      add\n      0x00\n      keccak256\n      0x00\n        /* \"contracts/SampleWallet.sol\":1832:1864  allowance[msg.sender] -= _amount */\n      dup3\n      dup3\n      sload\n      tag_89\n      swap2\n      swap1\n      tag_90\n      jump\t// in\n    tag_89:\n      swap3\n      pop\n      pop\n      dup2\n      swap1\n      sstore\n      pop\n        /* \"contracts/SampleWallet.sol\":1564:1876  if(msg.sender != owner){... */\n    tag_82:\n        /* \"contracts/SampleWallet.sol\":1897:1909  bool success */\n      0x00\n        /* \"contracts/SampleWallet.sol\":1911:1934  bytes memory returnData */\n      dup1\n        /* \"contracts/SampleWallet.sol\":1938:1941  _to */\n      dup6\n        /* \"contracts/SampleWallet.sol\":1938:1946  _to.call */\n      0xffffffffffffffffffffffffffffffffffffffff\n      and\n        /* \"contracts/SampleWallet.sol\":1954:1961  _amount */\n      dup6\n        /* \"contracts/SampleWallet.sol\":1963:1970  payload */\n      dup6\n        /* \"contracts/SampleWallet.sol\":1938:1971  _to.call{value: _amount}(payload) */\n      mload(0x40)\n      tag_91\n      swap2\n      swap1\n      tag_92\n      jump\t// in\n    tag_91:\n      0x00\n      mload(0x40)\n      dup1\n      dup4\n      sub\n      dup2\n      dup6\n      dup8\n      gas\n      call\n      swap3\n      pop\n      pop\n      pop\n      returndatasize\n      dup1\n      0x00\n      dup2\n      eq\n      tag_95\n      jumpi\n      mload(0x40)\n      swap2\n      pop\n      and(add(returndatasize, 0x3f), not(0x1f))\n      dup3\n      add\n      0x40\n      mstore\n      returndatasize\n      dup3\n      mstore\n      returndatasize\n      0x00\n      0x20\n      dup5\n      add\n      returndatacopy\n      jump(tag_94)\n    tag_95:\n      0x60\n      swap2\n      pop\n    tag_94:\n      pop\n        /* \"contracts/SampleWallet.sol\":1896:1971  (bool success, bytes memory returnData) = _to.call{value: _amount}(payload) */\n      swap2\n      pop\n      swap2\n      pop\n        /* \"contracts/SampleWallet.sol\":1990:1997  success */\n      dup2\n        /* \"contracts/SampleWallet.sol\":1982:2030  require(success, \"Transaction failed, aborting\") */\n      tag_96\n      jumpi\n      mload(0x40)\n      0x08c379a000000000000000000000000000000000000000000000000000000000\n      dup2\n      mstore\n      0x04\n      add\n      tag_97\n      swap1\n      tag_98\n      jump\t// in\n    tag_97:\n      mload(0x40)\n      dup1\n      swap2\n      sub\n      swap1\n      revert\n    tag_96:\n        /* \"contracts/SampleWallet.sol\":2048:2058  returnData */\n      dup1\n        /* \"contracts/SampleWallet.sol\":2041:2058  return returnData */\n      swap3\n      pop\n      pop\n      pop\n        /* \"contracts/SampleWallet.sol\":1343:2066  function transfer(address payable _to, uint _amount, bytes memory payload) public returns (bytes memory) {... */\n      swap4\n      swap3\n      pop\n      pop\n      pop\n      jump\t// out\n        /* \"contracts/SampleWallet.sol\":230:270  mapping(address => bool) public guardian */\n    tag_61:\n      mstore(0x20, 0x03)\n      dup1\n      0x00\n      mstore\n      keccak256(0x00, 0x40)\n      0x00\n      swap2\n      pop\n      sload\n      swap1\n      0x0100\n      exp\n      swap1\n      div\n      0xff\n      and\n      dup2\n      jump\t// out\n        /* \"#utility.yul\":7:82   */\n    tag_99:\n        /* \"#utility.yul\":40:46   */\n      0x00\n        /* \"#utility.yul\":73:75   */\n      0x40\n        /* \"#utility.yul\":67:76   */\n      mload\n        /* \"#utility.yul\":57:76   */\n      swap1\n      pop\n        /* \"#utility.yul\":7:82   */\n      swap1\n      jump\t// out\n        /* \"#utility.yul\":88:205   */\n    tag_100:\n        /* \"#utility.yul\":197:198   */\n      0x00\n        /* \"#utility.yul\":194:195   */\n      dup1\n        /* \"#utility.yul\":187:199   */\n      revert\n        /* \"#utility.yul\":211:328   */\n    tag_101:\n        /* \"#utility.yul\":320:321   */\n      0x00\n        /* \"#utility.yul\":317:318   */\n      dup1\n        /* \"#utility.yul\":310:322   */\n      revert\n        /* \"#utility.yul\":334:460   */\n    tag_102:\n        /* \"#utility.yul\":371:378   */\n      0x00\n        /* \"#utility.yul\":411:453   */\n      0xffffffffffffffffffffffffffffffffffffffff\n        /* \"#utility.yul\":404:409   */\n      dup3\n        /* \"#utility.yul\":400:454   */\n      and\n        /* \"#utility.yul\":389:454   */\n      swap1\n      pop\n        /* \"#utility.yul\":334:460   */\n      swap2\n      swap1\n      pop\n      jump\t// out\n        /* \"#utility.yul\":466:562   */\n    tag_103:\n        /* \"#utility.yul\":503:510   */\n      0x00\n        /* \"#utility.yul\":532:556   */\n      tag_152\n        /* \"#utility.yul\":550:555   */\n      dup3\n        /* \"#utility.yul\":532:556   */\n      tag_102\n      jump\t// in\n    tag_152:\n        /* \"#utility.yul\":521:556   */\n      swap1\n      pop\n        /* \"#utility.yul\":466:562   */\n      swap2\n      swap1\n      pop\n      jump\t// out\n        /* \"#utility.yul\":568:690   */\n    tag_104:\n        /* \"#utility.yul\":641:665   */\n      tag_154\n        /* \"#utility.yul\":659:664   */\n      dup2\n        /* \"#utility.yul\":641:665   */\n      tag_103\n      jump\t// in\n    tag_154:\n        /* \"#utility.yul\":634:639   */\n      dup2\n        /* \"#utility.yul\":631:666   */\n      eq\n        /* \"#utility.yul\":621:684   */\n      tag_155\n      jumpi\n        /* \"#utility.yul\":680:681   */\n      0x00\n        /* \"#utility.yul\":677:678   */\n      dup1\n        /* \"#utility.yul\":670:682   */\n      revert\n        /* \"#utility.yul\":621:684   */\n    tag_155:\n        /* \"#utility.yul\":568:690   */\n      pop\n      jump\t// out\n        /* \"#utility.yul\":696:835   */\n    tag_105:\n        /* \"#utility.yul\":742:747   */\n      0x00\n        /* \"#utility.yul\":780:786   */\n      dup2\n        /* \"#utility.yul\":767:787   */\n      calldataload\n        /* \"#utility.yul\":758:787   */\n      swap1\n      pop\n        /* \"#utility.yul\":796:829   */\n      tag_157\n        /* \"#utility.yul\":823:828   */\n      dup2\n        /* \"#utility.yul\":796:829   */\n      tag_104\n      jump\t// in\n    tag_157:\n        /* \"#utility.yul\":696:835   */\n      swap3\n      swap2\n      pop\n      pop\n      jump\t// out\n        /* \"#utility.yul\":841:1170   */\n    tag_18:\n        /* \"#utility.yul\":900:906   */\n      0x00\n        /* \"#utility.yul\":949:951   */\n      0x20\n        /* \"#utility.yul\":937:946   */\n      dup3\n        /* \"#utility.yul\":928:935   */\n      dup5\n        /* \"#utility.yul\":924:947   */\n      sub\n        /* \"#utility.yul\":920:952   */\n      slt\n        /* \"#utility.yul\":917:1036   */\n      iszero\n      tag_159\n      jumpi\n        /* \"#utility.yul\":955:1034   */\n      tag_160\n      tag_100\n      jump\t// in\n    tag_160:\n        /* \"#utility.yul\":917:1036   */\n    tag_159:\n        /* \"#utility.yul\":1075:1076   */\n      0x00\n        /* \"#utility.yul\":1100:1153   */\n      tag_161\n        /* \"#utility.yul\":1145:1152   */\n      dup5\n        /* \"#utility.yul\":1136:1142   */\n      dup3\n        /* \"#utility.yul\":1125:1134   */\n      dup6\n        /* \"#utility.yul\":1121:1143   */\n      add\n        /* \"#utility.yul\":1100:1153   */\n      tag_105\n      jump\t// in\n    tag_161:\n        /* \"#utility.yul\":1090:1153   */\n      swap2\n      pop\n        /* \"#utility.yul\":1046:1163   */\n      pop\n        /* \"#utility.yul\":841:1170   */\n      swap3\n      swap2\n      pop\n      pop\n      jump\t// out\n        /* \"#utility.yul\":1176:1266   */\n    tag_106:\n        /* \"#utility.yul\":1210:1217   */\n      0x00\n        /* \"#utility.yul\":1253:1258   */\n      dup2\n        /* \"#utility.yul\":1246:1259   */\n      iszero\n        /* \"#utility.yul\":1239:1260   */\n      iszero\n        /* \"#utility.yul\":1228:1260   */\n      swap1\n      pop\n        /* \"#utility.yul\":1176:1266   */\n      swap2\n      swap1\n      pop\n      jump\t// out\n        /* \"#utility.yul\":1272:1381   */\n    tag_107:\n        /* \"#utility.yul\":1353:1374   */\n      tag_164\n        /* \"#utility.yul\":1368:1373   */\n      dup2\n        /* \"#utility.yul\":1353:1374   */\n      tag_106\n      jump\t// in\n    tag_164:\n        /* \"#utility.yul\":1348:1351   */\n      dup3\n        /* \"#utility.yul\":1341:1375   */\n      mstore\n        /* \"#utility.yul\":1272:1381   */\n      pop\n      pop\n      jump\t// out\n        /* \"#utility.yul\":1387:1597   */\n    tag_21:\n        /* \"#utility.yul\":1474:1478   */\n      0x00\n        /* \"#utility.yul\":1512:1514   */\n      0x20\n        /* \"#utility.yul\":1501:1510   */\n      dup3\n        /* \"#utility.yul\":1497:1515   */\n      add\n        /* \"#utility.yul\":1489:1515   */\n      swap1\n      pop\n        /* \"#utility.yul\":1525:1590   */\n      tag_166\n        /* \"#utility.yul\":1587:1588   */\n      0x00\n        /* \"#utility.yul\":1576:1585   */\n      dup4\n        /* \"#utility.yul\":1572:1589   */\n      add\n        /* \"#utility.yul\":1563:1569   */\n      dup5\n        /* \"#utility.yul\":1525:1590   */\n      tag_107\n      jump\t// in\n    tag_166:\n        /* \"#utility.yul\":1387:1597   */\n      swap3\n      swap2\n      pop\n      pop\n      jump\t// out\n        /* \"#utility.yul\":1603:1680   */\n    tag_108:\n        /* \"#utility.yul\":1640:1647   */\n      0x00\n        /* \"#utility.yul\":1669:1674   */\n      dup2\n        /* \"#utility.yul\":1658:1674   */\n      swap1\n      pop\n        /* \"#utility.yul\":1603:1680   */\n      swap2\n      swap1\n      pop\n      jump\t// out\n        /* \"#utility.yul\":1686:1808   */\n    tag_109:\n        /* \"#utility.yul\":1759:1783   */\n      tag_169\n        /* \"#utility.yul\":1777:1782   */\n      dup2\n        /* \"#utility.yul\":1759:1783   */\n      tag_108\n      jump\t// in\n    tag_169:\n        /* \"#utility.yul\":1752:1757   */\n      dup2\n        /* \"#utility.yul\":1749:1784   */\n      eq\n        /* \"#utility.yul\":1739:1802   */\n      tag_170\n      jumpi\n        /* \"#utility.yul\":1798:1799   */\n      0x00\n        /* \"#utility.yul\":1795:1796   */\n      dup1\n        /* \"#utility.yul\":1788:1800   */\n      revert\n        /* \"#utility.yul\":1739:1802   */\n    tag_170:\n        /* \"#utility.yul\":1686:1808   */\n      pop\n      jump\t// out\n        /* \"#utility.yul\":1814:1953   */\n    tag_110:\n        /* \"#utility.yul\":1860:1865   */\n      0x00\n        /* \"#utility.yul\":1898:1904   */\n      dup2\n        /* \"#utility.yul\":1885:1905   */\n      calldataload\n        /* \"#utility.yul\":1876:1905   */\n      swap1\n      pop\n        /* \"#utility.yul\":1914:1947   */\n      tag_172\n        /* \"#utility.yul\":1941:1946   */\n      dup2\n        /* \"#utility.yul\":1914:1947   */\n      tag_109\n      jump\t// in\n    tag_172:\n        /* \"#utility.yul\":1814:1953   */\n      swap3\n      swap2\n      pop\n      pop\n      jump\t// out\n        /* \"#utility.yul\":1959:2433   */\n    tag_25:\n        /* \"#utility.yul\":2027:2033   */\n      0x00\n        /* \"#utility.yul\":2035:2041   */\n      dup1\n        /* \"#utility.yul\":2084:2086   */\n      0x40\n        /* \"#utility.yul\":2072:2081   */\n      dup4\n        /* \"#utility.yul\":2063:2070   */\n      dup6\n        /* \"#utility.yul\":2059:2082   */\n      sub\n        /* \"#utility.yul\":2055:2087   */\n      slt\n        /* \"#utility.yul\":2052:2171   */\n      iszero\n      tag_174\n      jumpi\n        /* \"#utility.yul\":2090:2169   */\n      tag_175\n      tag_100\n      jump\t// in\n    tag_175:\n        /* \"#utility.yul\":2052:2171   */\n    tag_174:\n        /* \"#utility.yul\":2210:2211   */\n      0x00\n        /* \"#utility.yul\":2235:2288   */\n      tag_176\n        /* \"#utility.yul\":2280:2287   */\n      dup6\n        /* \"#utility.yul\":2271:2277   */\n      dup3\n        /* \"#utility.yul\":2260:2269   */\n      dup7\n        /* \"#utility.yul\":2256:2278   */\n      add\n        /* \"#utility.yul\":2235:2288   */\n      tag_105\n      jump\t// in\n    tag_176:\n        /* \"#utility.yul\":2225:2288   */\n      swap3\n      pop\n        /* \"#utility.yul\":2181:2298   */\n      pop\n        /* \"#utility.yul\":2337:2339   */\n      0x20\n        /* \"#utility.yul\":2363:2416   */\n      tag_177\n        /* \"#utility.yul\":2408:2415   */\n      dup6\n        /* \"#utility.yul\":2399:2405   */\n      dup3\n        /* \"#utility.yul\":2388:2397   */\n      dup7\n        /* \"#utility.yul\":2384:2406   */\n      add\n        /* \"#utility.yul\":2363:2416   */\n      tag_110\n      jump\t// in\n    tag_177:\n        /* \"#utility.yul\":2353:2416   */\n      swap2\n      pop\n        /* \"#utility.yul\":2308:2426   */\n      pop\n        /* \"#utility.yul\":1959:2433   */\n      swap3\n      pop\n      swap3\n      swap1\n      pop\n      jump\t// out\n        /* \"#utility.yul\":2439:2557   */\n    tag_111:\n        /* \"#utility.yul\":2526:2550   */\n      tag_179\n        /* \"#utility.yul\":2544:2549   */\n      dup2\n        /* \"#utility.yul\":2526:2550   */\n      tag_108\n      jump\t// in\n    tag_179:\n        /* \"#utility.yul\":2521:2524   */\n      dup3\n        /* \"#utility.yul\":2514:2551   */\n      mstore\n        /* \"#utility.yul\":2439:2557   */\n      pop\n      pop\n      jump\t// out\n        /* \"#utility.yul\":2563:2785   */\n    tag_32:\n        /* \"#utility.yul\":2656:2660   */\n      0x00\n        /* \"#utility.yul\":2694:2696   */\n      0x20\n        /* \"#utility.yul\":2683:2692   */\n      dup3\n        /* \"#utility.yul\":2679:2697   */\n      add\n        /* \"#utility.yul\":2671:2697   */\n      swap1\n      pop\n        /* \"#utility.yul\":2707:2778   */\n      tag_181\n        /* \"#utility.yul\":2775:2776   */\n      0x00\n        /* \"#utility.yul\":2764:2773   */\n      dup4\n        /* \"#utility.yul\":2760:2777   */\n      add\n        /* \"#utility.yul\":2751:2757   */\n      dup5\n        /* \"#utility.yul\":2707:2778   */\n      tag_111\n      jump\t// in\n    tag_181:\n        /* \"#utility.yul\":2563:2785   */\n      swap3\n      swap2\n      pop\n      pop\n      jump\t// out\n        /* \"#utility.yul\":2791:2895   */\n    tag_112:\n        /* \"#utility.yul\":2836:2843   */\n      0x00\n        /* \"#utility.yul\":2865:2889   */\n      tag_183\n        /* \"#utility.yul\":2883:2888   */\n      dup3\n        /* \"#utility.yul\":2865:2889   */\n      tag_102\n      jump\t// in\n    tag_183:\n        /* \"#utility.yul\":2854:2889   */\n      swap1\n      pop\n        /* \"#utility.yul\":2791:2895   */\n      swap2\n      swap1\n      pop\n      jump\t// out\n        /* \"#utility.yul\":2901:3043   */\n    tag_113:\n        /* \"#utility.yul\":3004:3036   */\n      tag_185\n        /* \"#utility.yul\":3030:3035   */\n      dup2\n        /* \"#utility.yul\":3004:3036   */\n      tag_112\n      jump\t// in\n    tag_185:\n        /* \"#utility.yul\":2999:3002   */\n      dup3\n        /* \"#utility.yul\":2992:3037   */\n      mstore\n        /* \"#utility.yul\":2901:3043   */\n      pop\n      pop\n      jump\t// out\n        /* \"#utility.yul\":3049:3303   */\n    tag_45:\n        /* \"#utility.yul\":3158:3162   */\n      0x00\n        /* \"#utility.yul\":3196:3198   */\n      0x20\n        /* \"#utility.yul\":3185:3194   */\n      dup3\n        /* \"#utility.yul\":3181:3199   */\n      add\n        /* \"#utility.yul\":3173:3199   */\n      swap1\n      pop\n        /* \"#utility.yul\":3209:3296   */\n      tag_187\n        /* \"#utility.yul\":3293:3294   */\n      0x00\n        /* \"#utility.yul\":3282:3291   */\n      dup4\n        /* \"#utility.yul\":3278:3295   */\n      add\n        /* \"#utility.yul\":3269:3275   */\n      dup5\n        /* \"#utility.yul\":3209:3296   */\n      tag_113\n      jump\t// in\n    tag_187:\n        /* \"#utility.yul\":3049:3303   */\n      swap3\n      swap2\n      pop\n      pop\n      jump\t// out\n        /* \"#utility.yul\":3309:3447   */\n    tag_114:\n        /* \"#utility.yul\":3390:3422   */\n      tag_189\n        /* \"#utility.yul\":3416:3421   */\n      dup2\n        /* \"#utility.yul\":3390:3422   */\n      tag_112\n      jump\t// in\n    tag_189:\n        /* \"#utility.yul\":3383:3388   */\n      dup2\n        /* \"#utility.yul\":3380:3423   */\n      eq\n        /* \"#utility.yul\":3370:3441   */\n      tag_190\n      jumpi\n        /* \"#utility.yul\":3437:3438   */\n      0x00\n        /* \"#utility.yul\":3434:3435   */\n      dup1\n        /* \"#utility.yul\":3427:3439   */\n      revert\n        /* \"#utility.yul\":3370:3441   */\n    tag_190:\n        /* \"#utility.yul\":3309:3447   */\n      pop\n      jump\t// out\n        /* \"#utility.yul\":3453:3608   */\n    tag_115:\n        /* \"#utility.yul\":3507:3512   */\n      0x00\n        /* \"#utility.yul\":3545:3551   */\n      dup2\n        /* \"#utility.yul\":3532:3552   */\n      calldataload\n        /* \"#utility.yul\":3523:3552   */\n      swap1\n      pop\n        /* \"#utility.yul\":3561:3602   */\n      tag_192\n        /* \"#utility.yul\":3596:3601   */\n      dup2\n        /* \"#utility.yul\":3561:3602   */\n      tag_114\n      jump\t// in\n    tag_192:\n        /* \"#utility.yul\":3453:3608   */\n      swap3\n      swap2\n      pop\n      pop\n      jump\t// out\n        /* \"#utility.yul\":3614:3959   */\n    tag_49:\n        /* \"#utility.yul\":3681:3687   */\n      0x00\n        /* \"#utility.yul\":3730:3732   */\n      0x20\n        /* \"#utility.yul\":3718:3727   */\n      dup3\n        /* \"#utility.yul\":3709:3716   */\n      dup5\n        /* \"#utility.yul\":3705:3728   */\n      sub\n        /* \"#utility.yul\":3701:3733   */\n      slt\n        /* \"#utility.yul\":3698:3817   */\n      iszero\n      tag_194\n      jumpi\n        /* \"#utility.yul\":3736:3815   */\n      tag_195\n      tag_100\n      jump\t// in\n    tag_195:\n        /* \"#utility.yul\":3698:3817   */\n    tag_194:\n        /* \"#utility.yul\":3856:3857   */\n      0x00\n        /* \"#utility.yul\":3881:3942   */\n      tag_196\n        /* \"#utility.yul\":3934:3941   */\n      dup5\n        /* \"#utility.yul\":3925:3931   */\n      dup3\n        /* \"#utility.yul\":3914:3923   */\n      dup6\n        /* \"#utility.yul\":3910:3932   */\n      add\n        /* \"#utility.yul\":3881:3942   */\n      tag_115\n      jump\t// in\n    tag_196:\n        /* \"#utility.yul\":3871:3942   */\n      swap2\n      pop\n        /* \"#utility.yul\":3827:3952   */\n      pop\n        /* \"#utility.yul\":3614:3959   */\n      swap3\n      swap2\n      pop\n      pop\n      jump\t// out\n        /* \"#utility.yul\":3965:4082   */\n    tag_116:\n        /* \"#utility.yul\":4074:4075   */\n      0x00\n        /* \"#utility.yul\":4071:4072   */\n      dup1\n        /* \"#utility.yul\":4064:4076   */\n      revert\n        /* \"#utility.yul\":4088:4205   */\n    tag_117:\n        /* \"#utility.yul\":4197:4198   */\n      0x00\n        /* \"#utility.yul\":4194:4195   */\n      dup1\n        /* \"#utility.yul\":4187:4199   */\n      revert\n        /* \"#utility.yul\":4211:4313   */\n    tag_118:\n        /* \"#utility.yul\":4252:4258   */\n      0x00\n        /* \"#utility.yul\":4303:4305   */\n      0x1f\n        /* \"#utility.yul\":4299:4306   */\n      not\n        /* \"#utility.yul\":4294:4296   */\n      0x1f\n        /* \"#utility.yul\":4287:4292   */\n      dup4\n        /* \"#utility.yul\":4283:4297   */\n      add\n        /* \"#utility.yul\":4279:4307   */\n      and\n        /* \"#utility.yul\":4269:4307   */\n      swap1\n      pop\n        /* \"#utility.yul\":4211:4313   */\n      swap2\n      swap1\n      pop\n      jump\t// out\n        /* \"#utility.yul\":4319:4499   */\n    tag_119:\n        /* \"#utility.yul\":4367:4444   */\n      0x4e487b7100000000000000000000000000000000000000000000000000000000\n        /* \"#utility.yul\":4364:4365   */\n      0x00\n        /* \"#utility.yul\":4357:4445   */\n      mstore\n        /* \"#utility.yul\":4464:4468   */\n      0x41\n        /* \"#utility.yul\":4461:4462   */\n      0x04\n        /* \"#utility.yul\":4454:4469   */\n      mstore\n        /* \"#utility.yul\":4488:4492   */\n      0x24\n        /* \"#utility.yul\":4485:4486   */\n      0x00\n        /* \"#utility.yul\":4478:4493   */\n      revert\n        /* \"#utility.yul\":4505:4786   */\n    tag_120:\n        /* \"#utility.yul\":4588:4615   */\n      tag_202\n        /* \"#utility.yul\":4610:4614   */\n      dup3\n        /* \"#utility.yul\":4588:4615   */\n      tag_118\n      jump\t// in\n    tag_202:\n        /* \"#utility.yul\":4580:4586   */\n      dup2\n        /* \"#utility.yul\":4576:4616   */\n      add\n        /* \"#utility.yul\":4718:4724   */\n      dup2\n        /* \"#utility.yul\":4706:4716   */\n      dup2\n        /* \"#utility.yul\":4703:4725   */\n      lt\n        /* \"#utility.yul\":4682:4700   */\n      0xffffffffffffffff\n        /* \"#utility.yul\":4670:4680   */\n      dup3\n        /* \"#utility.yul\":4667:4701   */\n      gt\n        /* \"#utility.yul\":4664:4726   */\n      or\n        /* \"#utility.yul\":4661:4749   */\n      iszero\n      tag_203\n      jumpi\n        /* \"#utility.yul\":4729:4747   */\n      tag_204\n      tag_119\n      jump\t// in\n    tag_204:\n        /* \"#utility.yul\":4661:4749   */\n    tag_203:\n        /* \"#utility.yul\":4769:4779   */\n      dup1\n        /* \"#utility.yul\":4765:4767   */\n      0x40\n        /* \"#utility.yul\":4758:4780   */\n      mstore\n        /* \"#utility.yul\":4548:4786   */\n      pop\n        /* \"#utility.yul\":4505:4786   */\n      pop\n      pop\n      jump\t// out\n        /* \"#utility.yul\":4792:4921   */\n    tag_121:\n        /* \"#utility.yul\":4826:4832   */\n      0x00\n        /* \"#utility.yul\":4853:4873   */\n      tag_206\n      tag_99\n      jump\t// in\n    tag_206:\n        /* \"#utility.yul\":4843:4873   */\n      swap1\n      pop\n        /* \"#utility.yul\":4882:4915   */\n      tag_207\n        /* \"#utility.yul\":4910:4914   */\n      dup3\n        /* \"#utility.yul\":4902:4908   */\n      dup3\n        /* \"#utility.yul\":4882:4915   */\n      tag_120\n      jump\t// in\n    tag_207:\n        /* \"#utility.yul\":4792:4921   */\n      swap2\n      swap1\n      pop\n      jump\t// out\n        /* \"#utility.yul\":4927:5234   */\n    tag_122:\n        /* \"#utility.yul\":4988:4992   */\n      0x00\n        /* \"#utility.yul\":5078:5096   */\n      0xffffffffffffffff\n        /* \"#utility.yul\":5070:5076   */\n      dup3\n        /* \"#utility.yul\":5067:5097   */\n      gt\n        /* \"#utility.yul\":5064:5120   */\n      iszero\n      tag_209\n      jumpi\n        /* \"#utility.yul\":5100:5118   */\n      tag_210\n      tag_119\n      jump\t// in\n    tag_210:\n        /* \"#utility.yul\":5064:5120   */\n    tag_209:\n        /* \"#utility.yul\":5138:5167   */\n      tag_211\n        /* \"#utility.yul\":5160:5166   */\n      dup3\n        /* \"#utility.yul\":5138:5167   */\n      tag_118\n      jump\t// in\n    tag_211:\n        /* \"#utility.yul\":5130:5167   */\n      swap1\n      pop\n        /* \"#utility.yul\":5222:5226   */\n      0x20\n        /* \"#utility.yul\":5216:5220   */\n      dup2\n        /* \"#utility.yul\":5212:5227   */\n      add\n        /* \"#utility.yul\":5204:5227   */\n      swap1\n      pop\n        /* \"#utility.yul\":4927:5234   */\n      swap2\n      swap1\n      pop\n      jump\t// out\n        /* \"#utility.yul\":5240:5394   */\n    tag_123:\n        /* \"#utility.yul\":5324:5330   */\n      dup3\n        /* \"#utility.yul\":5319:5322   */\n      dup2\n        /* \"#utility.yul\":5314:5317   */\n      dup4\n        /* \"#utility.yul\":5301:5331   */\n      calldatacopy\n        /* \"#utility.yul\":5386:5387   */\n      0x00\n        /* \"#utility.yul\":5377:5383   */\n      dup4\n        /* \"#utility.yul\":5372:5375   */\n      dup4\n        /* \"#utility.yul\":5368:5384   */\n      add\n        /* \"#utility.yul\":5361:5388   */\n      mstore\n        /* \"#utility.yul\":5240:5394   */\n      pop\n      pop\n      pop\n      jump\t// out\n        /* \"#utility.yul\":5400:5810   */\n    tag_124:\n        /* \"#utility.yul\":5477:5482   */\n      0x00\n        /* \"#utility.yul\":5502:5567   */\n      tag_214\n        /* \"#utility.yul\":5518:5566   */\n      tag_215\n        /* \"#utility.yul\":5559:5565   */\n      dup5\n        /* \"#utility.yul\":5518:5566   */\n      tag_122\n      jump\t// in\n    tag_215:\n        /* \"#utility.yul\":5502:5567   */\n      tag_121\n      jump\t// in\n    tag_214:\n        /* \"#utility.yul\":5493:5567   */\n      swap1\n      pop\n        /* \"#utility.yul\":5590:5596   */\n      dup3\n        /* \"#utility.yul\":5583:5588   */\n      dup2\n        /* \"#utility.yul\":5576:5597   */\n      mstore\n        /* \"#utility.yul\":5628:5632   */\n      0x20\n        /* \"#utility.yul\":5621:5626   */\n      dup2\n        /* \"#utility.yul\":5617:5633   */\n      add\n        /* \"#utility.yul\":5666:5669   */\n      dup5\n        /* \"#utility.yul\":5657:5663   */\n      dup5\n        /* \"#utility.yul\":5652:5655   */\n      dup5\n        /* \"#utility.yul\":5648:5664   */\n      add\n        /* \"#utility.yul\":5645:5670   */\n      gt\n        /* \"#utility.yul\":5642:5754   */\n      iszero\n      tag_216\n      jumpi\n        /* \"#utility.yul\":5673:5752   */\n      tag_217\n      tag_117\n      jump\t// in\n    tag_217:\n        /* \"#utility.yul\":5642:5754   */\n    tag_216:\n        /* \"#utility.yul\":5763:5804   */\n      tag_218\n        /* \"#utility.yul\":5797:5803   */\n      dup5\n        /* \"#utility.yul\":5792:5795   */\n      dup3\n        /* \"#utility.yul\":5787:5790   */\n      dup6\n        /* \"#utility.yul\":5763:5804   */\n      tag_123\n      jump\t// in\n    tag_218:\n        /* \"#utility.yul\":5483:5810   */\n      pop\n        /* \"#utility.yul\":5400:5810   */\n      swap4\n      swap3\n      pop\n      pop\n      pop\n      jump\t// out\n        /* \"#utility.yul\":5829:6167   */\n    tag_125:\n        /* \"#utility.yul\":5884:5889   */\n      0x00\n        /* \"#utility.yul\":5933:5936   */\n      dup3\n        /* \"#utility.yul\":5926:5930   */\n      0x1f\n        /* \"#utility.yul\":5918:5924   */\n      dup4\n        /* \"#utility.yul\":5914:5931   */\n      add\n        /* \"#utility.yul\":5910:5937   */\n      slt\n        /* \"#utility.yul\":5900:6022   */\n      tag_220\n      jumpi\n        /* \"#utility.yul\":5941:6020   */\n      tag_221\n      tag_116\n      jump\t// in\n    tag_221:\n        /* \"#utility.yul\":5900:6022   */\n    tag_220:\n        /* \"#utility.yul\":6058:6064   */\n      dup2\n        /* \"#utility.yul\":6045:6065   */\n      calldataload\n        /* \"#utility.yul\":6083:6161   */\n      tag_222\n        /* \"#utility.yul\":6157:6160   */\n      dup5\n        /* \"#utility.yul\":6149:6155   */\n      dup3\n        /* \"#utility.yul\":6142:6146   */\n      0x20\n        /* \"#utility.yul\":6134:6140   */\n      dup7\n        /* \"#utility.yul\":6130:6147   */\n      add\n        /* \"#utility.yul\":6083:6161   */\n      tag_124\n      jump\t// in\n    tag_222:\n        /* \"#utility.yul\":6074:6161   */\n      swap2\n      pop\n        /* \"#utility.yul\":5890:6167   */\n      pop\n        /* \"#utility.yul\":5829:6167   */\n      swap3\n      swap2\n      pop\n      pop\n      jump\t// out\n        /* \"#utility.yul\":6173:6986   */\n    tag_54:\n        /* \"#utility.yul\":6267:6273   */\n      0x00\n        /* \"#utility.yul\":6275:6281   */\n      dup1\n        /* \"#utility.yul\":6283:6289   */\n      0x00\n        /* \"#utility.yul\":6332:6334   */\n      0x60\n        /* \"#utility.yul\":6320:6329   */\n      dup5\n        /* \"#utility.yul\":6311:6318   */\n      dup7\n        /* \"#utility.yul\":6307:6330   */\n      sub\n        /* \"#utility.yul\":6303:6335   */\n      slt\n        /* \"#utility.yul\":6300:6419   */\n      iszero\n      tag_224\n      jumpi\n        /* \"#utility.yul\":6338:6417   */\n      tag_225\n      tag_100\n      jump\t// in\n    tag_225:\n        /* \"#utility.yul\":6300:6419   */\n    tag_224:\n        /* \"#utility.yul\":6458:6459   */\n      0x00\n        /* \"#utility.yul\":6483:6544   */\n      tag_226\n        /* \"#utility.yul\":6536:6543   */\n      dup7\n        /* \"#utility.yul\":6527:6533   */\n      dup3\n        /* \"#utility.yul\":6516:6525   */\n      dup8\n        /* \"#utility.yul\":6512:6534   */\n      add\n        /* \"#utility.yul\":6483:6544   */\n      tag_115\n      jump\t// in\n    tag_226:\n        /* \"#utility.yul\":6473:6544   */\n      swap4\n      pop\n        /* \"#utility.yul\":6429:6554   */\n      pop\n        /* \"#utility.yul\":6593:6595   */\n      0x20\n        /* \"#utility.yul\":6619:6672   */\n      tag_227\n        /* \"#utility.yul\":6664:6671   */\n      dup7\n        /* \"#utility.yul\":6655:6661   */\n      dup3\n        /* \"#utility.yul\":6644:6653   */\n      dup8\n        /* \"#utility.yul\":6640:6662   */\n      add\n        /* \"#utility.yul\":6619:6672   */\n      tag_110\n      jump\t// in\n    tag_227:\n        /* \"#utility.yul\":6609:6672   */\n      swap3\n      pop\n        /* \"#utility.yul\":6564:6682   */\n      pop\n        /* \"#utility.yul\":6749:6751   */\n      0x40\n        /* \"#utility.yul\":6738:6747   */\n      dup5\n        /* \"#utility.yul\":6734:6752   */\n      add\n        /* \"#utility.yul\":6721:6753   */\n      calldataload\n        /* \"#utility.yul\":6780:6798   */\n      0xffffffffffffffff\n        /* \"#utility.yul\":6772:6778   */\n      dup2\n        /* \"#utility.yul\":6769:6799   */\n      gt\n        /* \"#utility.yul\":6766:6883   */\n      iszero\n      tag_228\n      jumpi\n        /* \"#utility.yul\":6802:6881   */\n      tag_229\n      tag_101\n      jump\t// in\n    tag_229:\n        /* \"#utility.yul\":6766:6883   */\n    tag_228:\n        /* \"#utility.yul\":6907:6969   */\n      tag_230\n        /* \"#utility.yul\":6961:6968   */\n      dup7\n        /* \"#utility.yul\":6952:6958   */\n      dup3\n        /* \"#utility.yul\":6941:6950   */\n      dup8\n        /* \"#utility.yul\":6937:6959   */\n      add\n        /* \"#utility.yul\":6907:6969   */\n      tag_125\n      jump\t// in\n    tag_230:\n        /* \"#utility.yul\":6897:6969   */\n      swap2\n      pop\n        /* \"#utility.yul\":6692:6979   */\n      pop\n        /* \"#utility.yul\":6173:6986   */\n      swap3\n      pop\n      swap3\n      pop\n      swap3\n      jump\t// out\n        /* \"#utility.yul\":6992:7090   */\n    tag_126:\n        /* \"#utility.yul\":7043:7049   */\n      0x00\n        /* \"#utility.yul\":7077:7082   */\n      dup2\n        /* \"#utility.yul\":7071:7083   */\n      mload\n        /* \"#utility.yul\":7061:7083   */\n      swap1\n      pop\n        /* \"#utility.yul\":6992:7090   */\n      swap2\n      swap1\n      pop\n      jump\t// out\n        /* \"#utility.yul\":7096:7264   */\n    tag_127:\n        /* \"#utility.yul\":7179:7190   */\n      0x00\n        /* \"#utility.yul\":7213:7219   */\n      dup3\n        /* \"#utility.yul\":7208:7211   */\n      dup3\n        /* \"#utility.yul\":7201:7220   */\n      mstore\n        /* \"#utility.yul\":7253:7257   */\n      0x20\n        /* \"#utility.yul\":7248:7251   */\n      dup3\n        /* \"#utility.yul\":7244:7258   */\n      add\n        /* \"#utility.yul\":7229:7258   */\n      swap1\n      pop\n        /* \"#utility.yul\":7096:7264   */\n      swap3\n      swap2\n      pop\n      pop\n      jump\t// out\n        /* \"#utility.yul\":7270:7577   */\n    tag_128:\n        /* \"#utility.yul\":7338:7339   */\n      0x00\n        /* \"#utility.yul\":7348:7461   */\n    tag_234:\n        /* \"#utility.yul\":7362:7368   */\n      dup4\n        /* \"#utility.yul\":7359:7360   */\n      dup2\n        /* \"#utility.yul\":7356:7369   */\n      lt\n        /* \"#utility.yul\":7348:7461   */\n      iszero\n      tag_236\n      jumpi\n        /* \"#utility.yul\":7447:7448   */\n      dup1\n        /* \"#utility.yul\":7442:7445   */\n      dup3\n        /* \"#utility.yul\":7438:7449   */\n      add\n        /* \"#utility.yul\":7432:7450   */\n      mload\n        /* \"#utility.yul\":7428:7429   */\n      dup2\n        /* \"#utility.yul\":7423:7426   */\n      dup5\n        /* \"#utility.yul\":7419:7430   */\n      add\n        /* \"#utility.yul\":7412:7451   */\n      mstore\n        /* \"#utility.yul\":7384:7386   */\n      0x20\n        /* \"#utility.yul\":7381:7382   */\n      dup2\n        /* \"#utility.yul\":7377:7387   */\n      add\n        /* \"#utility.yul\":7372:7387   */\n      swap1\n      pop\n        /* \"#utility.yul\":7348:7461   */\n      jump(tag_234)\n    tag_236:\n        /* \"#utility.yul\":7479:7485   */\n      dup4\n        /* \"#utility.yul\":7476:7477   */\n      dup2\n        /* \"#utility.yul\":7473:7486   */\n      gt\n        /* \"#utility.yul\":7470:7571   */\n      iszero\n      tag_237\n      jumpi\n        /* \"#utility.yul\":7559:7560   */\n      0x00\n        /* \"#utility.yul\":7550:7556   */\n      dup5\n        /* \"#utility.yul\":7545:7548   */\n      dup5\n        /* \"#utility.yul\":7541:7557   */\n      add\n        /* \"#utility.yul\":7534:7561   */\n      mstore\n        /* \"#utility.yul\":7470:7571   */\n    tag_237:\n        /* \"#utility.yul\":7319:7577   */\n      pop\n        /* \"#utility.yul\":7270:7577   */\n      pop\n      pop\n      pop\n      jump\t// out\n        /* \"#utility.yul\":7583:7943   */\n    tag_129:\n        /* \"#utility.yul\":7669:7672   */\n      0x00\n        /* \"#utility.yul\":7697:7735   */\n      tag_239\n        /* \"#utility.yul\":7729:7734   */\n      dup3\n        /* \"#utility.yul\":7697:7735   */\n      tag_126\n      jump\t// in\n    tag_239:\n        /* \"#utility.yul\":7751:7821   */\n      tag_240\n        /* \"#utility.yul\":7814:7820   */\n      dup2\n        /* \"#utility.yul\":7809:7812   */\n      dup6\n        /* \"#utility.yul\":7751:7821   */\n      tag_127\n      jump\t// in\n    tag_240:\n        /* \"#utility.yul\":7744:7821   */\n      swap4\n      pop\n        /* \"#utility.yul\":7830:7882   */\n      tag_241\n        /* \"#utility.yul\":7875:7881   */\n      dup2\n        /* \"#utility.yul\":7870:7873   */\n      dup6\n        /* \"#utility.yul\":7863:7867   */\n      0x20\n        /* \"#utility.yul\":7856:7861   */\n      dup7\n        /* \"#utility.yul\":7852:7868   */\n      add\n        /* \"#utility.yul\":7830:7882   */\n      tag_128\n      jump\t// in\n    tag_241:\n        /* \"#utility.yul\":7907:7936   */\n      tag_242\n        /* \"#utility.yul\":7929:7935   */\n      dup2\n        /* \"#utility.yul\":7907:7936   */\n      tag_118\n      jump\t// in\n    tag_242:\n        /* \"#utility.yul\":7902:7905   */\n      dup5\n        /* \"#utility.yul\":7898:7937   */\n      add\n        /* \"#utility.yul\":7891:7937   */\n      swap2\n      pop\n        /* \"#utility.yul\":7673:7943   */\n      pop\n        /* \"#utility.yul\":7583:7943   */\n      swap3\n      swap2\n      pop\n      pop\n      jump\t// out\n        /* \"#utility.yul\":7949:8258   */\n    tag_57:\n        /* \"#utility.yul\":8060:8064   */\n      0x00\n        /* \"#utility.yul\":8098:8100   */\n      0x20\n        /* \"#utility.yul\":8087:8096   */\n      dup3\n        /* \"#utility.yul\":8083:8101   */\n      add\n        /* \"#utility.yul\":8075:8101   */\n      swap1\n      pop\n        /* \"#utility.yul\":8147:8156   */\n      dup2\n        /* \"#utility.yul\":8141:8145   */\n      dup2\n        /* \"#utility.yul\":8137:8157   */\n      sub\n        /* \"#utility.yul\":8133:8134   */\n      0x00\n        /* \"#utility.yul\":8122:8131   */\n      dup4\n        /* \"#utility.yul\":8118:8135   */\n      add\n        /* \"#utility.yul\":8111:8158   */\n      mstore\n        /* \"#utility.yul\":8175:8251   */\n      tag_244\n        /* \"#utility.yul\":8246:8250   */\n      dup2\n        /* \"#utility.yul\":8237:8243   */\n      dup5\n        /* \"#utility.yul\":8175:8251   */\n      tag_129\n      jump\t// in\n    tag_244:\n        /* \"#utility.yul\":8167:8251   */\n      swap1\n      pop\n        /* \"#utility.yul\":7949:8258   */\n      swap3\n      swap2\n      pop\n      pop\n      jump\t// out\n        /* \"#utility.yul\":8264:8433   */\n    tag_130:\n        /* \"#utility.yul\":8348:8359   */\n      0x00\n        /* \"#utility.yul\":8382:8388   */\n      dup3\n        /* \"#utility.yul\":8377:8380   */\n      dup3\n        /* \"#utility.yul\":8370:8389   */\n      mstore\n        /* \"#utility.yul\":8422:8426   */\n      0x20\n        /* \"#utility.yul\":8417:8420   */\n      dup3\n        /* \"#utility.yul\":8413:8427   */\n      add\n        /* \"#utility.yul\":8398:8427   */\n      swap1\n      pop\n        /* \"#utility.yul\":8264:8433   */\n      swap3\n      swap2\n      pop\n      pop\n      jump\t// out\n        /* \"#utility.yul\":8439:8621   */\n    tag_131:\n        /* \"#utility.yul\":8579:8613   */\n      0x596f7520617265206e6f7420746865206f776e65722c2061626f7274696e6721\n        /* \"#utility.yul\":8575:8576   */\n      0x00\n        /* \"#utility.yul\":8567:8573   */\n      dup3\n        /* \"#utility.yul\":8563:8577   */\n      add\n        /* \"#utility.yul\":8556:8614   */\n      mstore\n        /* \"#utility.yul\":8439:8621   */\n      pop\n      jump\t// out\n        /* \"#utility.yul\":8627:8993   */\n    tag_132:\n        /* \"#utility.yul\":8769:8772   */\n      0x00\n        /* \"#utility.yul\":8790:8857   */\n      tag_248\n        /* \"#utility.yul\":8854:8856   */\n      0x20\n        /* \"#utility.yul\":8849:8852   */\n      dup4\n        /* \"#utility.yul\":8790:8857   */\n      tag_130\n      jump\t// in\n    tag_248:\n        /* \"#utility.yul\":8783:8857   */\n      swap2\n      pop\n        /* \"#utility.yul\":8866:8959   */\n      tag_249\n        /* \"#utility.yul\":8955:8958   */\n      dup3\n        /* \"#utility.yul\":8866:8959   */\n      tag_131\n      jump\t// in\n    tag_249:\n        /* \"#utility.yul\":8984:8986   */\n      0x20\n        /* \"#utility.yul\":8979:8982   */\n      dup3\n        /* \"#utility.yul\":8975:8987   */\n      add\n        /* \"#utility.yul\":8968:8987   */\n      swap1\n      pop\n        /* \"#utility.yul\":8627:8993   */\n      swap2\n      swap1\n      pop\n      jump\t// out\n        /* \"#utility.yul\":8999:9418   */\n    tag_66:\n        /* \"#utility.yul\":9165:9169   */\n      0x00\n        /* \"#utility.yul\":9203:9205   */\n      0x20\n        /* \"#utility.yul\":9192:9201   */\n      dup3\n        /* \"#utility.yul\":9188:9206   */\n      add\n        /* \"#utility.yul\":9180:9206   */\n      swap1\n      pop\n        /* \"#utility.yul\":9252:9261   */\n      dup2\n        /* \"#utility.yul\":9246:9250   */\n      dup2\n        /* \"#utility.yul\":9242:9262   */\n      sub\n        /* \"#utility.yul\":9238:9239   */\n      0x00\n        /* \"#utility.yul\":9227:9236   */\n      dup4\n        /* \"#utility.yul\":9223:9240   */\n      add\n        /* \"#utility.yul\":9216:9263   */\n      mstore\n        /* \"#utility.yul\":9280:9411   */\n      tag_251\n        /* \"#utility.yul\":9406:9410   */\n      dup2\n        /* \"#utility.yul\":9280:9411   */\n      tag_132\n      jump\t// in\n    tag_251:\n        /* \"#utility.yul\":9272:9411   */\n      swap1\n      pop\n        /* \"#utility.yul\":8999:9418   */\n      swap2\n      swap1\n      pop\n      jump\t// out\n        /* \"#utility.yul\":9424:9603   */\n    tag_133:\n        /* \"#utility.yul\":9564:9595   */\n      0x596f7520617265206e6f20677561726469616e2c2061626f7274696e67000000\n        /* \"#utility.yul\":9560:9561   */\n      0x00\n        /* \"#utility.yul\":9552:9558   */\n      dup3\n        /* \"#utility.yul\":9548:9562   */\n      add\n        /* \"#utility.yul\":9541:9596   */\n      mstore\n        /* \"#utility.yul\":9424:9603   */\n      pop\n      jump\t// out\n        /* \"#utility.yul\":9609:9975   */\n    tag_134:\n        /* \"#utility.yul\":9751:9754   */\n      0x00\n        /* \"#utility.yul\":9772:9839   */\n      tag_254\n        /* \"#utility.yul\":9836:9838   */\n      0x1d\n        /* \"#utility.yul\":9831:9834   */\n      dup4\n        /* \"#utility.yul\":9772:9839   */\n      tag_130\n      jump\t// in\n    tag_254:\n        /* \"#utility.yul\":9765:9839   */\n      swap2\n      pop\n        /* \"#utility.yul\":9848:9941   */\n      tag_255\n        /* \"#utility.yul\":9937:9940   */\n      dup3\n        /* \"#utility.yul\":9848:9941   */\n      tag_133\n      jump\t// in\n    tag_255:\n        /* \"#utility.yul\":9966:9968   */\n      0x20\n        /* \"#utility.yul\":9961:9964   */\n      dup3\n        /* \"#utility.yul\":9957:9969   */\n      add\n        /* \"#utility.yul\":9950:9969   */\n      swap1\n      pop\n        /* \"#utility.yul\":9609:9975   */\n      swap2\n      swap1\n      pop\n      jump\t// out\n        /* \"#utility.yul\":9981:10400   */\n    tag_73:\n        /* \"#utility.yul\":10147:10151   */\n      0x00\n        /* \"#utility.yul\":10185:10187   */\n      0x20\n        /* \"#utility.yul\":10174:10183   */\n      dup3\n        /* \"#utility.yul\":10170:10188   */\n      add\n        /* \"#utility.yul\":10162:10188   */\n      swap1\n      pop\n        /* \"#utility.yul\":10234:10243   */\n      dup2\n        /* \"#utility.yul\":10228:10232   */\n      dup2\n        /* \"#utility.yul\":10224:10244   */\n      sub\n        /* \"#utility.yul\":10220:10221   */\n      0x00\n        /* \"#utility.yul\":10209:10218   */\n      dup4\n        /* \"#utility.yul\":10205:10222   */\n      add\n        /* \"#utility.yul\":10198:10245   */\n      mstore\n        /* \"#utility.yul\":10262:10393   */\n      tag_257\n        /* \"#utility.yul\":10388:10392   */\n      dup2\n        /* \"#utility.yul\":10262:10393   */\n      tag_134\n      jump\t// in\n    tag_257:\n        /* \"#utility.yul\":10254:10393   */\n      swap1\n      pop\n        /* \"#utility.yul\":9981:10400   */\n      swap2\n      swap1\n      pop\n      jump\t// out\n        /* \"#utility.yul\":10406:10586   */\n    tag_135:\n        /* \"#utility.yul\":10454:10531   */\n      0x4e487b7100000000000000000000000000000000000000000000000000000000\n        /* \"#utility.yul\":10451:10452   */\n      0x00\n        /* \"#utility.yul\":10444:10532   */\n      mstore\n        /* \"#utility.yul\":10551:10555   */\n      0x11\n        /* \"#utility.yul\":10548:10549   */\n      0x04\n        /* \"#utility.yul\":10541:10556   */\n      mstore\n        /* \"#utility.yul\":10575:10579   */\n      0x24\n        /* \"#utility.yul\":10572:10573   */\n      0x00\n        /* \"#utility.yul\":10565:10580   */\n      revert\n        /* \"#utility.yul\":10592:10825   */\n    tag_76:\n        /* \"#utility.yul\":10631:10634   */\n      0x00\n        /* \"#utility.yul\":10654:10678   */\n      tag_260\n        /* \"#utility.yul\":10672:10677   */\n      dup3\n        /* \"#utility.yul\":10654:10678   */\n      tag_108\n      jump\t// in\n    tag_260:\n        /* \"#utility.yul\":10645:10678   */\n      swap2\n      pop\n        /* \"#utility.yul\":10700:10766   */\n      0xffffffffffffffffffffffffffffffffffffffffffffffffffffffffffffffff\n        /* \"#utility.yul\":10693:10698   */\n      dup3\n        /* \"#utility.yul\":10690:10767   */\n      sub\n        /* \"#utility.yul\":10687:10790   */\n      tag_261\n      jumpi\n        /* \"#utility.yul\":10770:10788   */\n      tag_262\n      tag_135\n      jump\t// in\n    tag_262:\n        /* \"#utility.yul\":10687:10790   */\n    tag_261:\n        /* \"#utility.yul\":10817:10818   */\n      0x01\n        /* \"#utility.yul\":10810:10815   */\n      dup3\n        /* \"#utility.yul\":10806:10819   */\n      add\n        /* \"#utility.yul\":10799:10819   */\n      swap1\n      pop\n        /* \"#utility.yul\":10592:10825   */\n      swap2\n      swap1\n      pop\n      jump\t// out\n        /* \"#utility.yul\":10831:11067   */\n    tag_136:\n        /* \"#utility.yul\":10971:11005   */\n      0x43616e27742073656e64206d6f7265207468616e2074686520636f6e74726163\n        /* \"#utility.yul\":10967:10968   */\n      0x00\n        /* \"#utility.yul\":10959:10965   */\n      dup3\n        /* \"#utility.yul\":10955:10969   */\n      add\n        /* \"#utility.yul\":10948:11006   */\n      mstore\n        /* \"#utility.yul\":11040:11059   */\n      0x74206f776e732c2061626f7274696e672e000000000000000000000000000000\n        /* \"#utility.yul\":11035:11037   */\n      0x20\n        /* \"#utility.yul\":11027:11033   */\n      dup3\n        /* \"#utility.yul\":11023:11038   */\n      add\n        /* \"#utility.yul\":11016:11060   */\n      mstore\n        /* \"#utility.yul\":10831:11067   */\n      pop\n      jump\t// out\n        /* \"#utility.yul\":11073:11439   */\n    tag_137:\n        /* \"#utility.yul\":11215:11218   */\n      0x00\n        /* \"#utility.yul\":11236:11303   */\n      tag_265\n        /* \"#utility.yul\":11300:11302   */\n      0x31\n        /* \"#utility.yul\":11295:11298   */\n      dup4\n        /* \"#utility.yul\":11236:11303   */\n      tag_130\n      jump\t// in\n    tag_265:\n        /* \"#utility.yul\":11229:11303   */\n      swap2\n      pop\n        /* \"#utility.yul\":11312:11405   */\n      tag_266\n        /* \"#utility.yul\":11401:11404   */\n      dup3\n        /* \"#utility.yul\":11312:11405   */\n      tag_136\n      jump\t// in\n    tag_266:\n        /* \"#utility.yul\":11430:11432   */\n      0x40\n        /* \"#utility.yul\":11425:11428   */\n      dup3\n        /* \"#utility.yul\":11421:11433   */\n      add\n        /* \"#utility.yul\":11414:11433   */\n      swap1\n      pop\n        /* \"#utility.yul\":11073:11439   */\n      swap2\n      swap1\n      pop\n      jump\t// out\n        /* \"#utility.yul\":11445:11864   */\n    tag_81:\n        /* \"#utility.yul\":11611:11615   */\n      0x00\n        /* \"#utility.yul\":11649:11651   */\n      0x20\n        /* \"#utility.yul\":11638:11647   */\n      dup3\n        /* \"#utility.yul\":11634:11652   */\n      add\n        /* \"#utility.yul\":11626:11652   */\n      swap1\n      pop\n        /* \"#utility.yul\":11698:11707   */\n      dup2\n        /* \"#utility.yul\":11692:11696   */\n      dup2\n        /* \"#utility.yul\":11688:11708   */\n      sub\n        /* \"#utility.yul\":11684:11685   */\n      0x00\n        /* \"#utility.yul\":11673:11682   */\n      dup4\n        /* \"#utility.yul\":11669:11686   */\n      add\n        /* \"#utility.yul\":11662:11709   */\n      mstore\n        /* \"#utility.yul\":11726:11857   */\n      tag_268\n        /* \"#utility.yul\":11852:11856   */\n      dup2\n        /* \"#utility.yul\":11726:11857   */\n      tag_137\n      jump\t// in\n    tag_268:\n        /* \"#utility.yul\":11718:11857   */\n      swap1\n      pop\n        /* \"#utility.yul\":11445:11864   */\n      swap2\n      swap1\n      pop\n      jump\t// out\n        /* \"#utility.yul\":11870:12111   */\n    tag_138:\n        /* \"#utility.yul\":12010:12044   */\n      0x596f7520617265206e6f7420616c6c6f77656420746f2073656e6420616e7920\n        /* \"#utility.yul\":12006:12007   */\n      0x00\n        /* \"#utility.yul\":11998:12004   */\n      dup3\n        /* \"#utility.yul\":11994:12008   */\n      add\n        /* \"#utility.yul\":11987:12045   */\n      mstore\n        /* \"#utility.yul\":12079:12103   */\n      0x7472616e73616374696f6e732c2061626f7274696e6700000000000000000000\n        /* \"#utility.yul\":12074:12076   */\n      0x20\n        /* \"#utility.yul\":12066:12072   */\n      dup3\n        /* \"#utility.yul\":12062:12077   */\n      add\n        /* \"#utility.yul\":12055:12104   */\n      mstore\n        /* \"#utility.yul\":11870:12111   */\n      pop\n      jump\t// out\n        /* \"#utility.yul\":12117:12483   */\n    tag_139:\n        /* \"#utility.yul\":12259:12262   */\n      0x00\n        /* \"#utility.yul\":12280:12347   */\n      tag_271\n        /* \"#utility.yul\":12344:12346   */\n      0x36\n        /* \"#utility.yul\":12339:12342   */\n      dup4\n        /* \"#utility.yul\":12280:12347   */\n      tag_130\n      jump\t// in\n    tag_271:\n        /* \"#utility.yul\":12273:12347   */\n      swap2\n      pop\n        /* \"#utility.yul\":12356:12449   */\n      tag_272\n        /* \"#utility.yul\":12445:12448   */\n      dup3\n        /* \"#utility.yul\":12356:12449   */\n      tag_138\n      jump\t// in\n    tag_272:\n        /* \"#utility.yul\":12474:12476   */\n      0x40\n        /* \"#utility.yul\":12469:12472   */\n      dup3\n        /* \"#utility.yul\":12465:12477   */\n      add\n        /* \"#utility.yul\":12458:12477   */\n      swap1\n      pop\n        /* \"#utility.yul\":12117:12483   */\n      swap2\n      swap1\n      pop\n      jump\t// out\n        /* \"#utility.yul\":12489:12908   */\n    tag_85:\n        /* \"#utility.yul\":12655:12659   */\n      0x00\n        /* \"#utility.yul\":12693:12695   */\n      0x20\n        /* \"#utility.yul\":12682:12691   */\n      dup3\n        /* \"#utility.yul\":12678:12696   */\n      add\n        /* \"#utility.yul\":12670:12696   */\n      swap1\n      pop\n        /* \"#utility.yul\":12742:12751   */\n      dup2\n        /* \"#utility.yul\":12736:12740   */\n      dup2\n        /* \"#utility.yul\":12732:12752   */\n      sub\n        /* \"#utility.yul\":12728:12729   */\n      0x00\n        /* \"#utility.yul\":12717:12726   */\n      dup4\n        /* \"#utility.yul\":12713:12730   */\n      add\n        /* \"#utility.yul\":12706:12753   */\n      mstore\n        /* \"#utility.yul\":12770:12901   */\n      tag_274\n        /* \"#utility.yul\":12896:12900   */\n      dup2\n        /* \"#utility.yul\":12770:12901   */\n      tag_139\n      jump\t// in\n    tag_274:\n        /* \"#utility.yul\":12762:12901   */\n      swap1\n      pop\n        /* \"#utility.yul\":12489:12908   */\n      swap2\n      swap1\n      pop\n      jump\t// out\n        /* \"#utility.yul\":12914:13162   */\n    tag_140:\n        /* \"#utility.yul\":13054:13088   */\n      0x596f752061726520747279696e6720746f2073656e64206d6f7265207468616e\n        /* \"#utility.yul\":13050:13051   */\n      0x00\n        /* \"#utility.yul\":13042:13048   */\n      dup3\n        /* \"#utility.yul\":13038:13052   */\n      add\n        /* \"#utility.yul\":13031:13089   */\n      mstore\n        /* \"#utility.yul\":13123:13154   */\n      0x20796f752061726520616c6c6f77656420746f2c2061626f7274696e67000000\n        /* \"#utility.yul\":13118:13120   */\n      0x20\n        /* \"#utility.yul\":13110:13116   */\n      dup3\n        /* \"#utility.yul\":13106:13121   */\n      add\n        /* \"#utility.yul\":13099:13155   */\n      mstore\n        /* \"#utility.yul\":12914:13162   */\n      pop\n      jump\t// out\n        /* \"#utility.yul\":13168:13534   */\n    tag_141:\n        /* \"#utility.yul\":13310:13313   */\n      0x00\n        /* \"#utility.yul\":13331:13398   */\n      tag_277\n        /* \"#utility.yul\":13395:13397   */\n      0x3d\n        /* \"#utility.yul\":13390:13393   */\n      dup4\n        /* \"#utility.yul\":13331:13398   */\n      tag_130\n      jump\t// in\n    tag_277:\n        /* \"#utility.yul\":13324:13398   */\n      swap2\n      pop\n        /* \"#utility.yul\":13407:13500   */\n      tag_278\n        /* \"#utility.yul\":13496:13499   */\n      dup3\n        /* \"#utility.yul\":13407:13500   */\n      tag_140\n      jump\t// in\n    tag_278:\n        /* \"#utility.yul\":13525:13527   */\n      0x40\n        /* \"#utility.yul\":13520:13523   */\n      dup3\n        /* \"#utility.yul\":13516:13528   */\n      add\n        /* \"#utility.yul\":13509:13528   */\n      swap1\n      pop\n        /* \"#utility.yul\":13168:13534   */\n      swap2\n      swap1\n      pop\n      jump\t// out\n        /* \"#utility.yul\":13540:13959   */\n    tag_88:\n        /* \"#utility.yul\":13706:13710   */\n      0x00\n        /* \"#utility.yul\":13744:13746   */\n      0x20\n        /* \"#utility.yul\":13733:13742   */\n      dup3\n        /* \"#utility.yul\":13729:13747   */\n      add\n        /* \"#utility.yul\":13721:13747   */\n      swap1\n      pop\n        /* \"#utility.yul\":13793:13802   */\n      dup2\n        /* \"#utility.yul\":13787:13791   */\n      dup2\n        /* \"#utility.yul\":13783:13803   */\n      sub\n        /* \"#utility.yul\":13779:13780   */\n      0x00\n        /* \"#utility.yul\":13768:13777   */\n      dup4\n        /* \"#utility.yul\":13764:13781   */\n      add\n        /* \"#utility.yul\":13757:13804   */\n      mstore\n        /* \"#utility.yul\":13821:13952   */\n      tag_280\n        /* \"#utility.yul\":13947:13951   */\n      dup2\n        /* \"#utility.yul\":13821:13952   */\n      tag_141\n      jump\t// in\n    tag_280:\n        /* \"#utility.yul\":13813:13952   */\n      swap1\n      pop\n        /* \"#utility.yul\":13540:13959   */\n      swap2\n      swap1\n      pop\n      jump\t// out\n        /* \"#utility.yul\":13965:14156   */\n    tag_90:\n        /* \"#utility.yul\":14005:14009   */\n      0x00\n        /* \"#utility.yul\":14025:14045   */\n      tag_282\n        /* \"#utility.yul\":14043:14044   */\n      dup3\n        /* \"#utility.yul\":14025:14045   */\n      tag_108\n      jump\t// in\n    tag_282:\n        /* \"#utility.yul\":14020:14045   */\n      swap2\n      pop\n        /* \"#utility.yul\":14059:14079   */\n      tag_283\n        /* \"#utility.yul\":14077:14078   */\n      dup4\n        /* \"#utility.yul\":14059:14079   */\n      tag_108\n      jump\t// in\n    tag_283:\n        /* \"#utility.yul\":14054:14079   */\n      swap3\n      pop\n        /* \"#utility.yul\":14098:14099   */\n      dup3\n        /* \"#utility.yul\":14095:14096   */\n      dup3\n        /* \"#utility.yul\":14092:14100   */\n      lt\n        /* \"#utility.yul\":14089:14123   */\n      iszero\n      tag_284\n      jumpi\n        /* \"#utility.yul\":14103:14121   */\n      tag_285\n      tag_135\n      jump\t// in\n    tag_285:\n        /* \"#utility.yul\":14089:14123   */\n    tag_284:\n        /* \"#utility.yul\":14148:14149   */\n      dup3\n        /* \"#utility.yul\":14145:14146   */\n      dup3\n        /* \"#utility.yul\":14141:14150   */\n      sub\n        /* \"#utility.yul\":14133:14150   */\n      swap1\n      pop\n        /* \"#utility.yul\":13965:14156   */\n      swap3\n      swap2\n      pop\n      pop\n      jump\t// out\n        /* \"#utility.yul\":14162:14309   */\n    tag_142:\n        /* \"#utility.yul\":14263:14274   */\n      0x00\n        /* \"#utility.yul\":14300:14303   */\n      dup2\n        /* \"#utility.yul\":14285:14303   */\n      swap1\n      pop\n        /* \"#utility.yul\":14162:14309   */\n      swap3\n      swap2\n      pop\n      pop\n      jump\t// out\n        /* \"#utility.yul\":14315:14688   */\n    tag_143:\n        /* \"#utility.yul\":14419:14422   */\n      0x00\n        /* \"#utility.yul\":14447:14485   */\n      tag_288\n        /* \"#utility.yul\":14479:14484   */\n      dup3\n        /* \"#utility.yul\":14447:14485   */\n      tag_126\n      jump\t// in\n    tag_288:\n        /* \"#utility.yul\":14501:14589   */\n      tag_289\n        /* \"#utility.yul\":14582:14588   */\n      dup2\n        /* \"#utility.yul\":14577:14580   */\n      dup6\n        /* \"#utility.yul\":14501:14589   */\n      tag_142\n      jump\t// in\n    tag_289:\n        /* \"#utility.yul\":14494:14589   */\n      swap4\n      pop\n        /* \"#utility.yul\":14598:14650   */\n      tag_290\n        /* \"#utility.yul\":14643:14649   */\n      dup2\n        /* \"#utility.yul\":14638:14641   */\n      dup6\n        /* \"#utility.yul\":14631:14635   */\n      0x20\n        /* \"#utility.yul\":14624:14629   */\n      dup7\n        /* \"#utility.yul\":14620:14636   */\n      add\n        /* \"#utility.yul\":14598:14650   */\n      tag_128\n      jump\t// in\n    tag_290:\n        /* \"#utility.yul\":14675:14681   */\n      dup1\n        /* \"#utility.yul\":14670:14673   */\n      dup5\n        /* \"#utility.yul\":14666:14682   */\n      add\n        /* \"#utility.yul\":14659:14682   */\n      swap2\n      pop\n        /* \"#utility.yul\":14423:14688   */\n      pop\n        /* \"#utility.yul\":14315:14688   */\n      swap3\n      swap2\n      pop\n      pop\n      jump\t// out\n        /* \"#utility.yul\":14694:14965   */\n    tag_92:\n        /* \"#utility.yul\":14824:14827   */\n      0x00\n        /* \"#utility.yul\":14846:14939   */\n      tag_292\n        /* \"#utility.yul\":14935:14938   */\n      dup3\n        /* \"#utility.yul\":14926:14932   */\n      dup5\n        /* \"#utility.yul\":14846:14939   */\n      tag_143\n      jump\t// in\n    tag_292:\n        /* \"#utility.yul\":14839:14939   */\n      swap2\n      pop\n        /* \"#utility.yul\":14956:14959   */\n      dup2\n        /* \"#utility.yul\":14949:14959   */\n      swap1\n      pop\n        /* \"#utility.yul\":14694:14965   */\n      swap3\n      swap2\n      pop\n      pop\n      jump\t// out\n        /* \"#utility.yul\":14971:15149   */\n    tag_144:\n        /* \"#utility.yul\":15111:15141   */\n      0x5472616e73616374696f6e206661696c65642c2061626f7274696e6700000000\n        /* \"#utility.yul\":15107:15108   */\n      0x00\n        /* \"#utility.yul\":15099:15105   */\n      dup3\n        /* \"#utility.yul\":15095:15109   */\n      add\n        /* \"#utility.yul\":15088:15142   */\n      mstore\n        /* \"#utility.yul\":14971:15149   */\n      pop\n      jump\t// out\n        /* \"#utility.yul\":15155:15521   */\n    tag_145:\n        /* \"#utility.yul\":15297:15300   */\n      0x00\n        /* \"#utility.yul\":15318:15385   */\n      tag_295\n        /* \"#utility.yul\":15382:15384   */\n      0x1c\n        /* \"#utility.yul\":15377:15380   */\n      dup4\n        /* \"#utility.yul\":15318:15385   */\n      tag_130\n      jump\t// in\n    tag_295:\n        /* \"#utility.yul\":15311:15385   */\n      swap2\n      pop\n        /* \"#utility.yul\":15394:15487   */\n      tag_296\n        /* \"#utility.yul\":15483:15486   */\n      dup3\n        /* \"#utility.yul\":15394:15487   */\n      tag_144\n      jump\t// in\n    tag_296:\n        /* \"#utility.yul\":15512:15514   */\n      0x20\n        /* \"#utility.yul\":15507:15510   */\n      dup3\n        /* \"#utility.yul\":15503:15515   */\n      add\n        /* \"#utility.yul\":15496:15515   */\n      swap1\n      pop\n        /* \"#utility.yul\":15155:15521   */\n      swap2\n      swap1\n      pop\n      jump\t// out\n        /* \"#utility.yul\":15527:15946   */\n    tag_98:\n        /* \"#utility.yul\":15693:15697   */\n      0x00\n        /* \"#utility.yul\":15731:15733   */\n      0x20\n        /* \"#utility.yul\":15720:15729   */\n      dup3\n        /* \"#utility.yul\":15716:15734   */\n      add\n        /* \"#utility.yul\":15708:15734   */\n      swap1\n      pop\n        /* \"#utility.yul\":15780:15789   */\n      dup2\n        /* \"#utility.yul\":15774:15778   */\n      dup2\n        /* \"#utility.yul\":15770:15790   */\n      sub\n        /* \"#utility.yul\":15766:15767   */\n      0x00\n        /* \"#utility.yul\":15755:15764   */\n      dup4\n        /* \"#utility.yul\":15751:15768   */\n      add\n        /* \"#utility.yul\":15744:15791   */\n      mstore\n        /* \"#utility.yul\":15808:15939   */\n      tag_298\n        /* \"#utility.yul\":15934:15938   */\n      dup2\n        /* \"#utility.yul\":15808:15939   */\n      tag_145\n      jump\t// in\n    tag_298:\n        /* \"#utility.yul\":15800:15939   */\n      swap1\n      pop\n        /* \"#utility.yul\":15527:15946   */\n      swap2\n      swap1\n      pop\n      jump\t// out\n\n    auxdata: 0xa2646970667358221220f3dd36cd18c2515596c12cfb64dbc6cabe6f935919ca1b0cfdad1b3cec6bd3cf64736f6c634300080f0033\n}\n",
				"bytecode": {
					"linkReferences": {},
					"object": "608060405234801561001057600080fd5b50336000806101000a81548173ffffffffffffffffffffffffffffffffffffffff021916908373ffffffffffffffffffffffffffffffffffffffff160217905550611249806100606000396000f3fe60806040526004361061008a5760003560e01c806383012be11161005957806383012be1146101625780638da5cb5b1461018d578063b1f8100d146101b8578063be45fd62146101e1578063f29e22361461021e57610091565b80630bc605ad14610096578063310ec4a7146100d35780633e5beab9146100fc5780637673de531461013957610091565b3661009157005b600080fd5b3480156100a257600080fd5b506100bd60048036038101906100b89190610a13565b61025b565b6040516100ca9190610a5b565b60405180910390f35b3480156100df57600080fd5b506100fa60048036038101906100f59190610aac565b61027b565b005b34801561010857600080fd5b50610123600480360381019061011e9190610a13565b6103a9565b6040516101309190610afb565b60405180910390f35b34801561014557600080fd5b50610160600480360381019061015b9190610a13565b6103c1565b005b34801561016e57600080fd5b506101776104aa565b6040516101849190610afb565b60405180910390f35b34801561019957600080fd5b506101a26104af565b6040516101af9190610b37565b60405180910390f35b3480156101c457600080fd5b506101df60048036038101906101da9190610b7e565b6104d3565b005b3480156101ed57600080fd5b5061020860048036038101906102039190610cf1565b6106c8565b6040516102159190610de8565b60405180910390f35b34801561022a57600080fd5b5061024560048036038101906102409190610a13565b610981565b6040516102529190610a5b565b60405180910390f35b60026020528060005260406000206000915054906101000a900460ff1681565b60008054906101000a900473ffffffffffffffffffffffffffffffffffffffff1673ffffffffffffffffffffffffffffffffffffffff163373ffffffffffffffffffffffffffffffffffffffff1614610309576040517f08c379a000000000000000000000000000000000000000000000000000000000815260040161030090610e67565b60405180910390fd5b80600160008473ffffffffffffffffffffffffffffffffffffffff1673ffffffffffffffffffffffffffffffffffffffff168152602001908152602001600020819055506001600260008473ffffffffffffffffffffffffffffffffffffffff1673ffffffffffffffffffffffffffffffffffffffff16815260200190815260200160002060006101000a81548160ff0219169083151502179055505050565b60016020528060005260406000206000915090505481565b60008054906101000a900473ffffffffffffffffffffffffffffffffffffffff1673ffffffffffffffffffffffffffffffffffffffff163373ffffffffffffffffffffffffffffffffffffffff161461044f576040517f08c379a000000000000000000000000000000000000000000000000000000000815260040161044690610e67565b60405180910390fd5b6000600260008373ffffffffffffffffffffffffffffffffffffffff1673ffffffffffffffffffffffffffffffffffffffff16815260200190815260200160002060006101000a81548160ff02191690831515021790555050565b600381565b60008054906101000a900473ffffffffffffffffffffffffffffffffffffffff1681565b600360003373ffffffffffffffffffffffffffffffffffffffff1673ffffffffffffffffffffffffffffffffffffffff16815260200190815260200160002060009054906101000a900460ff1661055f576040517f08c379a000000000000000000000000000000000000000000000000000000000815260040161055690610ed3565b60405180910390fd5b8073ffffffffffffffffffffffffffffffffffffffff16600460009054906101000a900473ffffffffffffffffffffffffffffffffffffffff1673ffffffffffffffffffffffffffffffffffffffff16146105fe5780600460006101000a81548173ffffffffffffffffffffffffffffffffffffffff021916908373ffffffffffffffffffffffffffffffffffffffff16021790555060006005819055505b6005600081548092919061061190610f22565b91905055506003600554106106c557600460009054906101000a900473ffffffffffffffffffffffffffffffffffffffff166000806101000a81548173ffffffffffffffffffffffffffffffffffffffff021916908373ffffffffffffffffffffffffffffffffffffffff1602179055506000600460006101000a81548173ffffffffffffffffffffffffffffffffffffffff021916908373ffffffffffffffffffffffffffffffffffffffff1602179055505b50565b60604783111561070d576040517f08c379a000000000000000000000000000000000000000000000000000000000815260040161070490610fdc565b60405180910390fd5b60008054906101000a900473ffffffffffffffffffffffffffffffffffffffff1673ffffffffffffffffffffffffffffffffffffffff163373ffffffffffffffffffffffffffffffffffffffff16146108c557600260003373ffffffffffffffffffffffffffffffffffffffff1673ffffffffffffffffffffffffffffffffffffffff16815260200190815260200160002060009054906101000a900460ff166107ec576040517f08c379a00000000000000000000000000000000000000000000000000000000081526004016107e39061106e565b60405180910390fd5b82600160003373ffffffffffffffffffffffffffffffffffffffff1673ffffffffffffffffffffffffffffffffffffffff16815260200190815260200160002054101561086e576040517f08c379a000000000000000000000000000000000000000000000000000000000815260040161086590611100565b60405180910390fd5b82600160003373ffffffffffffffffffffffffffffffffffffffff1673ffffffffffffffffffffffffffffffffffffffff16815260200190815260200160002060008282546108bd9190611120565b925050819055505b6000808573ffffffffffffffffffffffffffffffffffffffff1685856040516108ee9190611190565b60006040518083038185875af1925050503d806000811461092b576040519150601f19603f3d011682016040523d82523d6000602084013e610930565b606091505b509150915081610975576040517f08c379a000000000000000000000000000000000000000000000000000000000815260040161096c906111f3565b60405180910390fd5b80925050509392505050565b60036020528060005260406000206000915054906101000a900460ff1681565b6000604051905090565b600080fd5b600080fd5b600073ffffffffffffffffffffffffffffffffffffffff82169050919050565b60006109e0826109b5565b9050919050565b6109f0816109d5565b81146109fb57600080fd5b50565b600081359050610a0d816109e7565b92915050565b600060208284031215610a2957610a286109ab565b5b6000610a37848285016109fe565b91505092915050565b60008115159050919050565b610a5581610a40565b82525050565b6000602082019050610a706000830184610a4c565b92915050565b6000819050919050565b610a8981610a76565b8114610a9457600080fd5b50565b600081359050610aa681610a80565b92915050565b60008060408385031215610ac357610ac26109ab565b5b6000610ad1858286016109fe565b9250506020610ae285828601610a97565b9150509250929050565b610af581610a76565b82525050565b6000602082019050610b106000830184610aec565b92915050565b6000610b21826109b5565b9050919050565b610b3181610b16565b82525050565b6000602082019050610b4c6000830184610b28565b92915050565b610b5b81610b16565b8114610b6657600080fd5b50565b600081359050610b7881610b52565b92915050565b600060208284031215610b9457610b936109ab565b5b6000610ba284828501610b69565b91505092915050565b600080fd5b600080fd5b6000601f19601f8301169050919050565b7f4e487b7100000000000000000000000000000000000000000000000000000000600052604160045260246000fd5b610bfe82610bb5565b810181811067ffffffffffffffff82111715610c1d57610c1c610bc6565b5b80604052505050565b6000610c306109a1565b9050610c3c8282610bf5565b919050565b600067ffffffffffffffff821115610c5c57610c5b610bc6565b5b610c6582610bb5565b9050602081019050919050565b82818337600083830152505050565b6000610c94610c8f84610c41565b610c26565b905082815260208101848484011115610cb057610caf610bb0565b5b610cbb848285610c72565b509392505050565b600082601f830112610cd857610cd7610bab565b5b8135610ce8848260208601610c81565b91505092915050565b600080600060608486031215610d0a57610d096109ab565b5b6000610d1886828701610b69565b9350506020610d2986828701610a97565b925050604084013567ffffffffffffffff811115610d4a57610d496109b0565b5b610d5686828701610cc3565b9150509250925092565b600081519050919050565b600082825260208201905092915050565b60005b83811015610d9a578082015181840152602081019050610d7f565b83811115610da9576000848401525b50505050565b6000610dba82610d60565b610dc48185610d6b565b9350610dd4818560208601610d7c565b610ddd81610bb5565b840191505092915050565b60006020820190508181036000830152610e028184610daf565b905092915050565b600082825260208201905092915050565b7f596f7520617265206e6f7420746865206f776e65722c2061626f7274696e6721600082015250565b6000610e51602083610e0a565b9150610e5c82610e1b565b602082019050919050565b60006020820190508181036000830152610e8081610e44565b9050919050565b7f596f7520617265206e6f20677561726469616e2c2061626f7274696e67000000600082015250565b6000610ebd601d83610e0a565b9150610ec882610e87565b602082019050919050565b60006020820190508181036000830152610eec81610eb0565b9050919050565b7f4e487b7100000000000000000000000000000000000000000000000000000000600052601160045260246000fd5b6000610f2d82610a76565b91507fffffffffffffffffffffffffffffffffffffffffffffffffffffffffffffffff8203610f5f57610f5e610ef3565b5b600182019050919050565b7f43616e27742073656e64206d6f7265207468616e2074686520636f6e7472616360008201527f74206f776e732c2061626f7274696e672e000000000000000000000000000000602082015250565b6000610fc6603183610e0a565b9150610fd182610f6a565b604082019050919050565b60006020820190508181036000830152610ff581610fb9565b9050919050565b7f596f7520617265206e6f7420616c6c6f77656420746f2073656e6420616e792060008201527f7472616e73616374696f6e732c2061626f7274696e6700000000000000000000602082015250565b6000611058603683610e0a565b915061106382610ffc565b604082019050919050565b600060208201905081810360008301526110878161104b565b9050919050565b7f596f752061726520747279696e6720746f2073656e64206d6f7265207468616e60008201527f20796f752061726520616c6c6f77656420746f2c2061626f7274696e67000000602082015250565b60006110ea603d83610e0a565b91506110f58261108e565b604082019050919050565b60006020820190508181036000830152611119816110dd565b9050919050565b600061112b82610a76565b915061113683610a76565b92508282101561114957611148610ef3565b5b828203905092915050565b600081905092915050565b600061116a82610d60565b6111748185611154565b9350611184818560208601610d7c565b80840191505092915050565b600061119c828461115f565b915081905092915050565b7f5472616e73616374696f6e206661696c65642c2061626f7274696e6700000000600082015250565b60006111dd601c83610e0a565b91506111e8826111a7565b602082019050919050565b6000602082019050818103600083015261120c816111d0565b905091905056fea2646970667358221220f3dd36cd18c2515596c12cfb64dbc6cabe6f935919ca1b0cfdad1b3cec6bd3cf64736f6c634300080f0033",
					"opcodes": "PUSH1 0x80 PUSH1 0x40 MSTORE CALLVALUE DUP1 ISZERO PUSH2 0x10 JUMPI PUSH1 0x0 DUP1 REVERT JUMPDEST POP CALLER PUSH1 0x0 DUP1 PUSH2 0x100 EXP DUP2 SLOAD DUP2 PUSH20 0xFFFFFFFFFFFFFFFFFFFFFFFFFFFFFFFFFFFFFFFF MUL NOT AND SWAP1 DUP4 PUSH20 0xFFFFFFFFFFFFFFFFFFFFFFFFFFFFFFFFFFFFFFFF AND MUL OR SWAP1 SSTORE POP PUSH2 0x1249 DUP1 PUSH2 0x60 PUSH1 0x0 CODECOPY PUSH1 0x0 RETURN INVALID PUSH1 0x80 PUSH1 0x40 MSTORE PUSH1 0x4 CALLDATASIZE LT PUSH2 0x8A JUMPI PUSH1 0x0 CALLDATALOAD PUSH1 0xE0 SHR DUP1 PUSH4 0x83012BE1 GT PUSH2 0x59 JUMPI DUP1 PUSH4 0x83012BE1 EQ PUSH2 0x162 JUMPI DUP1 PUSH4 0x8DA5CB5B EQ PUSH2 0x18D JUMPI DUP1 PUSH4 0xB1F8100D EQ PUSH2 0x1B8 JUMPI DUP1 PUSH4 0xBE45FD62 EQ PUSH2 0x1E1 JUMPI DUP1 PUSH4 0xF29E2236 EQ PUSH2 0x21E JUMPI PUSH2 0x91 JUMP JUMPDEST DUP1 PUSH4 0xBC605AD EQ PUSH2 0x96 JUMPI DUP1 PUSH4 0x310EC4A7 EQ PUSH2 0xD3 JUMPI DUP1 PUSH4 0x3E5BEAB9 EQ PUSH2 0xFC JUMPI DUP1 PUSH4 0x7673DE53 EQ PUSH2 0x139 JUMPI PUSH2 0x91 JUMP JUMPDEST CALLDATASIZE PUSH2 0x91 JUMPI STOP JUMPDEST PUSH1 0x0 DUP1 REVERT JUMPDEST CALLVALUE DUP1 ISZERO PUSH2 0xA2 JUMPI PUSH1 0x0 DUP1 REVERT JUMPDEST POP PUSH2 0xBD PUSH1 0x4 DUP1 CALLDATASIZE SUB DUP2 ADD SWAP1 PUSH2 0xB8 SWAP2 SWAP1 PUSH2 0xA13 JUMP JUMPDEST PUSH2 0x25B JUMP JUMPDEST PUSH1 0x40 MLOAD PUSH2 0xCA SWAP2 SWAP1 PUSH2 0xA5B JUMP JUMPDEST PUSH1 0x40 MLOAD DUP1 SWAP2 SUB SWAP1 RETURN JUMPDEST CALLVALUE DUP1 ISZERO PUSH2 0xDF JUMPI PUSH1 0x0 DUP1 REVERT JUMPDEST POP PUSH2 0xFA PUSH1 0x4 DUP1 CALLDATASIZE SUB DUP2 ADD SWAP1 PUSH2 0xF5 SWAP2 SWAP1 PUSH2 0xAAC JUMP JUMPDEST PUSH2 0x27B JUMP JUMPDEST STOP JUMPDEST CALLVALUE DUP1 ISZERO PUSH2 0x108 JUMPI PUSH1 0x0 DUP1 REVERT JUMPDEST POP PUSH2 0x123 PUSH1 0x4 DUP1 CALLDATASIZE SUB DUP2 ADD SWAP1 PUSH2 0x11E SWAP2 SWAP1 PUSH2 0xA13 JUMP JUMPDEST PUSH2 0x3A9 JUMP JUMPDEST PUSH1 0x40 MLOAD PUSH2 0x130 SWAP2 SWAP1 PUSH2 0xAFB JUMP JUMPDEST PUSH1 0x40 MLOAD DUP1 SWAP2 SUB SWAP1 RETURN JUMPDEST CALLVALUE DUP1 ISZERO PUSH2 0x145 JUMPI PUSH1 0x0 DUP1 REVERT JUMPDEST POP PUSH2 0x160 PUSH1 0x4 DUP1 CALLDATASIZE SUB DUP2 ADD SWAP1 PUSH2 0x15B SWAP2 SWAP1 PUSH2 0xA13 JUMP JUMPDEST PUSH2 0x3C1 JUMP JUMPDEST STOP JUMPDEST CALLVALUE DUP1 ISZERO PUSH2 0x16E JUMPI PUSH1 0x0 DUP1 REVERT JUMPDEST POP PUSH2 0x177 PUSH2 0x4AA JUMP JUMPDEST PUSH1 0x40 MLOAD PUSH2 0x184 SWAP2 SWAP1 PUSH2 0xAFB JUMP JUMPDEST PUSH1 0x40 MLOAD DUP1 SWAP2 SUB SWAP1 RETURN JUMPDEST CALLVALUE DUP1 ISZERO PUSH2 0x199 JUMPI PUSH1 0x0 DUP1 REVERT JUMPDEST POP PUSH2 0x1A2 PUSH2 0x4AF JUMP JUMPDEST PUSH1 0x40 MLOAD PUSH2 0x1AF SWAP2 SWAP1 PUSH2 0xB37 JUMP JUMPDEST PUSH1 0x40 MLOAD DUP1 SWAP2 SUB SWAP1 RETURN JUMPDEST CALLVALUE DUP1 ISZERO PUSH2 0x1C4 JUMPI PUSH1 0x0 DUP1 REVERT JUMPDEST POP PUSH2 0x1DF PUSH1 0x4 DUP1 CALLDATASIZE SUB DUP2 ADD SWAP1 PUSH2 0x1DA SWAP2 SWAP1 PUSH2 0xB7E JUMP JUMPDEST PUSH2 0x4D3 JUMP JUMPDEST STOP JUMPDEST CALLVALUE DUP1 ISZERO PUSH2 0x1ED JUMPI PUSH1 0x0 DUP1 REVERT JUMPDEST POP PUSH2 0x208 PUSH1 0x4 DUP1 CALLDATASIZE SUB DUP2 ADD SWAP1 PUSH2 0x203 SWAP2 SWAP1 PUSH2 0xCF1 JUMP JUMPDEST PUSH2 0x6C8 JUMP JUMPDEST PUSH1 0x40 MLOAD PUSH2 0x215 SWAP2 SWAP1 PUSH2 0xDE8 JUMP JUMPDEST PUSH1 0x40 MLOAD DUP1 SWAP2 SUB SWAP1 RETURN JUMPDEST CALLVALUE DUP1 ISZERO PUSH2 0x22A JUMPI PUSH1 0x0 DUP1 REVERT JUMPDEST POP PUSH2 0x245 PUSH1 0x4 DUP1 CALLDATASIZE SUB DUP2 ADD SWAP1 PUSH2 0x240 SWAP2 SWAP1 PUSH2 0xA13 JUMP JUMPDEST PUSH2 0x981 JUMP JUMPDEST PUSH1 0x40 MLOAD PUSH2 0x252 SWAP2 SWAP1 PUSH2 0xA5B JUMP JUMPDEST PUSH1 0x40 MLOAD DUP1 SWAP2 SUB SWAP1 RETURN JUMPDEST PUSH1 0x2 PUSH1 0x20 MSTORE DUP1 PUSH1 0x0 MSTORE PUSH1 0x40 PUSH1 0x0 KECCAK256 PUSH1 0x0 SWAP2 POP SLOAD SWAP1 PUSH2 0x100 EXP SWAP1 DIV PUSH1 0xFF AND DUP2 JUMP JUMPDEST PUSH1 0x0 DUP1 SLOAD SWAP1 PUSH2 0x100 EXP SWAP1 DIV PUSH20 0xFFFFFFFFFFFFFFFFFFFFFFFFFFFFFFFFFFFFFFFF AND PUSH20 0xFFFFFFFFFFFFFFFFFFFFFFFFFFFFFFFFFFFFFFFF AND CALLER PUSH20 0xFFFFFFFFFFFFFFFFFFFFFFFFFFFFFFFFFFFFFFFF AND EQ PUSH2 0x309 JUMPI PUSH1 0x40 MLOAD PUSH32 0x8C379A000000000000000000000000000000000000000000000000000000000 DUP2 MSTORE PUSH1 0x4 ADD PUSH2 0x300 SWAP1 PUSH2 0xE67 JUMP JUMPDEST PUSH1 0x40 MLOAD DUP1 SWAP2 SUB SWAP1 REVERT JUMPDEST DUP1 PUSH1 0x1 PUSH1 0x0 DUP5 PUSH20 0xFFFFFFFFFFFFFFFFFFFFFFFFFFFFFFFFFFFFFFFF AND PUSH20 0xFFFFFFFFFFFFFFFFFFFFFFFFFFFFFFFFFFFFFFFF AND DUP2 MSTORE PUSH1 0x20 ADD SWAP1 DUP2 MSTORE PUSH1 0x20 ADD PUSH1 0x0 KECCAK256 DUP2 SWAP1 SSTORE POP PUSH1 0x1 PUSH1 0x2 PUSH1 0x0 DUP5 PUSH20 0xFFFFFFFFFFFFFFFFFFFFFFFFFFFFFFFFFFFFFFFF AND PUSH20 0xFFFFFFFFFFFFFFFFFFFFFFFFFFFFFFFFFFFFFFFF AND DUP2 MSTORE PUSH1 0x20 ADD SWAP1 DUP2 MSTORE PUSH1 0x20 ADD PUSH1 0x0 KECCAK256 PUSH1 0x0 PUSH2 0x100 EXP DUP2 SLOAD DUP2 PUSH1 0xFF MUL NOT AND SWAP1 DUP4 ISZERO ISZERO MUL OR SWAP1 SSTORE POP POP POP JUMP JUMPDEST PUSH1 0x1 PUSH1 0x20 MSTORE DUP1 PUSH1 0x0 MSTORE PUSH1 0x40 PUSH1 0x0 KECCAK256 PUSH1 0x0 SWAP2 POP SWAP1 POP SLOAD DUP2 JUMP JUMPDEST PUSH1 0x0 DUP1 SLOAD SWAP1 PUSH2 0x100 EXP SWAP1 DIV PUSH20 0xFFFFFFFFFFFFFFFFFFFFFFFFFFFFFFFFFFFFFFFF AND PUSH20 0xFFFFFFFFFFFFFFFFFFFFFFFFFFFFFFFFFFFFFFFF AND CALLER PUSH20 0xFFFFFFFFFFFFFFFFFFFFFFFFFFFFFFFFFFFFFFFF AND EQ PUSH2 0x44F JUMPI PUSH1 0x40 MLOAD PUSH32 0x8C379A000000000000000000000000000000000000000000000000000000000 DUP2 MSTORE PUSH1 0x4 ADD PUSH2 0x446 SWAP1 PUSH2 0xE67 JUMP JUMPDEST PUSH1 0x40 MLOAD DUP1 SWAP2 SUB SWAP1 REVERT JUMPDEST PUSH1 0x0 PUSH1 0x2 PUSH1 0x0 DUP4 PUSH20 0xFFFFFFFFFFFFFFFFFFFFFFFFFFFFFFFFFFFFFFFF AND PUSH20 0xFFFFFFFFFFFFFFFFFFFFFFFFFFFFFFFFFFFFFFFF AND DUP2 MSTORE PUSH1 0x20 ADD SWAP1 DUP2 MSTORE PUSH1 0x20 ADD PUSH1 0x0 KECCAK256 PUSH1 0x0 PUSH2 0x100 EXP DUP2 SLOAD DUP2 PUSH1 0xFF MUL NOT AND SWAP1 DUP4 ISZERO ISZERO MUL OR SWAP1 SSTORE POP POP JUMP JUMPDEST PUSH1 0x3 DUP2 JUMP JUMPDEST PUSH1 0x0 DUP1 SLOAD SWAP1 PUSH2 0x100 EXP SWAP1 DIV PUSH20 0xFFFFFFFFFFFFFFFFFFFFFFFFFFFFFFFFFFFFFFFF AND DUP2 JUMP JUMPDEST PUSH1 0x3 PUSH1 0x0 CALLER PUSH20 0xFFFFFFFFFFFFFFFFFFFFFFFFFFFFFFFFFFFFFFFF AND PUSH20 0xFFFFFFFFFFFFFFFFFFFFFFFFFFFFFFFFFFFFFFFF AND DUP2 MSTORE PUSH1 0x20 ADD SWAP1 DUP2 MSTORE PUSH1 0x20 ADD PUSH1 0x0 KECCAK256 PUSH1 0x0 SWAP1 SLOAD SWAP1 PUSH2 0x100 EXP SWAP1 DIV PUSH1 0xFF AND PUSH2 0x55F JUMPI PUSH1 0x40 MLOAD PUSH32 0x8C379A000000000000000000000000000000000000000000000000000000000 DUP2 MSTORE PUSH1 0x4 ADD PUSH2 0x556 SWAP1 PUSH2 0xED3 JUMP JUMPDEST PUSH1 0x40 MLOAD DUP1 SWAP2 SUB SWAP1 REVERT JUMPDEST DUP1 PUSH20 0xFFFFFFFFFFFFFFFFFFFFFFFFFFFFFFFFFFFFFFFF AND PUSH1 0x4 PUSH1 0x0 SWAP1 SLOAD SWAP1 PUSH2 0x100 EXP SWAP1 DIV PUSH20 0xFFFFFFFFFFFFFFFFFFFFFFFFFFFFFFFFFFFFFFFF AND PUSH20 0xFFFFFFFFFFFFFFFFFFFFFFFFFFFFFFFFFFFFFFFF AND EQ PUSH2 0x5FE JUMPI DUP1 PUSH1 0x4 PUSH1 0x0 PUSH2 0x100 EXP DUP2 SLOAD DUP2 PUSH20 0xFFFFFFFFFFFFFFFFFFFFFFFFFFFFFFFFFFFFFFFF MUL NOT AND SWAP1 DUP4 PUSH20 0xFFFFFFFFFFFFFFFFFFFFFFFFFFFFFFFFFFFFFFFF AND MUL OR SWAP1 SSTORE POP PUSH1 0x0 PUSH1 0x5 DUP2 SWAP1 SSTORE POP JUMPDEST PUSH1 0x5 PUSH1 0x0 DUP2 SLOAD DUP1 SWAP3 SWAP2 SWAP1 PUSH2 0x611 SWAP1 PUSH2 0xF22 JUMP JUMPDEST SWAP2 SWAP1 POP SSTORE POP PUSH1 0x3 PUSH1 0x5 SLOAD LT PUSH2 0x6C5 JUMPI PUSH1 0x4 PUSH1 0x0 SWAP1 SLOAD SWAP1 PUSH2 0x100 EXP SWAP1 DIV PUSH20 0xFFFFFFFFFFFFFFFFFFFFFFFFFFFFFFFFFFFFFFFF AND PUSH1 0x0 DUP1 PUSH2 0x100 EXP DUP2 SLOAD DUP2 PUSH20 0xFFFFFFFFFFFFFFFFFFFFFFFFFFFFFFFFFFFFFFFF MUL NOT AND SWAP1 DUP4 PUSH20 0xFFFFFFFFFFFFFFFFFFFFFFFFFFFFFFFFFFFFFFFF AND MUL OR SWAP1 SSTORE POP PUSH1 0x0 PUSH1 0x4 PUSH1 0x0 PUSH2 0x100 EXP DUP2 SLOAD DUP2 PUSH20 0xFFFFFFFFFFFFFFFFFFFFFFFFFFFFFFFFFFFFFFFF MUL NOT AND SWAP1 DUP4 PUSH20 0xFFFFFFFFFFFFFFFFFFFFFFFFFFFFFFFFFFFFFFFF AND MUL OR SWAP1 SSTORE POP JUMPDEST POP JUMP JUMPDEST PUSH1 0x60 SELFBALANCE DUP4 GT ISZERO PUSH2 0x70D JUMPI PUSH1 0x40 MLOAD PUSH32 0x8C379A000000000000000000000000000000000000000000000000000000000 DUP2 MSTORE PUSH1 0x4 ADD PUSH2 0x704 SWAP1 PUSH2 0xFDC JUMP JUMPDEST PUSH1 0x40 MLOAD DUP1 SWAP2 SUB SWAP1 REVERT JUMPDEST PUSH1 0x0 DUP1 SLOAD SWAP1 PUSH2 0x100 EXP SWAP1 DIV PUSH20 0xFFFFFFFFFFFFFFFFFFFFFFFFFFFFFFFFFFFFFFFF AND PUSH20 0xFFFFFFFFFFFFFFFFFFFFFFFFFFFFFFFFFFFFFFFF AND CALLER PUSH20 0xFFFFFFFFFFFFFFFFFFFFFFFFFFFFFFFFFFFFFFFF AND EQ PUSH2 0x8C5 JUMPI PUSH1 0x2 PUSH1 0x0 CALLER PUSH20 0xFFFFFFFFFFFFFFFFFFFFFFFFFFFFFFFFFFFFFFFF AND PUSH20 0xFFFFFFFFFFFFFFFFFFFFFFFFFFFFFFFFFFFFFFFF AND DUP2 MSTORE PUSH1 0x20 ADD SWAP1 DUP2 MSTORE PUSH1 0x20 ADD PUSH1 0x0 KECCAK256 PUSH1 0x0 SWAP1 SLOAD SWAP1 PUSH2 0x100 EXP SWAP1 DIV PUSH1 0xFF AND PUSH2 0x7EC JUMPI PUSH1 0x40 MLOAD PUSH32 0x8C379A000000000000000000000000000000000000000000000000000000000 DUP2 MSTORE PUSH1 0x4 ADD PUSH2 0x7E3 SWAP1 PUSH2 0x106E JUMP JUMPDEST PUSH1 0x40 MLOAD DUP1 SWAP2 SUB SWAP1 REVERT JUMPDEST DUP3 PUSH1 0x1 PUSH1 0x0 CALLER PUSH20 0xFFFFFFFFFFFFFFFFFFFFFFFFFFFFFFFFFFFFFFFF AND PUSH20 0xFFFFFFFFFFFFFFFFFFFFFFFFFFFFFFFFFFFFFFFF AND DUP2 MSTORE PUSH1 0x20 ADD SWAP1 DUP2 MSTORE PUSH1 0x20 ADD PUSH1 0x0 KECCAK256 SLOAD LT ISZERO PUSH2 0x86E JUMPI PUSH1 0x40 MLOAD PUSH32 0x8C379A000000000000000000000000000000000000000000000000000000000 DUP2 MSTORE PUSH1 0x4 ADD PUSH2 0x865 SWAP1 PUSH2 0x1100 JUMP JUMPDEST PUSH1 0x40 MLOAD DUP1 SWAP2 SUB SWAP1 REVERT JUMPDEST DUP3 PUSH1 0x1 PUSH1 0x0 CALLER PUSH20 0xFFFFFFFFFFFFFFFFFFFFFFFFFFFFFFFFFFFFFFFF AND PUSH20 0xFFFFFFFFFFFFFFFFFFFFFFFFFFFFFFFFFFFFFFFF AND DUP2 MSTORE PUSH1 0x20 ADD SWAP1 DUP2 MSTORE PUSH1 0x20 ADD PUSH1 0x0 KECCAK256 PUSH1 0x0 DUP3 DUP3 SLOAD PUSH2 0x8BD SWAP2 SWAP1 PUSH2 0x1120 JUMP JUMPDEST SWAP3 POP POP DUP2 SWAP1 SSTORE POP JUMPDEST PUSH1 0x0 DUP1 DUP6 PUSH20 0xFFFFFFFFFFFFFFFFFFFFFFFFFFFFFFFFFFFFFFFF AND DUP6 DUP6 PUSH1 0x40 MLOAD PUSH2 0x8EE SWAP2 SWAP1 PUSH2 0x1190 JUMP JUMPDEST PUSH1 0x0 PUSH1 0x40 MLOAD DUP1 DUP4 SUB DUP2 DUP6 DUP8 GAS CALL SWAP3 POP POP POP RETURNDATASIZE DUP1 PUSH1 0x0 DUP2 EQ PUSH2 0x92B JUMPI PUSH1 0x40 MLOAD SWAP2 POP PUSH1 0x1F NOT PUSH1 0x3F RETURNDATASIZE ADD AND DUP3 ADD PUSH1 0x40 MSTORE RETURNDATASIZE DUP3 MSTORE RETURNDATASIZE PUSH1 0x0 PUSH1 0x20 DUP5 ADD RETURNDATACOPY PUSH2 0x930 JUMP JUMPDEST PUSH1 0x60 SWAP2 POP JUMPDEST POP SWAP2 POP SWAP2 POP DUP2 PUSH2 0x975 JUMPI PUSH1 0x40 MLOAD PUSH32 0x8C379A000000000000000000000000000000000000000000000000000000000 DUP2 MSTORE PUSH1 0x4 ADD PUSH2 0x96C SWAP1 PUSH2 0x11F3 JUMP JUMPDEST PUSH1 0x40 MLOAD DUP1 SWAP2 SUB SWAP1 REVERT JUMPDEST DUP1 SWAP3 POP POP POP SWAP4 SWAP3 POP POP POP JUMP JUMPDEST PUSH1 0x3 PUSH1 0x20 MSTORE DUP1 PUSH1 0x0 MSTORE PUSH1 0x40 PUSH1 0x0 KECCAK256 PUSH1 0x0 SWAP2 POP SLOAD SWAP1 PUSH2 0x100 EXP SWAP1 DIV PUSH1 0xFF AND DUP2 JUMP JUMPDEST PUSH1 0x0 PUSH1 0x40 MLOAD SWAP1 POP SWAP1 JUMP JUMPDEST PUSH1 0x0 DUP1 REVERT JUMPDEST PUSH1 0x0 DUP1 REVERT JUMPDEST PUSH1 0x0 PUSH20 0xFFFFFFFFFFFFFFFFFFFFFFFFFFFFFFFFFFFFFFFF DUP3 AND SWAP1 POP SWAP2 SWAP1 POP JUMP JUMPDEST PUSH1 0x0 PUSH2 0x9E0 DUP3 PUSH2 0x9B5 JUMP JUMPDEST SWAP1 POP SWAP2 SWAP1 POP JUMP JUMPDEST PUSH2 0x9F0 DUP2 PUSH2 0x9D5 JUMP JUMPDEST DUP2 EQ PUSH2 0x9FB JUMPI PUSH1 0x0 DUP1 REVERT JUMPDEST POP JUMP JUMPDEST PUSH1 0x0 DUP2 CALLDATALOAD SWAP1 POP PUSH2 0xA0D DUP2 PUSH2 0x9E7 JUMP JUMPDEST SWAP3 SWAP2 POP POP JUMP JUMPDEST PUSH1 0x0 PUSH1 0x20 DUP3 DUP5 SUB SLT ISZERO PUSH2 0xA29 JUMPI PUSH2 0xA28 PUSH2 0x9AB JUMP JUMPDEST JUMPDEST PUSH1 0x0 PUSH2 0xA37 DUP5 DUP3 DUP6 ADD PUSH2 0x9FE JUMP JUMPDEST SWAP2 POP POP SWAP3 SWAP2 POP POP JUMP JUMPDEST PUSH1 0x0 DUP2 ISZERO ISZERO SWAP1 POP SWAP2 SWAP1 POP JUMP JUMPDEST PUSH2 0xA55 DUP2 PUSH2 0xA40 JUMP JUMPDEST DUP3 MSTORE POP POP JUMP JUMPDEST PUSH1 0x0 PUSH1 0x20 DUP3 ADD SWAP1 POP PUSH2 0xA70 PUSH1 0x0 DUP4 ADD DUP5 PUSH2 0xA4C JUMP JUMPDEST SWAP3 SWAP2 POP POP JUMP JUMPDEST PUSH1 0x0 DUP2 SWAP1 POP SWAP2 SWAP1 POP JUMP JUMPDEST PUSH2 0xA89 DUP2 PUSH2 0xA76 JUMP JUMPDEST DUP2 EQ PUSH2 0xA94 JUMPI PUSH1 0x0 DUP1 REVERT JUMPDEST POP JUMP JUMPDEST PUSH1 0x0 DUP2 CALLDATALOAD SWAP1 POP PUSH2 0xAA6 DUP2 PUSH2 0xA80 JUMP JUMPDEST SWAP3 SWAP2 POP POP JUMP JUMPDEST PUSH1 0x0 DUP1 PUSH1 0x40 DUP4 DUP6 SUB SLT ISZERO PUSH2 0xAC3 JUMPI PUSH2 0xAC2 PUSH2 0x9AB JUMP JUMPDEST JUMPDEST PUSH1 0x0 PUSH2 0xAD1 DUP6 DUP3 DUP7 ADD PUSH2 0x9FE JUMP JUMPDEST SWAP3 POP POP PUSH1 0x20 PUSH2 0xAE2 DUP6 DUP3 DUP7 ADD PUSH2 0xA97 JUMP JUMPDEST SWAP2 POP POP SWAP3 POP SWAP3 SWAP1 POP JUMP JUMPDEST PUSH2 0xAF5 DUP2 PUSH2 0xA76 JUMP JUMPDEST DUP3 MSTORE POP POP JUMP JUMPDEST PUSH1 0x0 PUSH1 0x20 DUP3 ADD SWAP1 POP PUSH2 0xB10 PUSH1 0x0 DUP4 ADD DUP5 PUSH2 0xAEC JUMP JUMPDEST SWAP3 SWAP2 POP POP JUMP JUMPDEST PUSH1 0x0 PUSH2 0xB21 DUP3 PUSH2 0x9B5 JUMP JUMPDEST SWAP1 POP SWAP2 SWAP1 POP JUMP JUMPDEST PUSH2 0xB31 DUP2 PUSH2 0xB16 JUMP JUMPDEST DUP3 MSTORE POP POP JUMP JUMPDEST PUSH1 0x0 PUSH1 0x20 DUP3 ADD SWAP1 POP PUSH2 0xB4C PUSH1 0x0 DUP4 ADD DUP5 PUSH2 0xB28 JUMP JUMPDEST SWAP3 SWAP2 POP POP JUMP JUMPDEST PUSH2 0xB5B DUP2 PUSH2 0xB16 JUMP JUMPDEST DUP2 EQ PUSH2 0xB66 JUMPI PUSH1 0x0 DUP1 REVERT JUMPDEST POP JUMP JUMPDEST PUSH1 0x0 DUP2 CALLDATALOAD SWAP1 POP PUSH2 0xB78 DUP2 PUSH2 0xB52 JUMP JUMPDEST SWAP3 SWAP2 POP POP JUMP JUMPDEST PUSH1 0x0 PUSH1 0x20 DUP3 DUP5 SUB SLT ISZERO PUSH2 0xB94 JUMPI PUSH2 0xB93 PUSH2 0x9AB JUMP JUMPDEST JUMPDEST PUSH1 0x0 PUSH2 0xBA2 DUP5 DUP3 DUP6 ADD PUSH2 0xB69 JUMP JUMPDEST SWAP2 POP POP SWAP3 SWAP2 POP POP JUMP JUMPDEST PUSH1 0x0 DUP1 REVERT JUMPDEST PUSH1 0x0 DUP1 REVERT JUMPDEST PUSH1 0x0 PUSH1 0x1F NOT PUSH1 0x1F DUP4 ADD AND SWAP1 POP SWAP2 SWAP1 POP JUMP JUMPDEST PUSH32 0x4E487B7100000000000000000000000000000000000000000000000000000000 PUSH1 0x0 MSTORE PUSH1 0x41 PUSH1 0x4 MSTORE PUSH1 0x24 PUSH1 0x0 REVERT JUMPDEST PUSH2 0xBFE DUP3 PUSH2 0xBB5 JUMP JUMPDEST DUP2 ADD DUP2 DUP2 LT PUSH8 0xFFFFFFFFFFFFFFFF DUP3 GT OR ISZERO PUSH2 0xC1D JUMPI PUSH2 0xC1C PUSH2 0xBC6 JUMP JUMPDEST JUMPDEST DUP1 PUSH1 0x40 MSTORE POP POP POP JUMP JUMPDEST PUSH1 0x0 PUSH2 0xC30 PUSH2 0x9A1 JUMP JUMPDEST SWAP1 POP PUSH2 0xC3C DUP3 DUP3 PUSH2 0xBF5 JUMP JUMPDEST SWAP2 SWAP1 POP JUMP JUMPDEST PUSH1 0x0 PUSH8 0xFFFFFFFFFFFFFFFF DUP3 GT ISZERO PUSH2 0xC5C JUMPI PUSH2 0xC5B PUSH2 0xBC6 JUMP JUMPDEST JUMPDEST PUSH2 0xC65 DUP3 PUSH2 0xBB5 JUMP JUMPDEST SWAP1 POP PUSH1 0x20 DUP2 ADD SWAP1 POP SWAP2 SWAP1 POP JUMP JUMPDEST DUP3 DUP2 DUP4 CALLDATACOPY PUSH1 0x0 DUP4 DUP4 ADD MSTORE POP POP POP JUMP JUMPDEST PUSH1 0x0 PUSH2 0xC94 PUSH2 0xC8F DUP5 PUSH2 0xC41 JUMP JUMPDEST PUSH2 0xC26 JUMP JUMPDEST SWAP1 POP DUP3 DUP2 MSTORE PUSH1 0x20 DUP2 ADD DUP5 DUP5 DUP5 ADD GT ISZERO PUSH2 0xCB0 JUMPI PUSH2 0xCAF PUSH2 0xBB0 JUMP JUMPDEST JUMPDEST PUSH2 0xCBB DUP5 DUP3 DUP6 PUSH2 0xC72 JUMP JUMPDEST POP SWAP4 SWAP3 POP POP POP JUMP JUMPDEST PUSH1 0x0 DUP3 PUSH1 0x1F DUP4 ADD SLT PUSH2 0xCD8 JUMPI PUSH2 0xCD7 PUSH2 0xBAB JUMP JUMPDEST JUMPDEST DUP2 CALLDATALOAD PUSH2 0xCE8 DUP5 DUP3 PUSH1 0x20 DUP7 ADD PUSH2 0xC81 JUMP JUMPDEST SWAP2 POP POP SWAP3 SWAP2 POP POP JUMP JUMPDEST PUSH1 0x0 DUP1 PUSH1 0x0 PUSH1 0x60 DUP5 DUP7 SUB SLT ISZERO PUSH2 0xD0A JUMPI PUSH2 0xD09 PUSH2 0x9AB JUMP JUMPDEST JUMPDEST PUSH1 0x0 PUSH2 0xD18 DUP7 DUP3 DUP8 ADD PUSH2 0xB69 JUMP JUMPDEST SWAP4 POP POP PUSH1 0x20 PUSH2 0xD29 DUP7 DUP3 DUP8 ADD PUSH2 0xA97 JUMP JUMPDEST SWAP3 POP POP PUSH1 0x40 DUP5 ADD CALLDATALOAD PUSH8 0xFFFFFFFFFFFFFFFF DUP2 GT ISZERO PUSH2 0xD4A JUMPI PUSH2 0xD49 PUSH2 0x9B0 JUMP JUMPDEST JUMPDEST PUSH2 0xD56 DUP7 DUP3 DUP8 ADD PUSH2 0xCC3 JUMP JUMPDEST SWAP2 POP POP SWAP3 POP SWAP3 POP SWAP3 JUMP JUMPDEST PUSH1 0x0 DUP2 MLOAD SWAP1 POP SWAP2 SWAP1 POP JUMP JUMPDEST PUSH1 0x0 DUP3 DUP3 MSTORE PUSH1 0x20 DUP3 ADD SWAP1 POP SWAP3 SWAP2 POP POP JUMP JUMPDEST PUSH1 0x0 JUMPDEST DUP4 DUP2 LT ISZERO PUSH2 0xD9A JUMPI DUP1 DUP3 ADD MLOAD DUP2 DUP5 ADD MSTORE PUSH1 0x20 DUP2 ADD SWAP1 POP PUSH2 0xD7F JUMP JUMPDEST DUP4 DUP2 GT ISZERO PUSH2 0xDA9 JUMPI PUSH1 0x0 DUP5 DUP5 ADD MSTORE JUMPDEST POP POP POP POP JUMP JUMPDEST PUSH1 0x0 PUSH2 0xDBA DUP3 PUSH2 0xD60 JUMP JUMPDEST PUSH2 0xDC4 DUP2 DUP6 PUSH2 0xD6B JUMP JUMPDEST SWAP4 POP PUSH2 0xDD4 DUP2 DUP6 PUSH1 0x20 DUP7 ADD PUSH2 0xD7C JUMP JUMPDEST PUSH2 0xDDD DUP2 PUSH2 0xBB5 JUMP JUMPDEST DUP5 ADD SWAP2 POP POP SWAP3 SWAP2 POP POP JUMP JUMPDEST PUSH1 0x0 PUSH1 0x20 DUP3 ADD SWAP1 POP DUP2 DUP2 SUB PUSH1 0x0 DUP4 ADD MSTORE PUSH2 0xE02 DUP2 DUP5 PUSH2 0xDAF JUMP JUMPDEST SWAP1 POP SWAP3 SWAP2 POP POP JUMP JUMPDEST PUSH1 0x0 DUP3 DUP3 MSTORE PUSH1 0x20 DUP3 ADD SWAP1 POP SWAP3 SWAP2 POP POP JUMP JUMPDEST PUSH32 0x596F7520617265206E6F7420746865206F776E65722C2061626F7274696E6721 PUSH1 0x0 DUP3 ADD MSTORE POP JUMP JUMPDEST PUSH1 0x0 PUSH2 0xE51 PUSH1 0x20 DUP4 PUSH2 0xE0A JUMP JUMPDEST SWAP2 POP PUSH2 0xE5C DUP3 PUSH2 0xE1B JUMP JUMPDEST PUSH1 0x20 DUP3 ADD SWAP1 POP SWAP2 SWAP1 POP JUMP JUMPDEST PUSH1 0x0 PUSH1 0x20 DUP3 ADD SWAP1 POP DUP2 DUP2 SUB PUSH1 0x0 DUP4 ADD MSTORE PUSH2 0xE80 DUP2 PUSH2 0xE44 JUMP JUMPDEST SWAP1 POP SWAP2 SWAP1 POP JUMP JUMPDEST PUSH32 0x596F7520617265206E6F20677561726469616E2C2061626F7274696E67000000 PUSH1 0x0 DUP3 ADD MSTORE POP JUMP JUMPDEST PUSH1 0x0 PUSH2 0xEBD PUSH1 0x1D DUP4 PUSH2 0xE0A JUMP JUMPDEST SWAP2 POP PUSH2 0xEC8 DUP3 PUSH2 0xE87 JUMP JUMPDEST PUSH1 0x20 DUP3 ADD SWAP1 POP SWAP2 SWAP1 POP JUMP JUMPDEST PUSH1 0x0 PUSH1 0x20 DUP3 ADD SWAP1 POP DUP2 DUP2 SUB PUSH1 0x0 DUP4 ADD MSTORE PUSH2 0xEEC DUP2 PUSH2 0xEB0 JUMP JUMPDEST SWAP1 POP SWAP2 SWAP1 POP JUMP JUMPDEST PUSH32 0x4E487B7100000000000000000000000000000000000000000000000000000000 PUSH1 0x0 MSTORE PUSH1 0x11 PUSH1 0x4 MSTORE PUSH1 0x24 PUSH1 0x0 REVERT JUMPDEST PUSH1 0x0 PUSH2 0xF2D DUP3 PUSH2 0xA76 JUMP JUMPDEST SWAP2 POP PUSH32 0xFFFFFFFFFFFFFFFFFFFFFFFFFFFFFFFFFFFFFFFFFFFFFFFFFFFFFFFFFFFFFFFF DUP3 SUB PUSH2 0xF5F JUMPI PUSH2 0xF5E PUSH2 0xEF3 JUMP JUMPDEST JUMPDEST PUSH1 0x1 DUP3 ADD SWAP1 POP SWAP2 SWAP1 POP JUMP JUMPDEST PUSH32 0x43616E27742073656E64206D6F7265207468616E2074686520636F6E74726163 PUSH1 0x0 DUP3 ADD MSTORE PUSH32 0x74206F776E732C2061626F7274696E672E000000000000000000000000000000 PUSH1 0x20 DUP3 ADD MSTORE POP JUMP JUMPDEST PUSH1 0x0 PUSH2 0xFC6 PUSH1 0x31 DUP4 PUSH2 0xE0A JUMP JUMPDEST SWAP2 POP PUSH2 0xFD1 DUP3 PUSH2 0xF6A JUMP JUMPDEST PUSH1 0x40 DUP3 ADD SWAP1 POP SWAP2 SWAP1 POP JUMP JUMPDEST PUSH1 0x0 PUSH1 0x20 DUP3 ADD SWAP1 POP DUP2 DUP2 SUB PUSH1 0x0 DUP4 ADD MSTORE PUSH2 0xFF5 DUP2 PUSH2 0xFB9 JUMP JUMPDEST SWAP1 POP SWAP2 SWAP1 POP JUMP JUMPDEST PUSH32 0x596F7520617265206E6F7420616C6C6F77656420746F2073656E6420616E7920 PUSH1 0x0 DUP3 ADD MSTORE PUSH32 0x7472616E73616374696F6E732C2061626F7274696E6700000000000000000000 PUSH1 0x20 DUP3 ADD MSTORE POP JUMP JUMPDEST PUSH1 0x0 PUSH2 0x1058 PUSH1 0x36 DUP4 PUSH2 0xE0A JUMP JUMPDEST SWAP2 POP PUSH2 0x1063 DUP3 PUSH2 0xFFC JUMP JUMPDEST PUSH1 0x40 DUP3 ADD SWAP1 POP SWAP2 SWAP1 POP JUMP JUMPDEST PUSH1 0x0 PUSH1 0x20 DUP3 ADD SWAP1 POP DUP2 DUP2 SUB PUSH1 0x0 DUP4 ADD MSTORE PUSH2 0x1087 DUP2 PUSH2 0x104B JUMP JUMPDEST SWAP1 POP SWAP2 SWAP1 POP JUMP JUMPDEST PUSH32 0x596F752061726520747279696E6720746F2073656E64206D6F7265207468616E PUSH1 0x0 DUP3 ADD MSTORE PUSH32 0x20796F752061726520616C6C6F77656420746F2C2061626F7274696E67000000 PUSH1 0x20 DUP3 ADD MSTORE POP JUMP JUMPDEST PUSH1 0x0 PUSH2 0x10EA PUSH1 0x3D DUP4 PUSH2 0xE0A JUMP JUMPDEST SWAP2 POP PUSH2 0x10F5 DUP3 PUSH2 0x108E JUMP JUMPDEST PUSH1 0x40 DUP3 ADD SWAP1 POP SWAP2 SWAP1 POP JUMP JUMPDEST PUSH1 0x0 PUSH1 0x20 DUP3 ADD SWAP1 POP DUP2 DUP2 SUB PUSH1 0x0 DUP4 ADD MSTORE PUSH2 0x1119 DUP2 PUSH2 0x10DD JUMP JUMPDEST SWAP1 POP SWAP2 SWAP1 POP JUMP JUMPDEST PUSH1 0x0 PUSH2 0x112B DUP3 PUSH2 0xA76 JUMP JUMPDEST SWAP2 POP PUSH2 0x1136 DUP4 PUSH2 0xA76 JUMP JUMPDEST SWAP3 POP DUP3 DUP3 LT ISZERO PUSH2 0x1149 JUMPI PUSH2 0x1148 PUSH2 0xEF3 JUMP JUMPDEST JUMPDEST DUP3 DUP3 SUB SWAP1 POP SWAP3 SWAP2 POP POP JUMP JUMPDEST PUSH1 0x0 DUP2 SWAP1 POP SWAP3 SWAP2 POP POP JUMP JUMPDEST PUSH1 0x0 PUSH2 0x116A DUP3 PUSH2 0xD60 JUMP JUMPDEST PUSH2 0x1174 DUP2 DUP6 PUSH2 0x1154 JUMP JUMPDEST SWAP4 POP PUSH2 0x1184 DUP2 DUP6 PUSH1 0x20 DUP7 ADD PUSH2 0xD7C JUMP JUMPDEST DUP1 DUP5 ADD SWAP2 POP POP SWAP3 SWAP2 POP POP JUMP JUMPDEST PUSH1 0x0 PUSH2 0x119C DUP3 DUP5 PUSH2 0x115F JUMP JUMPDEST SWAP2 POP DUP2 SWAP1 POP SWAP3 SWAP2 POP POP JUMP JUMPDEST PUSH32 0x5472616E73616374696F6E206661696C65642C2061626F7274696E6700000000 PUSH1 0x0 DUP3 ADD MSTORE POP JUMP JUMPDEST PUSH1 0x0 PUSH2 0x11DD PUSH1 0x1C DUP4 PUSH2 0xE0A JUMP JUMPDEST SWAP2 POP PUSH2 0x11E8 DUP3 PUSH2 0x11A7 JUMP JUMPDEST PUSH1 0x20 DUP3 ADD SWAP1 POP SWAP2 SWAP1 POP JUMP JUMPDEST PUSH1 0x0 PUSH1 0x20 DUP3 ADD SWAP1 POP DUP2 DUP2 SUB PUSH1 0x0 DUP4 ADD MSTORE PUSH2 0x120C DUP2 PUSH2 0x11D0 JUMP JUMPDEST SWAP1 POP SWAP2 SWAP1 POP JUMP INVALID LOG2 PUSH5 0x6970667358 0x22 SLT KECCAK256 RETURN 0xDD CALLDATASIZE 0xCD XOR 0xC2 MLOAD SSTORE SWAP7 0xC1 0x2C 0xFB PUSH5 0xDBC6CABE6F SWAP4 MSIZE NOT 0xCA SHL 0xC REVERT 0xAD SHL EXTCODECOPY 0xEC PUSH12 0xD3CF64736F6C634300080F00 CALLER "
				},
				"gasEstimates": {
					"creation": {
						"codeDepositCost": "936200",
						"executionCost": "25241",
						"totalCost": "961441"
					},
					"external": {
						"allowance(address)": "2859",
						"confirmationsFromGuardiansForReset()": "329",
						"denySending(address)": "27046",
						"guardian(address)": "2933",
						"isAllowedToSend(address)": "2846",
						"owner()": "2533",
						"proposeNewOwner(address)": "60673",
						"setAllowance(address,uint256)": "49379",
						"transfer(address,uint256,bytes)": "infinite"
					}
				},
				"methodIdentifiers": {
					"allowance(address)": "3e5beab9",
					"confirmationsFromGuardiansForReset()": "83012be1",
					"denySending(address)": "7673de53",
					"guardian(address)": "f29e2236",
					"isAllowedToSend(address)": "0bc605ad",
					"owner()": "8da5cb5b",
					"proposeNewOwner(address)": "b1f8100d",
					"setAllowance(address,uint256)": "310ec4a7",
					"transfer(address,uint256,bytes)": "be45fd62"
				}
			},
			"storageLayout": {
				"storage": [
					{
						"astId": 3,
						"contract": "contracts/SampleWallet.sol:SampleWallet",
						"label": "owner",
						"offset": 0,
						"slot": "0",
						"type": "t_address_payable"
					},
					{
						"astId": 7,
						"contract": "contracts/SampleWallet.sol:SampleWallet",
						"label": "allowance",
						"offset": 0,
						"slot": "1",
						"type": "t_mapping(t_address,t_uint256)"
					},
					{
						"astId": 11,
						"contract": "contracts/SampleWallet.sol:SampleWallet",
						"label": "isAllowedToSend",
						"offset": 0,
						"slot": "2",
						"type": "t_mapping(t_address,t_bool)"
					},
					{
						"astId": 15,
						"contract": "contracts/SampleWallet.sol:SampleWallet",
						"label": "guardian",
						"offset": 0,
						"slot": "3",
						"type": "t_mapping(t_address,t_bool)"
					},
					{
						"astId": 17,
						"contract": "contracts/SampleWallet.sol:SampleWallet",
						"label": "nextOwner",
						"offset": 0,
						"slot": "4",
						"type": "t_address_payable"
					},
					{
						"astId": 19,
						"contract": "contracts/SampleWallet.sol:SampleWallet",
						"label": "guardiansResetCount",
						"offset": 0,
						"slot": "5",
						"type": "t_uint256"
					}
				],
				"types": {
					"t_address": {
						"encoding": "inplace",
						"label": "address",
						"numberOfBytes": "20"
					},
					"t_address_payable": {
						"encoding": "inplace",
						"label": "address payable",
						"numberOfBytes": "20"
					},
					"t_bool": {
						"encoding": "inplace",
						"label": "bool",
						"numberOfBytes": "1"
					},
					"t_mapping(t_address,t_bool)": {
						"encoding": "mapping",
						"key": "t_address",
						"label": "mapping(address => bool)",
						"numberOfBytes": "32",
						"value": "t_bool"
					},
					"t_mapping(t_address,t_uint256)": {
						"encoding": "mapping",
						"key": "t_address",
						"label": "mapping(address => uint256)",
						"numberOfBytes": "32",
						"value": "t_uint256"
					},
					"t_uint256": {
						"encoding": "inplace",
						"label": "uint256",
						"numberOfBytes": "32"
					}
				}
			},
			"userdoc": {
				"kind": "user",
				"methods": {},
				"version": 1
			}
		}
	}
}